:020000040800F2
:10000000600700206506000831020008330200087E
:10001000370200083B0200083F0200080000000011
:100020000000000000000000000000004302000883
:1000300045020008000000004702000849020008CD
:100040007F0600087F0600087F0600087F0600087C
:100050007F0600087F0600087F0600087F0600086C
:100060007F0600087F0600087F0600087F0600085C
:100070007F0600087F0600087F0600087F0600084C
:100080007F0600087F0600087F0600087F0600083C
:100090007F0600087F0600087F0600087F0600082C
:1000A0007F0600087F0600087F0600087F0600081C
:1000B0007F0600087F0600087F0600087F0600080C
:1000C0007F0600087F0600087F0600087F060008FC
:1000D0007F060008DB0500087F0600087F06000891
:1000E0007F0600087F0600087F0600087F060008DC
:1000F0007F0600087F0600087F0600087F060008CC
:100100007F0600087F0600087F0600087F060008BB
:100110007F0600087F0600087F0600087F060008AB
:100120007F0600087F0600087F0600087F0600089B
:1001300000F002F800F03AF80AA090E8000C8244BF
:100140008344AAF10107DA4501D100F02FF8AFF29C
:10015000090EBAE80F0013F0010F18BFFB1A43F0A5
:1001600001031847B8650000D8650000103A24BFA5
:1001700078C878C1FAD8520724BF30C830C144BF0C
:1001800004680C607047000000230024002500264E
:10019000103A28BF78C1FBD8520728BF30C148BFEA
:1001A0000B6070471FB51FBD10B510BD01F093FA6D
:1001B0001146FFF7F7FF00F009F801F0B1FA03B4B8
:1001C000FFF7F2FF03BC00F0ADF9000000F02EF9DC
:1001D00000F0A2F901F0C8F925E001F0B2F8002022
:1001E00001F087F9012000F082F901F0AAF8FF2060
:1001F00001F07FF9012000F07AF901F052F84FF494
:100200008051094800F0CBFB01F09BF8074801F052
:1002100043F94FF48051044800F0BFFB012000F087
:1002200066F900BFFEE7D8E700180140EB3C000884
:10023000704700BFFEE700BFFEE700BFFEE700BF5C
:10024000FEE7704770477047704700000CB500200C
:10025000019000906C48006840F480306A49086062
:1002600000BF6948006800F4003000900198401C0D
:100270000190009818B90198B0F5A06FF1D16248CB
:10028000006800F4003010B10120009001E000206F
:1002900000900098012843D15C48006840F01000AD
:1002A0005A4908600846006820F0030008600846C4
:1002B000006840F0020008605348406852494860B6
:1002C0000846406848600846406840F480604860DE
:1002D0000846406820F47C1048600846406840F4B6
:1002E000E81048600846006840F08070086000BF71
:1002F0004548006800F000700028F9D04248406886
:1003000020F00300404948600846406840F0020081
:10031000486000BF3C48406800F00C000828F9D154
:100320000CBD10B5FFF792FF10BD10B53648006840
:1003300040F00100344908600846406834490840EC
:100340003149486008460068324908402E49086033
:100350000846006820F4802008600846406820F4C1
:10036000FE0048604FF41F008860FFF7DAFF4FF08F
:1003700000602949086010BD10B50021002000224E
:10038000214B5B6803F00C0121B1042906D0082938
:1003900028D107E0214B224C236027E01F4B204C43
:1003A000236023E0184B5B6803F47010164B5B6806
:1003B00003F48032022303EB904022B9194B4343EC
:1003C000174C23600DE0104B5B6803F4003323B13E
:1003D000144B4343124C236003E0104B4343104C37
:1003E000236003E00D4B0E4C236000BF00BF064BA3
:1003F0005B68C3F303130C4CE15C094B1B68CB40F7
:10040000074C236010BD0000001002400020024095
:100410000000FFF8FFFFF6FE08ED00E000127A0092
:100420000000002000093D000400002010B56FF01E
:10043000040000F086F9344800683449B0FBF1F05C
:10044000334908700846007800EB4001C1EBC0104A
:100450004FF6FF7101EAC0002E49088010BD014629
:100460002B4A12784A434FF0E0235A6100229A61E6
:100470001A46126942F001021A6100BF4FF0E022F1
:10048000106900F001021AB100F48032002AF5D0A0
:100490004FF0E022126922F001024FF0E0231A61CE
:1004A00000229A61704701461A4A12884A434FF067
:1004B000E0235A6100229A611A46126942F0010251
:1004C0001A6100BF4FF0E022106900F001021AB17A
:1004D00000F48032002AF5D04FF0E022126922F0B9
:1004E00001024FF0E0231A6100229A61704730B593
:1004F0000446002505E04FF47A70FFF7D4FF681C2E
:1005000085B2A542F7DB30BD0000002000127A0062
:10051000140000201600002010B54FF4A06000F079
:10052000C1F810BD014600BF704700BF494A12889C
:1005300002F04002002AF9D0C2B2464B1B1D1A80BD
:10054000704710B586B00446012144F2050000F062
:1005500033FC4FF40070ADF8140003208DF8160042
:1005600018208DF8170005A93B4800F069F94FF4F1
:100570008060ADF8140004208DF8170005A93648F6
:1005800000F05EF925208DF8000003208DF80100B1
:100590008DF8020001208DF80300684600F087F80E
:1005A00001940020ADF80800ADF80A00ADF80C0089
:1005B000ADF810000C20ADF80E0001A9254800F0A0
:1005C000A2FC012240F22551224800F034FD012115
:1005D000204800F024FD06B010BD10B540F22551B2
:1005E0001C4800F00DFE10B31A4800F089FDC4B29B
:1005F0001A48008800F40040C8B91848008800F480
:10060000804060B10A2C03D000201449088020E00B
:100610001248008840F400401049088019E00D2C71
:1006200006D10E48008840F480400C49088010E054
:100630000A480088C0F30D0009490C540748008897
:10064000401C0649088008460088C72801DD0020B4
:10065000088010BD00380140000801401C00002047
:10066000340000200948804709480047FEE7FEE7BC
:10067000FEE7FEE7FEE7FEE7FEE7FEE7FEE7FEE752
:1006800004480549054A064B704700002B03000843
:100690003101000860010020600700206003002095
:1006A0006003002031490143314A1160704770B541
:1006B000002100230F22C47804B32D4C246804F4D5
:1006C000E064C4F5E064210AC1F10403CA4044783F
:1006D00004FA03F18478144021430901254C06787B
:1006E000A155047804F01F050124AC4005786D1174
:1006F000AD0005F1E025C5F8004109E0047804F0FB
:100700001F050124AC401C4D0678761145F82640A3
:1007100070BD1A4A0A400243154B1B1F1A607047EE
:1007200039B1134A121D12680243114B1B1D1A6086
:1007300006E00F4A121D126882430D4B1B1D1A6002
:100740007047042808D14FF0E021096941F0040105
:100750004FF0E022116107E04FF0E021096921F03C
:1007600004014FF0E0221161704700000000FA051B
:100770000CED00E000E400E080E100E080FFFF1FFE
:1007800010B50446CC48844208D10121042000F071
:100790002DFB0021042000F029FB46E0C7488442DD
:1007A00008D10121082000F021FB0021082000F0E1
:1007B0001DFB3AE0C248844208D10121102000F01C
:1007C00015FB0021102000F011FB2EE0BD488442F3
:1007D00008D10121202000F009FB0021202000F099
:1007E00005FB22E0B848844208D10121402000F0F6
:1007F000FDFA0021402000F0F9FA16E0B3488442E7
:1008000008D10121802000F0F1FA0021802000F0C1
:10081000EDFA0AE0AE48844207D10121801500F0CC
:10082000E5FA0021A01500F0E1FA10BD10B5012194
:10083000084600F0DBFA0021012000F0D7FA10BDD5
:100840002DE9F04102460025002600200023002467
:10085000002791F803C00CF00F0591F803C00CF0CD
:10086000100CBCF1000F03D091F802C04CEA050552
:1008700091F800C0BCF1000F31D0146800202BE0CB
:100880004FF0010C0CFA00F3B1F800C00CEA0306BB
:100890009E4220D183004FF00F0C0CFA03F7BC43AB
:1008A00005FA03FC4CEA040491F803C0BCF1280FDC
:1008B00006D14FF0010C0CFA00FCC2F814C00AE09B
:1008C00091F803C0BCF1480F05D14FF0010C0CFAB0
:1008D00000FCC2F810C0401C0828D1D31460B1F845
:1008E00000C0BCF1FF0F34DD546800202EE000F1A1
:1008F000080C4FF0010808FA0CF3B1F800C00CEA3C
:1009000003069E4221D183004FF00F0C0CFA03F72F
:10091000BC4305FA03FC4CEA040491F803C0BCF1A3
:10092000280F05D100F1080C08FA0CF8C2F8148061
:1009300091F803C0BCF1480F07D100F1080C4FF04B
:10094000010808FA0CF8C2F81080401C0828CED321
:100950005460BDE8F0814FF6FF7101800221817083
:100960000421C17070470246002093680B400BB110
:10097000012000E0002070470146886880B270477F
:1009800002460020D3680B400BB1012000E000209C
:1009900070470146C86880B2704701617047416185
:1009A00070470AB1016100E041617047C160704762
:1009B0004FF480320A438261816182618269826977
:1009C000704702460020434B18684FF6807318406A
:1009D00040EA021008433F4B186070473E49C86127
:1009E0007047F0B50A46002300240021002500F0DE
:1009F0000046B6F1004F02D1364EF16901E0354EA6
:100A00007168C0F3034583B200F44016B6F5401F89
:100A100008D121F070612F4E766826F070662D4F58
:100A20007E6012E000F48016B6F5801F06D1032622
:100A300006FA05F4A14341F0706106E0460D360167
:100A400003FA06F6B14341F0706122B1460D36015A
:100A500003FA06F6314300F00046B6F1004F02D12A
:100A60001C4EF16101E01B4E7160F0BD30B50022FB
:100A70008B071C0F0F2303FA04F2164B08338C105C
:100A800053F824309343134C08348D1044F8253028
:100A900023468C1053F824308C07240F00FA04F4FA
:100AA00023430C4C08348D1044F8253030BD0A49DE
:100AB000DC3108607047000000080140000C014074
:100AC000001001400014014000180140001C0140CA
:100AD000002001400000014000002042DF48006883
:100AE00040F00100DD49086008464068DC490840E4
:100AF000DA49486008460068DA490840D749086082
:100B00000846006820F4802008600846406820F409
:100B1000FE0048604FF41F0088607047CF490968A5
:100B200021F48031CD4A11601146096821F48021F9
:100B30001160B0F5803F03D0B0F5802F0ED106E0F4
:100B4000C649096841F48031C44A116007E0C349CD
:100B5000096841F4A021C14A116000E000BF00BF54
:100B6000704710B501460022002300204A11012AD7
:100B700002D1BA4C236806E0022A02D1B74C236A9C
:100B800001E0B64C636A01F01F02012494401C404E
:100B90000CB1012000E0002010BD38B5002000900D
:100BA0000024002500BF3120FFF7DBFF0546009839
:100BB000401C00900098B0F5A06F01D0002DF2D03D
:100BC0003120FFF7CEFF08B1012400E000242046C9
:100BD00038BD01460020A14A106820F0F80040EA24
:100BE000C10010607047A0490860704702460020AD
:100BF0009A4B586820F47C1042EA01031843974B43
:100C00005860704798490866704701460020934A2B
:100C1000506820F003000843506070478F484068D8
:100C200000F00C007047014600208C4A506820F00C
:100C3000F00008435060704701460020874A506822
:100C400020F4E06008435060704701460020834A6A
:100C5000506820F4605040EAC1005060704729B1EC
:100C60007E4A527A02437D4B5A7204E07B4A527AA2
:100C700082437A4B5A7270477B49D831086070477B
:100C800001460020754A506820F4404008435060F7
:100C900070470021714A20321170704A82F820108A
:100CA000012802D004280AD104E001216B4A203235
:100CB000117005E00521694A2032117000E000BF83
:100CC00000BF70476949086070476449096A014379
:100CD000624A11627047654944390860704730B50F
:100CE00000210022002400235C4D6D6805F00C01FA
:100CF00021B1042905D0082923D105E05C4D056008
:100D000022E05B4D05601FE0544D6D6805F47012E4
:100D1000524D6D6805F48034022505EB92421CB9F2
:100D2000544D554305600BE04C4D6D6805F400359E
:100D30001DB1504D5543056002E04D4D55430560D2
:100D400002E04B4D056000BF00BF444D6D6805F0EB
:100D5000F0010909484D6B5C0568DD4045603F4D79
:100D60006D6805F4E061090A434D6B5C4568DD4040
:100D700085603A4D6D6805F46051C90A3E4D6B5C63
:100D80004568DD40C560354D6D6805F44041890B0F
:100D90003A4D6B5CC568B5FBF3F5056130BD29B113
:100DA0002E4A526902432D4B5A6104E02B4A526984
:100DB00082432A4B5A61704729B1284A92690243FB
:100DC000264B9A6104E0254A92698243234B9A613B
:100DD000704729B1214AD2690243204BDA6104E00D
:100DE0001E4AD26982431D4BDA61704729B11B4A02
:100DF000D2680243194BDA6004E0184AD268824391
:100E0000164BDA60704729B1144A12690243134B3A
:100E10001A6104E0114A12698243104B1A6170474B
:100E200012494039086070470F49C86470470B4940
:100E3000C87170470948406A40F0807007494862AD
:100E4000704701460020054A92680A400AB1012015
:100E500000E000207047014988727047001002408E
:100E60000000FFF8FFFFF6FE00004242800442420D
:100E700000127A0000093D001E0000202E00002014
:100E800010B50446FB48844209D101218803FFF7CD
:100E9000ADFF00214FF48040FFF7A8FF32E0F64895
:100EA000844209D101214804FFF7ADFF00214FF42E
:100EB0000030FFF7A8FF25E0F048844209D1012166
:100EC0008804FFF7A0FF00214FF48020FFF79BFF6D
:100ED00018E0EB48844209D10121C804FFF793FFD1
:100EE00000214FF40020FFF78EFF0BE0E54884421D
:100EF00008D101210805FFF786FF00214FF480107B
:100F0000FFF781FF10BD2DE9F04786B005460E467C
:100F10000024A24600BFA1460027B08900B100BF4F
:100F20002F462C8A4CF6FF700440F08804432C8234
:100F3000AC894EF6F3100440B088318908437189BA
:100F400008430443AC81AC8A4FF6FF400440B089AB
:100F50000443AC8201A8FFF7C2FEC648874202D113
:100F6000DDF810A001E0DDF80CA0A88900F4004035
:100F700040B10AEBCA0000EB0A1031684900B0FB2F
:100F8000F1F807E00AEBCA0000EB0A1031688900AB
:100F9000B0FBF1F86420B8FBF0F0040120096421F3
:100FA00001FB1089A88900F4004040B1322000EB19
:100FB000C900B0FBF1F000F00700044308E0322064
:100FC00000EB09106421B0FBF1F000F00F000443C6
:100FD0002C8106B0BDE8F0874FF416510160002166
:100FE0008180C18001810C21418100218181704774
:100FF00010B502460020108A4FF2FF0318400B88FC
:101000004C8823438C882343CC8823431843108285
:1010100010BD0021018041808180C180704721B1D5
:10102000828942F40052828104E082894DF6FF7386
:101030001A4082817047F0B503460024002600253F
:10104000002040F66A17B94200D100BF1846C1F32C
:10105000421401F01F06012707FA06F5012C01D101
:101060000C3004E0022C01D1103000E014301AB131
:1010700007682F43076002E00768AF430760F0BDD1
:101080001AB1838A0B43838202E0838A8B43838273
:101090007047028A4FF6F0731A400282028A0A43AE
:1010A0000282704782894FF2FF731A4082818289DF
:1010B0000A438281704721B1828942F00202828113
:1010C00004E082894FF6FD731A4082817047028ADC
:1010D0004FF6DF731A400282028A0A430282704787
:1010E00021B1028A42F48042028204E0028A4BF675
:1010F000FF731A4002827047C1F308028280704772
:1011000001468888C0F308007047818941F00101D9
:1011100081817047028BD2B20283028B42EA0122A4
:1011200002837047028B02F47F420283028B0A43E0
:101130000283704721B1828A42F02002828204E059
:10114000828A4FF6DF731A408282704721B1828A09
:1011500042F01002828204E0828A4FF6EF731A4056
:101160008282704721B1828A42F00802828204E0C2
:10117000828A4FF6F7731A408282704721B18289C2
:1011800042F40042828103E08289C2F30E0282812E
:10119000704721B1828A42F40062828204E0828A2E
:1011A0004FF2FF731A4082827047828A4FF6FB73B8
:1011B0001A408282828A0A438282704721B1828ADF
:1011C00042F00202828204E0828A4FF6FD731A40E6
:1011D0008282704702460020B1F5007F00D100BF37
:1011E00013880B400BB1012000E00020704701F490
:1011F0000072B2F5007F00D100BFCA430280704781
:1012000070B50246002400230025002040F66A162F
:10121000B14200D100BFC1F3421501F01F03012606
:1012200006FA03F3012D02D19689334006E0022D20
:1012300002D1168A334001E0968A33400C1201260F
:1012400006FA04F41688344013B10CB1012000E012
:10125000002070BD10B50022002340F66A14A142A0
:1012600000D100BF0A1201249440A3B2DC430480E1
:1012700010BD00000038014000440040004800401C
:10128000004C00400050004006E042F6E06100BF24
:101290000A1EA1F10101FBD1021EA0F10100F4D14F
:1012A000704710B54FF48041A948FFF778FB1E2026
:1012B000FFF7EAFF4FF48041A548FFF76EFB962049
:1012C000FFF7E2FF10BD10B5202000F0C1F90024A7
:1012D00004E0A049085D00F0D8F9641C2A2CF8D37A
:1012E000212000F0B5F9002404E09B49085D00F0DE
:1012F000CCF9641C2A2CF8D3222000F0A9F9002490
:1013000004E09649085D00F0C0F9641C2A2CF8D36B
:10131000232000F09DF9002404E09149085D00F0CD
:10132000B4F9641C2A2CF8D3242000F091F900248D
:1013300004E08C49085D00F0A8F9641C2A2CF8D35D
:1013400010BD10B5FFF7ADFF002000F081F9F320CC
:1013500000F09BF90D2000F098F9012000F078F9D9
:10136000032000F092F9102000F08FF93F2000F0E8
:101370008CF93F2000F089F9032000F086F9032062
:1013800000F066F9002000F080F9062000F060F916
:101390000F2000F07AF90F2000F077F90F2000F00D
:1013A00074F9412000F054F9002000F06EF92A2071
:1013B00000F04EF9002000F068F9002000F065F917
:1013C000002000F062F9FF2000F05FF9002000F03B
:1013D0005CF9302000F03CF9092000F056F950206B
:1013E00000F036F9B72000F050F9602000F030F935
:1013F000222000F04AF9612000F02AF9F02000F0E4
:1014000044F9012000F041F9682000F03EF9652020
:1014100000F01EF9002000F038F9002000F035F946
:10142000002000F032F9822000F012F9072000F0CD
:101430002CF9E02000F00CF9002000F026F9E32060
:1014400000F006F9002000F020F9E42000F000F997
:10145000032000F01AF9E52000F0FAF8002000F06F
:1014600014F9FFF730FFC820FFF70EFF10BD10B5CD
:10147000072000F0EDF8A52000F007F910BD10B529
:1014800007E04FF400513248FFF76DFA044604B10B
:1014900000E0F6E700BF10BD70B50446132000F071
:1014A000D7F8002504E0207800F0EFF8641C6D1CEC
:1014B00042F630208542F6D3042000F0C9F8FFF749
:1014C000DEFF122000F0C4F8FFF7D9FF022000F081
:1014D000BFF870BD10B5042000F0BAF8FFF7CFFFD9
:1014E000122000F0B5F86420FFF7CEFEFFF7C7FF2B
:1014F00010BD2DE9F04104460027132000F0A8F8A4
:10150000002612E000250DE02CB1FF2C07D1FF20B2
:1015100000F0BBF804E0002000F0B7F800E000BFE6
:1015200000BF6D1C1E2DEFD3761CB6F5B47FE9D33A
:10153000042000F08DF8FFF7A2FF122000F088F8D9
:10154000FFF79DFF022000F083F8BDE8F081000066
:10155000001801403C1700085F17000882170008B8
:10156000A5170008C817000808B501216020FFF77B
:1015700023FC4FF4E060ADF8000010208DF803006C
:1015800002208DF8020069464E48FFF759F94FF4E2
:101590004040ADF8000010208DF8030002208DF8C7
:1015A000020069464848FFF74BF94FF40050ADF888
:1015B000000048208DF8030002208DF802006946E3
:1015C0004148FFF73DF94FF48050ADF8000010207E
:1015D0008DF8030002208DF8020069463A48FFF7B3
:1015E0002FF908BD00BF011EA0F10102D0B2FAD14F
:1015F000704770B504460120FFF7F4FF002524E092
:101600004FF400712F48FFF7CAF90120FFF7EAFFF6
:1016100004F0800028B14FF480612A48FFF7BDF93B
:1016200004E04FF480612748FFF7B9F96006040E23
:101630000120FFF7D7FF4FF400712248FFF7ADF903
:101640000120FFF7CFFF681CC5B2082DD8DB70BDA5
:1016500010B504460120FFF7C5FF4FF4807119480B
:10166000FFF79DF94FF400411748FFF798F920461E
:10167000FFF7BFFF4FF480711248FFF78EF94FF468
:1016800000411148FFF789F910BD10B5044601204B
:10169000FFF7A8FF4FF480710A48FFF780F94FF475
:1016A00000410948FFF779F92046FFF7A2FF4FF400
:1016B00080710448FFF771F94FF400410248FFF7C9
:1016C0006CF910BD001401400018014070477047CC
:1016D000704770477047754600F02CF8AE4605001D
:1016E0006946534620F00700854618B020B5FEF73E
:1016F000C7FFBDE820404FF000064FF000074FF055
:1017000000084FF0000B21F00701AC46ACE8C0091F
:10171000ACE8C009ACE8C009ACE8C0098D46704728
:1017200010B50446AFF300802046BDE81040FEF738
:1017300046BD000000487047FC000020011919193F
:10174000190101000000000000000000000000007E
:101750000000000000000000000000000000000188
:101760005999599901010000000000000000000093
:101770000000000000000000000000000000000069
:101780000000015999599901010000000000000072
:101790000000000000000000000000000000000049
:1017A0000000000000011999599901010000000092
:1017B0000000000000000000000000000000000029
:1017C0000000000000000000011999599901010072
:1017D0000000000000000000000000000000000009
:1017E0000000000000000000000000FFFFFFFFFFFE
:1017F000FFFFFFFFFFFFFFFFFFFFFFFFFFFFFFFFF9
:10180000FFFFFFFFFFFFFFFFFFFFFFFFFFFFFFFFE8
:10181000FFFFFFFFFFFFFFFFFFFFFFFFFFFFFFFFD8
:10182000FFFFFFFFFFFFFFFFFFFFFFFFFFFFFFFFC8
:1027E000FFFFFFFFFFFFFFFFFFFFFFA5A5D7000FC4
:1027F0000F0F00B722F0016800000000000300FF87
:10280000FFFFFFFFFF00050A141E7FFFFFFFFFFF12
:10281000FFFFFFFFFF09103F3F030700000001A378
:10282000A36363010101A3A36363010101A3A36384
:1028300063010101A3A301000101000000000000E9
:102840000000000000000000016363A3A301010178
:102850006363A3A30101016363A3A3010101A3A314
:102860000100010100000000000000000000000065
:102870000000016363A3A30101016363A3A301013A
:10288000016363A3A3010101A3A3010001010000EF
:1028900000000000000000000000000001A3A3A34E
:1028A000A30101016363A3A30101016363A3A30166
:1028B000010163630100010100000000000000004D
:1028C00000000000000001A3A3A3A30101016363B2
:1028D000A3A30101016363A3A301010163630100D9
:1028E00001010000000000000000000000000000E6
:1028F000FFFFFFFFFFFFFFFFFFFFFFFFFFFF0910CD
:102900003F3F030700000001A363A363010101A38C
:1029100063A30101010000000000000000000000AE
:1029200000000000000000000000000000000000A7
:10293000000163A363A301010163A3A301010100DB
:102940000000000000000000000000000000000087
:1029500000000000000000000000000163A363A36A
:1029600001010163A3A301010100000000000000B8
:102970000000000000000000000000000000000057
:10298000000000000001A3A363A301010163A3638E
:102990000101010000000000000000000000000034
:1029A0000000000000000000000000000000000126
:1029B000A3A363A301010163A3630101010000005C
:1029C0000000000000000000000000000000000007
:1029D000000000000000000000FFFFFFFFFFFFFFFE
:1029E000FFFFFFFFFFFFFF09103F3F03070000004D
:1029F0000199599959010101995999010101000061
:102A000000000000000000000000000000000000C6
:102A100000000000000000000000015999599901D0
:102A20000101599999010101000000000000000016
:102A30000000000000000000000000000000000096
:102A40000000000001599959990101015999990112
:102A50000101000000000000000000000000000074
:102A600000000000000000000000000000000199CC
:102A7000995999010101599959010101000000007A
:102A80000000000000000000000000000000000046
:102A9000000000000000000001999959990101010E
:102AA00059995901010100000000000000000000D8
:102AB0000000000000000000000000000000000016
:102AC0000000FFFFFFFFFFFFFFFFFFFFFFFFFFFF14
:102AD00009103F3F030700000001191919190101EE
:102AE0000119191901010100000000000000000097
:102AF00000000000000000000000000000000000D6
:102B000000000001599959990101015999190101D0
:102B100001000000000000000000000000000000B4
:102B200000000000000000000000000000015999B2
:102B30005999010101599919010101000000000092
:102B40000000000000000000000000000000000085
:102B50000000000000000001199959990101015974
:102B60009959010101000000000000000000000070
:102B70000000000000000000000000000000000055
:102B8000000119995999010101599959010101004F
:102B90000000000000000000000000000000000035
:102BA0000000000000000000000000FFFFFFFFFF2A
:102BB000FFFFFFFFFFFFFFFFFF09103F3F0307007D
:102BC0000000011414141401010114141401010172
:102BD00000000000000000000000000000000000F5
:102BE00000000000000000000000000001549454A8
:102BF000940101015494140101010000000000003F
:102C000000000000000000000000000000000000C4
:102C100000000000000001549454940101015494F8
:102C2000140101010000000000000000000000008D
:102C30000000000000000000000000000000000094
:102C400001149454940101015494540101010000B1
:102C50000000000000000000000000000000000074
:102C600000000000000000000000011494549401D2
:102C70000101549454010101000000000000000013
:102C80000000000000000000000000000000000044
:102C900000000000FFFFFFFFFFFFFFFFFFFFFFFF40
:102CA000FFFF09103F3F0307000000011414141434
:102CB00001010114140606010101050504040101C6
:102CC00001030302020101010100000001000000F4
:102CD0000000000000015494549401010154148632
:102CE00006010101850584040101018303820201BB
:102CF00001010100000001000000000000000001CF
:102D0000549454940101015414860601010185056F
:102D1000840401010183038202010101010000001A
:102D2000010000000000000000011494549401010F
:102D300001549406460101010545044401010103C3
:102D400043024201010101000000010000000000F7
:102D500000000001149454940101015494064601AA
:102D6000010105450444010101034302420101013F
:102D700001000000010000000000000000FFFFFF54
:102D8000FFFFFFFFFFFFFFFFFFFFFFFFFFFFFFFF53
:102D9000FFFFFFFFFFFFFFFFFFFFFFFFFFFFFFFF43
:102DA000FFFFFFFFFFFFFFFFFFFFFFFFFFFFFFFF33
:102DB000FFFFFFFFFFFFFFFFFFFFFFFFFFFFFFFF23
:10380000FFFFFFFFFFFFFFFFFFFFFFFFFC01FFFFC9
:10381000E0003FFFC0001FFF87FF0FFF1FFFC7FF34
:103820003FFFE7FF7FFFF7FF7FFFF7FF3FFFE7FF68
:103830001FFFC7FF83FE0FFFC0001FFFE0003FFF19
:10384000FC01FFFFFFFFFFFFFFFFFFFFFFFFFFFF89
:10385000FFFFFFFFFFFFFFFFFFFFFFFFFFFFFFFF78
:10386000FFFFFFFFFFFFFFFFFFFFFFFFFFFFFFFF68
:10387000FFFFFFFFFFFFFFFFFFFFFFFFFFFFFFFF58
:10388000FFFFFFFFFFFFFFFFFFFFFFFFFFFFFFFF48
:10389000FFFFFFFFFFFFF7FFFFFFF7FFFFFFF7FF50
:1038A000FFFFE7FF000007FF000007FF800007FFA2
:1038B000DFFFE7FFDFFFF7FFDFFFF7FFDFFFF7FFC8
:1038C000FFFFFFFFFFFFFFFFFFFFFFFFFFFFFFFF08
:1038D000FFFFFFFFFFFFFFFFFFFFFFFFFFFFFFFFF8
:1038E000FFFFFFFFFFFFFFFFFFFFFFFFFFFFFFFFE8
:1038F000FFFFFFFFFFFFFFFFFFFFFFFFFFFFFFFFD8
:10390000FFFFFFFFFFFFFFFFFFFFFFFFFFFFFFFFC7
:10391000E0FE1FFF807E07FF803FC7FF1F1FE7FFFE
:103920003FCFE7FF7FE7E7FF7FF3E7FF7FF9E7FFA1
:103930007FFCE7FF3FFE67FF99FF27FFC1FF87FF7F
:10394000E1FFC7FFFFFFFFFFFFFFFFFFFFFFFFFFDD
:10395000FFFFFFFFFFFFFFFFFFFFFFFFFFFFFFFF77
:10396000FFFFFFFFFFFFFFFFFFFFFFFFFFFFFFFF67
:10397000FFFFFFFFFFFFFFFFFFFFFFFFFFFFFFFF57
:10398000FFFFFFFFFFFFFFFFFFFFFFFFFFFFFFFF47
:10399000FFF87FFFE1E01FFF80C00FFF804FCFFFE8
:1039A0001E1FE7FF3F1FF7FF7FBFF7FF7FBFF7FF38
:1039B0007FBFF7FF3FFFE7FF83FE0FFF83FE0FFF91
:1039C000C3FE1FFFFFFFFFFFFFFFFFFFFFFFFFFF24
:1039D000FFFFFFFFFFFFFFFFFFFFFFFFFFFFFFFFF7
:1039E000FFFFFFFFFFFFFFFFFFFFFFFFFFFFFFFFE7
:1039F000FFFFFFFFFFFFFFFFFFFFFFFFFFFFFFFFD7
:103A0000FFFFFFFFFFFFFFFFFFFFFFFFFFFDFBFFCC
:103A1000FFFDFBFFFFFDFBFF000003FF000003FFB6
:103A2000000003FF800003FFE3FDFBFFF0FDFBFF51
:103A3000FC7DFBFFFE1DFFFFFF8DFFFFFFE1FFFF92
:103A4000FFF1FFFFFFFDFFFFFFFFFFFFFFFFFFFF96
:103A5000FFFFFFFFFFFFFFFFFFFFFFFFFFFFFFFF76
:103A6000FFFFFFFFFFFFFFFFFFFFFFFFFFFFFFFF66
:103A7000FFFFFFFFFFFFFFFFFFFFFFFFFFFFFFFF56
:103A8000FFFFFFFFFFFFFFFFFFFFFFFFFFFFFFFF46
:103A90003FE07FFF3F801FFF3F000FFF3E3F8FFF54
:103AA0003E7FE7FF3EFFF7FF3EFFF7FF3EFFF7FFDA
:103AB0003E7FF7FF073FF7FF001E67FFF81E0FFF6F
:103AC000FFFE1FFFFFFFFFFFFFFFFFFFFFFFFFFFE7
:103AD000FFFFFFFFFFFFFFFFFFFFFFFFFFFFFFFFF6
:103AE000FFFFFFFFFFFFFFFFFFFFFFFFFFFFFFFFE6
:103AF000FFFFFFFFFFFFFFFFFFFFFFFFFFFFFFFFD6
:103B0000FFFFFFFFFFFFFFFFFFFFFFFFFFE07FFF64
:103B1000CFC01FFF8F800FFF0F1FCFFF7F3FE7FF3B
:103B20007F7FF7FF7F7FF7FF3F7FF7FF3F3FE7FF95
:103B30009F9FC7FFC38F0FFFE0001FFFF0003FFFF5
:103B4000FE00FFFFFFFFFFFFFFFFFFFFFFFFFFFF85
:103B5000FFFFFFFFFFFFFFFFFFFFFFFFFFFFFFFF75
:103B6000FFFFFFFFFFFFFFFFFFFFFFFFFFFFFFFF65
:103B7000FFFFFFFFFFFFFFFFFFFFFFFFFFFFFFFF55
:103B8000FFFFFFFFFFFFFFFFFFFFFFFFFFFFFFFF45
:103B90003FFFFFFF1FFFFFFF07FFFFFF21FFFFFFAB
:103BA000387FFFFF3E0FFFFF3F8007FF3FF007FF1B
:103BB0003FFE07FF1FFFFFFF0FFFFFFF03FFFFFF9A
:103BC000C3FFFFFFFFFFFFFFFFFFFFFFFFFFFFFF41
:103BD000FFFFFFFFFFFFFFFFFFFFFFFFFFFFFFFFF5
:103BE000FFFFFFFFFFFFFFFFFFFFFFFFFFFFFFFFE5
:103BF000FFFFFFFFFFFFFFFFFFFFFFFFFFFFFFFFD5
:103C0000FFFFFFFFFFFFFFFFFFFFFFFFFFFFFFFFC4
:103C1000E1F83FFFC0F01FFF80600FFF1E03CFFFE2
:103C20003F87E7FF7F8FF7FF7F9FF7FF7F1FF7FF3C
:103C30003E1FF7FF1C0FE7FF8047CFFFC0E00FFFDD
:103C4000E1F01FFFFFF83FFFFFFFFFFFFFFFFFFF58
:103C5000FFFFFFFFFFFFFFFFFFFFFFFFFFFFFFFF74
:103C6000FFFFFFFFFFFFFFFFFFFFFFFFFFFFFFFF64
:103C7000FFFFFFFFFFFFFFFFFFFFFFFFFFFFFFFF54
:103C8000FFFFFFFFFFFFFFFFFFFFFFFFFFFFFFFF44
:103C9000F803FFFFE0007FFFC0003FFF8F8C1FFF96
:103CA0003FCF8FFF7FE7C7FF7FF7E7FF7FF7F7FF84
:103CB0007FF7F7FF3FE7F7FF8FC787FF800F8FFF83
:103CC000C01F8FFFF03FFFFFFFFFFFFFFFFFFFFF62
:103CD000FFFFFFFFFFFFFFFFFFFFFFFFFFFFFFFFF4
:103CE000FFFFFFFFFFFFFFFFFFFFFFFFFFFFFFFFE4
:103CF000FFFFFFFFFFFFFFFFFFFFFFFFFFFFFFFFD4
:103D0000FFFFFFFFFFFFFFFFFFFFFFFFFFFFFFFFC3
:103D1000FFFFFFFFFFFFFFFFFFFFFFFFFFFFFFFFB3
:103D2000FFFFFFFFFFFFFFFFFFFFFFFFFFFFFFFFA3
:103D3000FFFFFFFFFFFFFFFFFFFFFFFFFFFFFFFF93
:103D4000FFFFFFFFFFFFFFFFFFFFFFFFFFFFFFFF83
:103D5000FFFFFFFFFFFFFFFFFFFFFFFFFFFFFFFF73
:103D6000FFFFFFFFFFFFFFFFFFFFFFFFFFFFFFFF63
:103D7000FFFFFFFFFFFFFFFFFFFFFFFFFFFFFFFF53
:103D8000FFFFFFFFFFFFFFFFFFFFFFFFFFFFFFFF43
:103D9000FFFFFFFFFFFFFFFFFFFFFFFFFFFFFFFF33
:103DA000FFFFFFFFFFFFFFFFFFFFFFFFFFFFFFFF23
:103DB000FFFFFFFFFFFFFFFFFFFFFFFFFFFFFFFF13
:103DC000FFFFFFFFFFFFFFFFFFFF3FBFFFFFFFFF03
:103DD000FFFFFFFFFFFFFFFFFFFFFFFFFFFFFFFFF3
:103DE000FFFFFFFFFFFFFFFF3F9FFFFFFFFFFFFF03
:103DF000FFFFFFFFFFFFFFFFFFFFFFFFFFFFFFFFD3
:103E0000FFFFFFFFFE7F3F1FFFFFFFFFFFFFFFFFE3
:103E1000FFFFFFFFFFFFFFFFFFFFFFFFFFFFFFFFB2
:103E2000FFFFFE7F3F3FFFFFFFFFFFFFFFFFFFFFA3
:103E3000FFFFFFFFFFFFFFFFFFFFFFFFFFFFFFFF92
:103E4000FE6F3E3FFFFFFFFFFFFFFFFFFFFFFFFF94
:103E5000FFFFFFFFFFFFFFFFFFFFFFFFFFFFFE472B
:103E60003E7FFFFFFFFFFFFFFFFFFFFFFFFFFFFFA3
:103E7000FFFFFFFFFFFFFFFFFFFFFFFFFE633C7F32
:103E8000FFFFFFFFFFFFFFFFFFFFFFFFFFFFFFFF42
:103E9000FFFFFFFFFFFFFFFFFFFFFE713CFFFFFF84
:103EA000FFFFFFFFFFFFFFFFFFFFFFFFFFFFFFFF22
:103EB000FFFFFFFFFFFFFFFFFE7839FFFFFFFFFF60
:103EC000FFFFFFFFFFFFFFFFFFFFFFFFFFFFFFFF02
:103ED000FFFFFFFFFFFFFE7D31FFFFFFFFFFFFFF43
:103EE000FFFFFFFFFFFFFFFFFFFFFFFFFFFFFFF8E9
:103EF00000001FFFFE7F33FFFFFFFFFFFFFFFFFFFD
:103F0000FFFFFFFFFFFFFFFFFFFFFFFFFFF80000C6
:103F10000FFFFE7F27FFFFFFFFFFFFFFFFFFFFFFFA
:103F2000FFFFFFFFFFFFFFFFFFFFFFF9FFFFCFFFD7
:103F3000FE7F0FFFFFFFFFFFFFFFFFFFFFFFFFFF02
:103F4000FFFFFFFFFFFFFFFFFFF9FFFFCFFFE000D5
:103F50000007FFFFFFFFFFFFFFFFFFFFFFFFFFFF68
:103F6000FFFFFFFFFFFFFFF9CFFFCFFFE0000007DC
:103F7000FFFFFFFFFFFFFFFFFFFFFFFFFFFFFFFF51
:103F8000FFFFFFFFFFF9CFFFCFFFFE7F0FFFFFFF18
:103F9000FFFFFFFFFFFFFFFFFFFFFFFFFFFFFFFF31
:103FA000FFFFFFF9CFFFCFFFFE7F27FFFFFFFFFFE0
:103FB000FFFFFFFFFFFFFFFFFFFFFFFFFFFFFFFF11
:103FC000FFF9CFFFCFFFFE7B33FFFFFFFFFFFFFFB8
:103FD000FFFFFFFFFFFFFFFFFFFFFFFFFFFFFFF9F7
:103FE000CE00CFFFFE7133FFFFFFFFFFFFFFFFFF9C
:103FF000FFFFFFFFFFFFFFFFFFFFFFFFFFF9CE0007
:10400000FFFFFE6339FFFFFFFFFFFFFFFFFFFFFF23
:10401000FFFFFFFFFFFFFFFFFFFFFFF9CE7CFFFF6A
:10402000FE673CFFFFFFFFFFFFFFFFFFFFFFFFFFFC
:10403000FFFFFFFFFFFFFFFFFFF9CE7CFFFFFE4703
:104040003C7FFFFFFFFFFFFFFFFFFFFFFFFFFFFFC3
:10405000FFFFFFFFFFFFFFF9CE7CFFFFFE6F3E7FFC
:10406000FFFFFFFFFFFFFFFFFFFFFFFFFFFFFFFF60
:10407000FFFFFFFFFFF9CE7CFFFFFE7F3F3FFFFF0B
:10408000FFFFFFFFFFFFFFFFFFFFFFFFFFFFFFFF40
:10409000FFFFFFF9CE7CFFFFFE7F3F3FFFFFFFFFEB
:1040A000FFFFFFFFFFFFFFFFFFFFFFFFFFFFFFFF20
:1040B000FFF9CE7CFFFFFFFF3F9FFFFFFFFFFFFFEA
:1040C000FFFFFFFFFFFFFFFFFFFFFFFFFFFFFFF906
:1040D000CE7CFFFFFFFF3FBFFFFFFFFFFFFFFFFFA4
:1040E000FFFFFFFFFFFFFFFFFFFFFFFFFFF9CE7C9A
:1040F000FFFFFFFFFFFFFFFFFFFFFFFFFFFFFFFFD0
:10410000FFFFFFFFFFFFFFFFFFFFFFF9CE7CFFFF79
:10411000FFFFFFFFFFFFFFFFFFFFFFFFFFFFFFFFAF
:10412000FFFFFFFFFFFFFFFFFFF9CE7CFFFFFFFC5C
:10413000FFBFFFFFFFFFFFFFFFFFFFFFFFFFFFFFCF
:10414000FFFFFFFFFFFFFFF9CE003FFFFE7CFF9F59
:10415000FFFFFFFFFFFFFFFFFFFFFFFFFFFFFFFF6F
:10416000FFFFFFFFFFF9CE003FFFFE7CFF3FFFFF99
:10417000FFFFFFFFFFFFFFFFFFFFFFFFFFFFFFFF4F
:10418000FFFFFFF9CFFFFFFFFE7CFE3FFFFFFFFFBA
:10419000FFFFFFFFFFFFFFFFFFFFFFFFFFFFFFFF2F
:1041A000FFFFCFFFFFFFFE7CFE7FFFFFFFFFFFFF54
:1041B000FFFFFFFFFFFFFFFFFFFFFFFFFFFFFFFF0F
:1041C000CFFFFFFFFE7CFCFFFFFFFFFFFFFFFFFFB6
:1041D000FFFFFFFFFFFFFFFFFFFFFFFFFFFFFFFFEF
:1041E000FFFFFE7CF8FFFFFFFFFFFFFFFFFFFFFF6A
:1041F000FFFFFFFFFFFFFFFFFFFFFFFFFEFFFFFFD0
:10420000FE7CF1FFFFFFFFFFFFFFFFFFFFFFFFFF50
:10421000FFFFFFFFFFFFFFFFFFFFFC7FFFFFFE7CB5
:10422000E3FFFFFFFFFFFFFFFFFFFFFFFFFFFFFFBA
:10423000FFFFFFFFFFFFFFFFFCFFFFFFFE7CC7FF4D
:10424000FFFFFFFFFFFFFFFFFFFFFFFFFFFFFFFF7E
:10425000FFFFFFFFFFFFF8FFEFFFFE7C8FFFFFFF79
:10426000FFFFFFFFFFFFFFFFFFFFFFFFFFFFFFFF5E
:10427000FFFFFFFFF1FF87FFFE7C3FFFFFFFFFFF18
:10428000FFFFFFFFFFFFFFFFFFFFFFFFFFFFFFFF3E
:10429000FFFFE3FF0FFFC0000007FFFFFFFF003F2E
:1042A000FFFFFFFFFFFFFFFFFFFFFFFFFFFFFFFF1E
:1042B000C7FE1FFFC0000007FFFFFFF8000FFFFF52
:1042C000FFFFFFFFFFFFFFFFFFFFFFFFFFFF8FF875
:1042D0001FFFFE7C3FFFFFFFFFF00003FFFFFFFF1C
:1042E000FFFFFFFFFFFFFFFFFFFFFFFE1FF0DFFFEE
:1042F000FE7C9FFFFFFFFFE0FFC1FFFFFFFFFFFF0F
:10430000FFFFFFFFFFFFFFFFFFF83FE3DFFFFE7C44
:10431000CFFFFFFFFFC3FFF1FFFFFFFFFFFFFFFF27
:10432000FFFFFFFFFFFFFFF0FFF7DFFFFE7CE7FF70
:10433000FFFFFFC7FFF8FFFFFFFFFFFFFFFFFFFFCC
:10434000FFFFFFFFFFFBFFFFDFFFFE7CF3FFFFFF31
:10435000FFC7FFF8FFFFFFFFFFFFFFFFFFFFFFFFAC
:10436000FFFFFFFFFFFFDFFFFE7CF9FFFFFFFFC73F
:10437000FFF8FFFFFFFFFFFFFFFFFFFFFFFFFFFF54
:10438000FFFFFEFFDFFFFE7CF8FFFFFFFFC7FFF828
:10439000FFFFFFFFFFFFFFFFFFFFFFFFFFFFFFFF2D
:1043A000FC7FCFFFFE7CFCFFFFFFFFE3FFF0FFFF82
:1043B000FFFFFFFFFFFFFFFFFFFFFFFFFFFFFE1FEE
:1043C000CFFFFE7CFE7FFFFFFFE07FC1FFFFFFFF0F
:1043D000FFFFFFFFFFFFFFFFFFFFFFFBFF8FCFFF91
:1043E000FE7CFE3FFFFFFFF00003FFFFFFFFFFFF2C
:1043F000FFFFFFFFFFFFFFFFFFF0FFC3CFFFFE7CCC
:10440000FF3FFFFFFFFC0007FFFFFFFFFFFFFFFF76
:10441000FFFFFFFFFFFFFFF83FF1CFFFFFFCFF1F94
:10442000FFFFFFFF003FFFFFFFFFFFFFFFFFFFFF5B
:10443000FFFFFFFFFFFE1FF8CFFFFFFCFFBFFFFFE7
:10444000FFFFFFFFFFFFFFFFFFFFFFFFFFFFFFFF7C
:10445000FFFFFFFF87FC4FFFFFFFFFFFFFFFFFFF97
:10446000FF1FFFFFFFFFFFFFFFFFFFFFFFFFFFFF3C
:10447000FFFFC3FF0FFFF3FFFFF7FFFFFFFFFF1F6C
:10448000FFFFFFFFFFFFFFFFFFFFFFFFFFFFFFFF3C
:10449000F1FF8FFFF3C001E3FFFFFFFFFF1FFFFFEF
:1044A000FFFFFFFFFFFFFFFFFFFFFFFFFFFFF8FF23
:1044B000CFFFF3C001C7FFFFFFE00000FFFFFFFFDA
:1044C000FFFFFFFFFFFFFFFFFFFFFFFFFC7FDFFF9F
:1044D000F3CFFF8FFFFFFFE00000FFFFFFFFFFFFB5
:1044E000FFFFFFFFFFFFFFFFFFFFFE3FFFFFF3CFD9
:1044F000FF9FFFFFFFE00000FFFFFFFFFFFFFFFF49
:10450000FFFFFFFFFFFFFFFFFF7FFFFFF3CFFF3F37
:10451000FFFFFFE1FF1FFFFFFFFFFFFFFFFFFFFFA9
:10452000FFFFFFFFFFFFFFFFFFFFF0CFFE3FFFFF9B
:10453000FFF87F1FFFFFFFFFFFFFFFFFFFFFFFFFF2
:10454000FFFFFFFFFFFFEFFFF008007FFFFFFFFC13
:104550001F1FFFFFFFFFFFFFFFFFFFFFFFFFFFFF2B
:10456000FFFFFFEFE7FFF308007FFFFFFFFF0F1FD5
:10457000FFFFFFFFFFFFFFFFFFFFFFFFFFFFFFFF4B
:10458000FFC7C7FFF3CFF83FFFFFFFFFC31FFFFFCA
:10459000FFFFFFFFFFFFFFFFFFFFFFFFFFF0002711
:1045A000CFFFF3CFFF1FFFFFFFFFE01FFFFFFFFF66
:1045B000FFFFFFFFFFFFFFFFFFFFFFF000339FFF45
:1045C000F3CFFF8FFFFFFFFFF81FFFFFFFFFFFFF8E
:1045D000FFFFFFFFFFFFFFFFFFF39E711FFFF3C011
:1045E00001C7FFFFFFFFFE1FFFFFFFFFFFFFFFFFF2
:1045F000FFFFFFFFFFFFFFF39E783FFFF3C001E7E0
:10460000FFFFFFFFFF1FFFFFFFFFFFFFFFFFFFFF9A
:10461000FFFFFFFFFFF39E7C7FFFF3FFFFE3FFFF42
:10462000FFFFFFFFFFFFFFFFFFFFFFFFFFFFFFFF9A
:10463000FFFFFFF39E78FFFFF3DF1FF7FFFFFFFF92
:10464000FFFFFFFFFFFFFFFFFFFFFFFFFFFFFFFF7A
:10465000FFF39E613FFFFF0F07FFFFFFFFFC1FF807
:10466000FFFFFFFFFFFFFFFFFFFFFFFFFFFFFFF366
:104670009E079FFFFE1F21F7FFFFFFF003F8FFFFDC
:10468000FFFFFFFFFFFFFFFFFFFFFFFFFFF39E1F87
:104690009FFFF87B38E7FFFFFFE001F8FFFFFFFF18
:1046A000FFFFFFFFFFFFFFFFFFFFFFF39E7FCFFF37
:1046B000E1E13C07FFFFFFC3E078FFFFFFFFFFFFE3
:1046C000FFFFFFFFFFFFFFFFFFF39E7FCFFFE3C76B
:1046D0003F1FFFFFFFC7F838FFFFFFFFFFFFFFFF90
:1046E000FFFFFFFFFFFFFFF0000007FFF0EF3E3F7F
:1046F000FFFFFFC7FE18FFFFFFFFFFFFFFFFFFFFEA
:10470000FFFFFFFFFFF0000003FFFC3F3C7FFFFFC8
:10471000FFC7FF08FFFFFFFFFFFFFFFFFFFFFFFFD8
:10472000FFFFFFFFFFFFE7FFFF0F38FFFFFFFFC7A0
:10473000FF80FFFFFFFFFFFFFFFFFFFFFFFFFFFF08
:10474000FFFFFFFFFFFFFFC73DFFFFFFFFC7FFC0EA
:10475000FFFFFFFFFFFFFFFFFFFFFFFFFFFFFFF078
:10476000FF80FFFFFFE13FFFFFFFFFE3FFE0FFFFF1
:10477000FFFFFFFFFFFFFFFFFFFFFFFFFFF01E0038
:104780007FFFFFFBFFFFFFFFFFE3FFF0FFFFFFFFE8
:10479000FFFFFFFFFFFFFFFFFFFFFFF3007E7FFF35
:1047A000FFFFFFFFFFFFFFF7FFF8FFFFFFFFFFFF28
:1047B000FFFFFFFFFFFFFFFFFFF3E1FE7FFFFFFFB4
:1047C000FFFFFFFFFFFFFFFFFFFFFFFFFFFFFFFFF9
:1047D000FFFFFFFFFFFFFFF3FFFE7FFFFFFFFFFF76
:1047E000FFFFFFFFFFFFFFFFFFFFFFFFFFFFFFFFD9
:1047F000FFFFFFFFFFF3FFFEFFFFF0000007FFFFDB
:10480000FFFFFFFFFFFFFFFFFFFFFFFFFFFFFFFFB8
:10481000FFFFFFF0000003FFF0000007FFFFFFFFB6
:10482000FFFFFFFFFFFFFFFFFFFFFFFFFFFFFFFF98
:10483000FFF0000003FFFFFFFFFFFFFFFFFFFFFF91
:10484000FFFFFFFFFFFFFFFFFFFFFFFFFFFFFFFF78
:10485000FFFFFFFFFFFFFFFFFFFFFFFFFFFFFFFF68
:10486000FFFFFFFFFFFFFFFFFFFFFFFFFFFFFFFF58
:10487000FFFFFFFFFFFFFFFFFFFFFFFFFFFFFFFF48
:10488000FFFFFFFFFFFFFFFFFFFFFFFFFFFFFFFF38
:10489000FFFFFFFFFFFFFFFFFFFFFFFFFFFFFFFF28
:1048A000FFFFFFFFFFFFFFFFFFFCFFFFFFFFFFFF1B
:1048B000FFFFFFFFFFFFFFFFFFFFFFFFFFFFFFFF08
:1048C000FFFFFFFFFFFFFFFCFFFFFFFFFFFFFFFFFB
:1048D000FFFFFFFF7FFEFFFFFFFFFFFFFFFFFFFF69
:1048E000FFFFFFFFFFFCFFFFFFFFFFFFFFFFFFFFDB
:1048F000FFFF3FFCFFFFFFFFFFFFFFFFFFFFFFFF8B
:10490000FFFFFFFCE0000FFFF803807FFFFFFFFFCA
:104910000FF0FFFFFFFFFFFFFFFFFFFFFFFFFFFFA6
:10492000FFFCE00007FFF803801FFFFFFFFF07C049
:10493000FFFFFFFFFFFFFFFFFFFFFFFFFFFFFFFC8A
:10494000E73CE7FFF9E79C1FFFFFFFFF8181FFFFC7
:10495000FFFFFFFFFFFFFFFFFFFFFFFFFFFCE73C45
:10496000E7FFF9E79F8FFFFFFFFFE007FFFFFFFF74
:10497000FFFFFFFFFFFFFFFFFFFFFFFCE73CE7FF3D
:10498000F9E79FCFFFFFFFFFF81FFFFFFFFFFFFFCC
:10499000FFFFFFFFFFFFFFFFFFFCE73CE7FFF9E73B
:1049A0009FCFFFFFFFFFF81FFFFFFFFFFFFFFFFF8E
:1049B000FFFFFFFFFFFFFFFCE73CE7FFF9E79FCFAB
:1049C000FFFFFFFFE007FFFFFFFFFFFFFFFFFFFF0E
:1049D000FFFFFFFFFFFCE73CE7FFF9E79FCFFFFF8B
:1049E000FFFF8183FFFFFFFFFFFFFFFFFFFFFFFFD1
:1049F000FFFFFFFCE73CFFFFF9E79FCFFFFFFFFF53
:104A000007C0FFFFFFFFFFFFFFFFFFFFFFFFFFFFED
:104A1000FFFCE73CFFFFF9E79FCFFFFFFFFF0FF031
:104A2000FFFFFFFFFFFFFFFFFFFFFFFFFFFFFFFC99
:104A3000E73CFFFFF9E19FCFFFFFFFFF3FFCFFFFD8
:104A4000FFFFFFFFFFFFFFFFFFFFFFFFFFCCE73C84
:104A5000FFFFF9E01FDFFFFFFFFF7FFEFFFFFFFF0C
:104A6000FFFFFFFFFFFFFFFFFFFFFFC0E73CFFFF70
:104A7000F9F81FFFFFFFFFFFFFFFFFFFFFFFFFFF33
:104A8000FFFFFFFFFFFFFFFFFFF0673CFFFFF9FFA6
:104A90001FFFFFFFFFFFFFFFFFFFFFFFFFFFFFFF06
:104AA000FFFFFFFFFFFFFFFC073CFFFFFFFFFFFFD4
:104AB000FFFFFFFFFFFFFFFFFFFFFFFFFFFFFFFF06
:104AC000FFFFFFFFFFFC873CFFFFFFFFFFFFFFFF34
:104AD000FFFFFFFFFFFFFFFFFFFFFFFFFFFFFFFFE6
:104AE000FFFFFFFCC00007FFFF3FFFEFFFFFFFFFDF
:104AF000FFFFFFFFFFFFFFFFFFFFFFFFFFFFFFFFC6
:104B0000FFFCF00007FFFF3FFFE7FFFFFFFFFFFF96
:104B1000FFFFFFFFFFFFFFFFFFFFFFFFFFFFFFFCA8
:104B2000F8FFFFFFFF3C7FE7FFFFFFFFFFFFFFFFF7
:104B3000FFFFFFFFFFFFFFFFFFFFFFFFFFFCFC7F0B
:104B4000FFFFFF3C1FCFFFFFFFFF003FFFFFFFFF07
:104B5000FFFFFFFFFFFFFFFFFFFFFFFCFE3FFFFF29
:104B6000FF3C8FCFFFFFFFF8000FFFFFFFFFFFFFAE
:104B7000FFFFFFFFFFFFFFFFFFFCFF1FFFFFFF3CEB
:104B8000C78FFFFFFFF00003FFFFFFFFFFFFFFFFE7
:104B9000FFFFFFFFFFFFFFFCFF8FFFFFFF3CF39FC7
:104BA000FFFFFFE0FFC1FFFFFFFFFFFFFFFFFFFF72
:104BB000FFFFFFFFFFFFFFDFFFFFFF3CF93FFFFFAE
:104BC000FFC3FFF1FFFFFFFFFFFFFFFFFFFFFFFF3F
:104BD000FFFFFFFF3FFFEFFFF000F83FFFFFFFC7C2
:104BE000FFF8FFFFFFFFFFFFFFFFFFFFFFFFFFFFDC
:104BF000FFFF3FFFE7FFF000FC7FFFFFFFC7FFF86D
:104C0000FFFFFFFFFFFFFFFFFFFFFFFFFFFFFFFFB4
:104C10003C7FE7FFFF3CFC3FFFFFFFC7FFF8FFFFC4
:104C2000FFFFFFFFFFFFFFFFFFFFFFFFFFFF3C1F37
:104C3000CFFFFF3CF93FFFFFFFC7FFF8FFFFFFFF7C
:104C4000FFFFFFFFFFFFFFFFFFFFFFFF3C8FCFFFD7
:104C5000FF3CE31FFFFFFFE3FFF0FFFFFFFFFFFF4E
:104C6000FFFFFFFFFFFFFFFFFFFF3CC78FFFFF3C82
:104C7000C79FFFFFFFE07FC1FFFFFFFFFFFFFFFFB9
:104C8000FFFFFFFFFFFFFFFF3CF39FFFFF3C0F9F76
:104C9000FFFFFFF00003FFFFFFFFFFFFFFFFFFFF2E
:104CA000FFFFFFFFFFFF3CF93FFFFF3C3FCFFFFF50
:104CB000FFFC0007FFFFFFFFFFFFFFFFFFFFFFFFFE
:104CC000FFFFFFF000F83FFFFF3CFFCFFFFFFFFFBC
:104CD000003FFFFFFFFFFFFFFFFFFFFFFFFFFFFFA3
:104CE000FFF000FC7FFFFF3CFFC7FFFFFFFFFFFF60
:104CF000FFFFFFFFFFFFFFFFFFFFFFFFFFFFFFFFC4
:104D00003CFC3FFFFFFFFFE7FFFFFFFFFFFFFFFF51
:104D1000FFFFFFFFFFFFFFFFFFFFFFFFFFFF3CF96C
:104D20003FFFFF9E7FEFFFFFFFFFFC1FFFFFFFFF27
:104D3000FFFFFFFFFFFFFFFFFFFFFFFF3CE31FFF42
:104D4000FF9E7FFFFFFFFFFFF007FFFFFFFFFFFF5B
:104D5000FFFFFFFFFFFFFFFFFFFF3CC79FFFFF9F1E
:104D60003FFFFFFFFFC7E003FFFFFFFFFFFFFFFF66
:104D7000FFFFFFFFFFFFFFFF3C0F9FFFF000000F53
:104D8000FFFFFFC7C3E1FFFFFFFFFFFFFFFFFFFFC5
:104D9000FFFFFFFFFFFF3C3FCFFFF0000007FFFFDB
:104DA000FFC7C7F0FFFFFFFFFFFFFFFFFFFFFFFF92
:104DB000FFFFFFFF3CFFCFFFFF9F9FE7FFFFFFE3EA
:104DC000CFF8FFFFFFFFFFFFFFFFFFFFFFFFFFFF2A
:104DD000FFFF3CFFC7FFFF9F9FE7FFFFFFE3CFF809
:104DE000FFFFFFFFFFFFFFFFFFFFFFFFFFFFFFFFD3
:104DF000FFFFE7FFFF9F8FE7FFFFFFE1CFF8FFFF18
:104E0000FFFFFFFFFFFFFFFFFFFFFFFFFFFF9E7F93
:104E1000EFFFFF9FCFE7FFFFFFF1EFF8FFFFFFFF7F
:104E2000FFFFFFFFFFFFFFFFFFFFFFFF9E7FFFFF73
:104E3000FFFFFFFFFFFFFFF867F1FFFFFFFFFFFF2F
:104E4000FFFFFFFFFFFFFFFFFFFF9F3FFFFFFFFF92
:104E5000F3FFFFFFFFF833C1FFFFFFFFFFFFFFFF7F
:104E6000FFFFFFFFFFFFFFF000000FFFFFFFF3FF5B
:104E7000FFFFFFFE0003FFFFFFFFFFFFFFFFFFFF3E
:104E8000FFFFFFFFFFF0000007FFFFFFF3FFFFFF43
:104E9000FFFF8007FFFFFFFFFFFFFFFFFFFFFFFF99
:104EA000FFFFFFFF9F9FE7FFFFFFF3FFFFFFFFFFF6
:104EB000E01FFFFFFFFFFFFFFFFFFFFFFFFFFFFF01
:104EC000FFFF9F9FE7FFE0000003FFFFFFFFFFFFE3
:104ED000FFFFFFFFFFFFFFFFFFFFFFFFFFFFFFFFE2
:104EE0009F8FE7FFE0000003FFFFFFFFFFFFFFFFD3
:104EF000FFFFFFFFFFFFFFFFFFFFFFFFFFFF9FCF52
:104F0000E7FFFFFFF3FFFFFFFFFFFFFFFFFFFFFFD5
:104F1000FFFFFFFFFFFFFFFFFFFFFFFFFFFFFFFFA1
:104F2000FFBFF3FFFFFFFFFFFF0FFFFFFFFFFFFFCD
:104F3000FFFFFFFFFFFFFFFFFFFFFFF3FFFFFF1F6D
:104F4000F3FFFFFFFFF83C03FFFFFFFFFFFFFFFF43
:104F5000FFFFFFFFFFFFFFFFFFF3FFFFFF3F71FFBB
:104F6000FFFFFFE00801FFFFFFFFFFFFFFFFFFFF65
:104F7000FFFFFFFFFFFFFFF3FFFFFE3E39FFFFFFD5
:104F8000FFE000F1FFFFFFFFFFFFFFFFFFFFFFFF5D
:104F9000FFFFFFFFFFF3FFFFFE7C79FFFFFFFFC373
:104FA000C1F8FFFFFFFFFFFFFFFFFFFFFFFFFFFF56
:104FB000FFE0000003FFFC78F9FFFFFFFFC7E3F805
:104FC000FFFFFFFFFFFFFFFFFFFFFFFFFFFFFFE010
:104FD000000003FFFEF1F9FFFFFFFFC7F3F8FFFF3B
:104FE000FFFFFFFFFFFFFFFFFFFFFFFFFFFFFFF3DD
:104FF000FFFFFFFBF9FFFFFFFFC7F3F8FFFFFFFF16
:10500000FFFFFFFFFFFFFFFFFFFFFFFFBFF3FFFFFC
:10501000FBE7D9FFFFFFFFC7F3F8FFFFFFFFFFFF2D
:10502000FFFFFFFFFFFFFFFFFFFF1FF3FFFFF3E7A0
:1050300089FFFFFFFFC7F3F8FFFFFFFFFFFFFFFF41
:10504000FFFFFFFFFFFFFFFF3F71FFFFF3E71FFFC2
:10505000FFFFFFE3FFF9FFFFFFFFFFFFFFFFFFFF82
:10506000FFFFFFFFFFFE3E39FFFFF3E63FFFFFFFBD
:10507000FFEFFFF1FFFFFFFFFFFFFFFFFFFFFFFF5E
:10508000FFFFFFFE7C79FFFFF3E67FFFFFFFFFFFDF
:10509000FFFFFFFFFFFFFFFFFFFFFFFFFFFFFFFF20
:1050A000FFFC78F9FFFFF8000003FFFFFFFFFFFFA1
:1050B000FFFFFFFFFFFFFFFFFFFFFFFFFFFFFFFE01
:1050C000F1F9FFFFF8000003FFFFFFFFFFFFFFFF05
:1050D000FFFFFFFFFFFFFFFFFFFFFFFFFFFFFBF9EA
:1050E000FFFFF9E43FFFFFFFFFFFFFFFFFFFFFFFB1
:1050F000FFFFFFFFFFFFFFFFFFFFFFFBE7D9FFFF02
:10510000F9E787FFFFFFFFFFFFFFFFFFFFFFFFFF45
:10511000FFFFFFFFFFFFFFFFFFF3E789FFFFF9E757
:10512000E1FFFFFFFFFFFFFFFFFFFFFFFFFFFFFFAD
:10513000FFFFFFFFFFFFFFF3E71FFFFFF9E7F8FFA8
:10514000FFFFFFFFFFFFFFFFFFFFFFFFFFFFFFFF6F
:10515000FFFFFFFFFFF3E63FFFFFF9E7FCFFFFFF65
:10516000FFFFFFFFFFFFFFFFFFFFFFFFFFFFFFFF4F
:10517000FFFFFFF3E67FFFFFFFFFFFFFFFFFFFFFE4
:10518000FFFFFFFFFFFFFFFFFFFFFFFFFFFFFFFF2F
:10519000FFF8000003FFFFFFFFFFFFFFFFFFFFFF20
:1051A000FFFFFFFFFFFFFFFFFFFFFFFFFFFFFFF816
:1051B000000003FFFFFFFFFFFFFFFFFFFFFFFFFFF9
:1051C000FFFFFFFFFFFFFFFFFFFFFFFFFFF9E43FD0
:1051D000FFFFFFFFFFFFFFFFFFFFFFFFFFFFFFFFDF
:1051E000FFFFFFFFFFFFFFFFFFFFFFF9E787FFFF65
:1051F000FFFFFFFFFFFFFFFFFFFFFFFFFFFFFFFFBF
:10520000FFFFFFFFFFFFFFFFFFF9E7E1FFFFFFFFEA
:10521000FFFFFFFFFFFFFFFFFFFFFFFFFFFFFFFF9E
:10522000FFFFFFFFFFFFFFF9E7F8FFFFFFFFFFFFB3
:10523000FFFFFFFFFFFFFFFFFFFFFFFFFFFFFFFF7E
:10524000FFFFFFFFFFF9E7FCFFFFFFFFFFFFFFFF8F
:10525000FFFFFFFFFFFFFFFFFFFFFFFFFFFFFFFF5E
:10526000FFFFFFFFFFFFFFFFFFFFFFFFFFFFFFFF4E
:10527000FFFFFFFFFFFFFFFFFFFFFFFFFFFFFFFF3E
:10528000FFFFFFF9FFFFFFFFFFEFFFFFFFFFFFFF44
:10529000FFFFFFFFFFFFFFFFFFFFFFFFFFFFFFF825
:1052A0000679FFFFFFFFCFE7FFFFFFFFFFFFFFFFD5
:1052B000FFFFFFFFFFFFFFFFFFFFFFFFFFF8067984
:1052C000FFFFF80CCDE7FFFFFF7FFFFFFFFFFFFFB2
:1052D000FFFFFFFFFFFFFFFFFFFFFFF9CE79FFFF9B
:1052E000F80CC9E7FFFFFF0FFFFFFFFFFFFFFFFF06
:1052F000FFFFFFFFFFFFFFFFFFF9CE79FFFFF99CE4
:10530000CCCFFFFFFF03FFFFFFFFFFFFFFFFFFFF0C
:10531000FFFFFFFFFFFFFFF9CE79FFFFF99CCCCF26
:10532000FFFFFFF1FFFFFFFFFFFFFFFFFFFFFFFF9B
:10533000FFFFFFFFFFF9C20003FFF99CCE9FFFFFB5
:10534000FF7DFFFFFFFFFFFFFFFFFFFFFFFFFFFFEF
:10535000FFFFFFF9C00003FFF9900E1FFFFFFF1FC3
:10536000FFFFFFFFFFFFFFFFFFFFFFFFFFFFFFFF4D
:10537000FFF9CC79FFFFF9900E3FFFFFFF07FFFF1A
:10538000FFFFFFFFFFFFFFFFFFFFFFFFFFFFFFF933
:10539000CE79FFFFF99CCE3FFFFFFFC1FFFFFFFF6C
:1053A000FFFFFFFFFFFFFFFFFFFFFFFFFFF9CE79CA
:1053B000FFFFF99CCC7FFFFFFFF9FFFFFFFFFFFF1F
:1053C000FFFFFFFFFFFFFFFFFFFFFFF9CE79FFFFAA
:1053D000F99CC8FFFFFFFFFFFFFFFFFFFFFFFFFF7D
:1053E000FFFFFFFFFFFFFFFFFFF9CE79FFFFF99CF3
:1053F000C1CFFFFFFFFFFFFFFFFFFFFFFFFFFFFF2B
:10540000FFFFFFFFFFFFFFF9CE79FFFFF99CC7CF3A
:10541000FFFFFFFFFFFFFFFFFFFFFFFFFFFFFFFF9C
:10542000FFFFFFFFFFF9C0007FFFF9900FCFFFFFE5
:10543000FFFFFFFFFFFFFFFFFFFFFFFFFFFFFFFF7C
:10544000FFFFFFF9C2001FFFF9900FE7FFFFFFFC0E
:105450001FF8FFFFFFFFFFFFFFFFFFFFFFFFFFFF43
:10546000FFF9C6798FFFF99CCFE7FFFFFFF003F844
:10547000FFFFFFFFFFFFFFFFFFFFFFFFFFFFFFF942
:10548000CE79C7FFF99CC007FFFFFFE001F8FFFFDF
:10549000FFFFFFFFFFFFFFFFFFFFFFFFFFF9CE79D9
:1054A000E3FFF99CC003FFFFFFC3E078FFFFFFFFAE
:1054B000FFFFFFFFFFFFFFFFFFFFFFF9CE79F7FFC1
:1054C000F99CCFF7FFFFFFC7F838FFFFFFFFFFFF93
:1054D000FFFFFFFFFFFFFFFFFFF9CFF9FFFFF99C81
:1054E000CFFFFFFFFFC7FE18FFFFFFFFFFFFFFFF1C
:1054F000FFFFFFFFFFFFFFF80001FFFFF99FCFFF56
:10550000FFFFFFC7FF08FFFFFFFFFFFFFFFFFFFFDA
:10551000FFFFFFFFFFF800003FFFF80001FFFFFF64
:10552000FFC7FF80FFFFFFFFFFFFFFFFFFFFFFFF42
:10553000FFFFFFFFFFFC0FFFF800003FFFFFFFC76B
:10554000FFC0FFFFFFFFFFFFFFFFFFFFFFFFFFFFAA
:10555000FFFFFFFFC3FFFFFFFC07FFFFFFE3FFE0CD
:10556000FFFFFFFFFFFFFFFFFFFFFFFFFFFFFFFF4B
:10557000FFFFF7FFFFFFFFC3FFFFFFE3FFF0FFFFAA
:10558000FFFFFFFFFFFFFFFFFFFFFFFFFFFFFFFF2B
:10559000FFFFFFFFFFF7FFFFFFF7FFF8FFFFFFFF32
:1055A000FFFFFFFFFFFFFFFFFFFFFFFFFFFFFFFF0B
:1055B000FFFFFFFFFFFFFFFFFFFFFFFFFFFFFFFFFB
:1055C000FFFFFFFFFFFFFFFFFFFE7FFEFFFFFFCF9D
:1055D000FFF7FFFFFFFFFFFFFFFFFFFFFFFFFFFFE3
:1055E000FFFFFFFFFFFFFFFE7FF07FFFFFCFFFF317
:1055F000FFFFFFFFFFFFFFFFFFFFFFFFFFFFFFFFBB
:10560000FFFFFFFFFFFE7F81FFFFFFCFFFF3FFFFE5
:10561000FFFFFFFFFFFFFFFFFFFFFFFFFFFFFFFF9A
:10562000FFFFFFFE7F07FFFFFECE3FE7FFFFFFE329
:10563000FE1FFFFFFFFFFFFFFFFFFFFFFFFFFFFF5B
:10564000FFFE7FBFFFFFFC4E0FE7FFFFFFE3F80702
:10565000FFFFFFFFFFFFFFFFFFFFFFFFFFFFFFFE5B
:105660007FF87FFFFCCE43E7FFFFFFE3F003FFFF80
:10567000FFFFFFFFFFFFFFFFFFFFFFFFFFFE7FF0CA
:105680000FFFF9CE71CFFFFFFFE3F1E1FFFFFFFF57
:10569000FFFFFFFFFFFFFFFFFFFFFFC007FF8FFFC1
:1056A000F1CE78CFFFFFFFE3E3F0FFFFFFFFFFFF47
:1056B000FFFFFFFFFFFFFFFFFFC007FFC7FFFBCE9E
:1056C0007C1FFFFFFFE3E3F8FFFFFFFFFFFFFFFF8C
:1056D000FFFFFFFFFFFFFFFE7FFFE7FFFFCE7E3FE5
:1056E000FFFFFFE3E7F8FFFFFFFFFFFFFFFFFFFF05
:1056F000FFFFFFFFFFFE7FDFE7FFFFCE7E3FFFFFE5
:10570000FFE3E7F8FFFFFFFFFFFFFFFFFFFFFFFFE4
:10571000FFFFFFFE7E0FE7FFFFCE7C1FFFFFFFE0D6
:1057200007F8FFFFFFFFFFFFFFFFFFFFFFFFFFFF88
:10573000FFFE781FE7FFFFCE789FFFFFFFE007F82F
:10574000FFFFFFFFFFFFFFFFFFFFFFFFFFFFFFFE6A
:1057500070FFE7FFF1CE718FFFFFFFFF87F8FFFFBC
:10576000FFFFFFFFFFFFFFFFFFFFFFFFFFFE7BFFCE
:10577000E7FFF00E43CFFFFFFFFFFFF1FFFFFFFF4B
:10578000FFFFFFFFFFFFFFFFFFFFFFFE7FFFE7FFC2
:10579000FC020FCFFFFFFFFFFFFFFFFFFFFFFFFF39
:1057A000FFFFFFFFFFFFFFFFFFFE7FFFE7FFFFC0E1
:1057B0003FE7FFFFFFFFFFFFFFFFFFFFFFFFFFFFD1
:1057C000FFFFFFFFFFFFFFC0070007FFFFCC1FE742
:1057D000FFFFFFFFFFFFFFFFFFFFFFFFFFFFFFFFD9
:1057E000FFFFFFFFFFC007000FFFFFCF07E7FFFF2F
:1057F000FFFFFFF9FFFFFFFFFFFFFFFFFFFFFFFFBF
:10580000FFFFFFFE7FFFFFFFFFCFE1F3FFFFFFFF83
:10581000FFF0FFFFFFFFFFFFFFFFFFFFFFFFFFFFA7
:10582000FFFE7FFFFFFFFFCFF0F3FFFFFFFFFFF063
:10583000FFFFFFFFFFFFFFFFFFFFFFFFFFFFFFFE79
:105840007F3FFFFFF9CFFC37FFFFFFFFFFF9FFFFAF
:10585000FFFFFFFFFFFFFFFFFFFFFFFFFFFE7F07D1
:10586000FFFFF84FFE1FFFFFFFFFFFFFFFFFFFFFE0
:10587000FFFFFFFFFFFFFFFFFFFFFFFE7FC0FFFFF8
:10588000FC0FFF8FFFFFFFFFFFFFFFFFFFFFFFFF8B
:10589000FFFFFFFFFFFFFFFFFFFE7FF87FFFFF8F90
:1058A000FFC7FFFFFFFFFFFFFFFFFFFFFFFFFFFF40
:1058B000FFFFFFFFFFFFFFFE7FFEFFFFFFFFFFEF8A
:1058C000FFFFFFFFFFFFFFFFFFFFFFFFFFFFFFFFE8
:1058D000FFFFFFFFFFFFFFFFFFFFFFFFFFFFFFFFD8
:1058E000FFFFFF0FFFFFFFFFFFFFFFFFFFFFFFFFB8
:1058F000FFFFFFFFFFFFF7FFFFFFFFFFFFFFFFF8C7
:105900003C03FFFFFFFFFFFFFFFFFFFFFFFFFFFF66
:10591000FFFFF3FFE3FFFF000FFFFFFFFFE00801C2
:10592000FFFFFFFFFFFFFFFFFFFFFFFFFFFFFFF98D
:1059300033FFC7FFFF00001FFFFFFFE000F1FFFF85
:10594000FFFFFFFFFFFFFFFFFFFFFFFFFFF933FF39
:105950008FFFFF3C000FFFFFFFC3C1F8FFFFFFFFFA
:10596000FFFFFFFFFFFFFFFFFFFFFFF932005FFFB9
:10597000FF3FFF8FFFFFFFC7E3F8FFFFFFFFFFFFC2
:10598000FFFFFFFFFFFFFFFFFFF932007FFFFF3F39
:10599000FFCFFFFFFFC7F3F8FFFFFFFFFFFFFFFF92
:1059A000FFFFFFFFFFFFFFF9324CCFFFFF3FFFCFAD
:1059B000FFFFFFC7F3F8FFFFFFFFFFFFFFFFFFFF42
:1059C000FFFFFFFFFFE0004C87FFFF3FFFCFFFFF20
:1059D000FFC7F3F8FFFFFFFFFFFFFFFFFFFFFFFF22
:1059E000FFFFFFE0004CE3FFFF3FFFCFFFFFFFC7DC
:1059F000F3F8FFFFFFFFFFFFFFFFFFFFFFFFFFFFCA
:105A0000FFF9324CF3FFF0003FCFFFFFFFE3FFF958
:105A1000FFFFFFFFFFFFFFFFFFFFFFFFFFFFFFF99C
:105A2000324CF3FFF00003FFFFFFFFEFFFF1FFFF3A
:105A3000FFFFFFFFFFFFFFFFFFFFFFFFFFF9324CFC
:105A4000F3FFFF3F80FFFFFFFFFFFFFFFFFFFFFFB1
:105A5000FFFFFFFFFFFFFFFFFFFFFFF9F24CF3FF28
:105A6000FF3FF83FFFFFFFFFFFFFFFFFFFFFFFFFCD
:105A7000FFFFFFFFFFFFFFFFFFFFFE4C93FFFF3F16
:105A8000FE1FFFFFFFFFFFFFFFFFFFFFFFFFFFFF07
:105A9000FFFFFFFFFFFFFFF9F24C33FFFF33FE0F65
:105AA000FFFFFFFFFFFFFFFFFFFFFFFFFFFFFFFF06
:105AB000FFFFFFFFFFF9324C73FFF9F3F047FFFFE1
:105AC000FFFFFFFFFFFFFFFFFFFFFFFFFFFFFFFFE6
:105AD000FFFFFFF9324CF3FFF9F3C1EFFFFFFFFFC8
:105AE000FFFFFFFFFFFFFFFFFFFFFFFFFFFFFFFFC6
:105AF000FFF9324CF3FFF9F389FFFFFFFFFFFFFFD0
:105B0000FFFFFFFFFFFFFFFFFFFFFFFFFFFFFFF9AB
:105B1000324C83FFF9F3DDFFFFFFFFFFFFFFFFFFC5
:105B2000FFFFFFFFFFFFFFFFFFFFFFFFFFE0004C56
:105B300087FFF9F3FCFFFFFFFFFFFFFFFFFFFFFF02
:105B4000FFFFFFFFFFFFFFFFFFFFFFE0004CFFFF36
:105B5000F9F0FCFFFFFFFFFFFFFFFFFFFFFFFFFF6D
:105B6000FFFFFFFFFFFFFFFFFFF9324CFFFFF9F0E0
:105B70001EFFFFFFFFFFFFFFFFFFFFFFFFFFFFFF16
:105B8000FFFFFFFFFFFFFFF9324CDFFFF9F306FFD6
:105B9000FFFFFFFFFFFFFFFFFFFFFFFFFFFFFFFF15
:105BA000FFFFFFFFFFF9324C8FFFF9F3E07FFFFFAC
:105BB000FFFFFFFFFFFFFFFFFFFFFFFFFFFFFFFFF5
:105BC000FFFFFFF9327CC7FFF9F3F87FFFFFFFFF0C
:105BD000FFFFFFFFFFFFFFFFFFFFFFFFFFFFFFFFD5
:105BE000FFF933FFE3FFFFF3FEFFFFFFFFFFFFFFC0
:105BF000FFFFFFFFFFFFFFFFFFFFFFFFFFFFFFFFB5
:105C0000F3FFF7FFFFFFFFFFFFFFFFFFFFFFFFFFB8
:105C1000FFFFFFFFFFFFFFFFFFFFFFFFFFFFFFFF94
:105C2000FFFFFFFFFFFFFFFFFFFFFFFFFFFFFFFF84
:105C3000FFFFFFFFFFFFFFFFFFFFFFFF3FFEFFFF35
:105C4000F9FFFFE7FFFFFFFFFFFFFFFFFFFFFFFF82
:105C5000FFFFFFFFFFFFFFFFFFFF3FFC7FFFF9FF9D
:105C6000FEE7FFFFFFFFFFFFFFFFFFFFFFFFFFFF5D
:105C7000FFFFFFFFFFFFFFFF3FF0FFFFF9DFFC67C4
:105C8000FFFFFFFFFFFFFFFFFFFFFFFFFFFFFFFF24
:105C9000FFFFFFFFFFFF3CE3FFFFF987F0E7FFFF98
:105CA000FFFFFFFFFFFFFFFFFFFFFFFFFFFFFFFF04
:105CB000FFFFFFFF3CC7FFFFF9C1E1E7FFFFFFFE6A
:105CC0003FF1FFFFFFFFFFFFFFFFFFFFFFFFFFFFB2
:105CD000FFFF3CEFFFFFF9F007E7FFFFFFFC1FE0CE
:105CE000FFFFFFFFFFFFFFFFFFFFFFFFFFFFFFFFC4
:105CF0003CFCFFFFF9FC0FE7FFFFFFFC1FE0FFFF8D
:105D0000FFFFFFFFFFFFFFFFFFFFFFFFFFFF3CF86D
:105D10001FFFF9FC0FE7FFFFFFFC1FE0FFFFFFFF86
:105D2000FFFFFFFFFFFFFFFFFFFFFFFF3CFF0FFF36
:105D3000F9F8C3E7FFFFFFFE3FF1FFFFFFFFFFFFA3
:105D4000FFFFFFFFFFFFFFFFFFFF3CFFCFFFF9E17A
:105D5000E1E7FFFFFFFFFFFFFFFFFFFFFFFFFFFF89
:105D6000FFFFFFFFFFFFFFFF3CFFCFFFF9C7F8E793
:105D7000FFFFFFFFFFFFFFFFFFFFFFFFFFFFFFFF33
:105D8000FFFFFFFFFFFF3CF7CFFFF98FFC67FFFF2F
:105D9000FFFFFFFFFFFFFFFFFFFFFFFFFFFFFFFF13
:105DA000FFFFFFFF3CE3CFFFF9DFFEE7FFFFFFFF51
:105DB000FFFFFFFFFFFFFFFFFFFFFFFFFFFFFFFFF3
:105DC000FFF000C7CFFFF8000007FFFFFFFFFDFF58
:105DD000FFFFFFFFFFFFFFFFFFFFFFFFFFFFFFF0E2
:105DE000008FCFFFF8000007FFFFFFFFFCFFFFFF62
:105DF000FFFFFFFFFFFFFFFFFFFFFFFFFFFF3CDF96
:105E0000CFFFFFFFFFFFFFFFFFF7F8FFFFFFFFFFE1
:105E1000FFFFFFFFFFFFFFFFFFFFFFFF3CFFCFFF85
:105E2000FFFFFFFFFFFFFFF0F8003FFFFFFFFFFF57
:105E3000FFFFFFFFFFFFFFFFFFFF3CFFCFFFFFFF65
:105E40003FFFFFFFFFF079003FFFFFFFFFFFFFFF76
:105E5000FFFFFFFFFFFFFFFF3CFFCFFFFFFF001F24
:105E6000FFFFFFF2313CFFFFFFFFFFFFFFFFFFFFE0
:105E7000FFFFFFFFFFFF3CC00FFFF83F000FFFFFDA
:105E8000FFF3833CFFFFFFFFFFFFFFFFFFFFFFFF6D
:105E9000FFFFFFFF3CC01FFFF8003FC7FFFFFFF3FE
:105EA000C33CFFFFFFFFFFFFFFFFFFFFFFFFFFFF01
:105EB000FFFF3CFFFFFFF9C033E7FFFFFFB3C73C25
:105EC000FFFFFFFFFFFFFFFFFFFFFFFFFFFFFFFFE2
:105ED0003CFFFFFFF9FF33E7FFFFFF93833CFFFF2A
:105EE000FFFFFFFFFFFFFFFFFFFFFFFFFFFF3CC7BD
:105EF000FFFFF9FF39E7FFFFFF82133CFFFFFFFFC2
:105F0000FFFFFFFFFFFFFFFFFFFFFFFF3CC0FFFFA3
:105F1000F98739E7FFFFFF80793CFFFFFFFFFFFFB5
:105F2000FFFFFFFFFFFFFFFFFFFF3FF03FFFF98095
:105F300039E7FFFFFFF0F9003FFFFFFFFFFFFFFF23
:105F4000FFFFFFFFFFFFFFFF3FFF7FFFF9F83CFF71
:105F5000FFFFFFFC3C003FFFFFFFFFFFFFFFFFFFD6
:105F6000FFFFFFFFFFFFFFFFFFFFF9FFFCFFFFFF4A
:105F7000FFFF1CFFFFFFFFFFFFFFFFFFFFFFFFFF14
:105F8000FFFFFFFCFFFFDFFFFFF9FFFFFFFFFFFF4A
:105F9000D87FFFFFFFFFFFFFFFFFFFFFFFFFFFFFB8
:105FA000FFFCFE7F0FFFFBF9FFFFFFFFFFFCF2FF8F
:105FB000FFFFFFFFFFFFFFFFFFFFFFFFFFFFFFFCF4
:105FC000FE7E1FFFF3F9FFFFFFFFFFFCE1FFFFFF76
:105FD000FFFFFFFFFFFFFFFFFFFFFFFFFFFCFE7C58
:105FE0003FFFF3F9FFFFFFFFFF7CF7FFFFFFFFFF1E
:105FF000FFFFFFFFFFFFFFFFFFFFFFFCFE787FFFBC
:10600000F3F80007FFFFFF0000003FFFFFFFFFFF67
:10601000FFFFFFFFFFFFFFFFFFFCFE71FFFFF9F82F
:106020000007FFFFFF0000003FFFFFFFFFFFFFFF34
:10603000FFFFFFFFFFFFFFFCFE63FFFFF9F9FFFF1C
:10604000FFFFFFFCC3FFFFFFFFFFFFFFFFFFFFFF9F
:10605000FFFFFFFFFFFCFE47FFFFF9F9FFFFFFFF18
:10606000FFFCF07FFFFFFFFFFFFFFFFFFFFFFFFFD2
:10607000FFFFFFFCFE6FFFFFF9F9FFFFFFFFFFFCD3
:10608000FC1FFFFFFFFFFFFFFFFFFFFFFFFFFFFF03
:10609000FFFCFE7FFFFFF9F9FFFFFFFFFFFCFF0F93
:1060A000FFFFFFFFFFFFFFFFFFFFFFFFFFFFFFFC03
:1060B000FE7FFFFFF80007FFFFFFFFFFFFBFFFFFAF
:1060C000FFFFFFFFFFFFFFFFFFFFFFFFFFFCFE7F64
:1060D000FFFFF80000FFFFFFFFFFFFFFFFFFFFFFD5
:1060E000FFFFFFFFFFFFFFFFFFFFFFFCC0000FFFF1
:1060F000FFFFF83FFFFFFFFFFFFFFFFFFFFFFFFF77
:10610000FFFFFFFFFFFFFFFFFFFCC00007FFFFF3E4
:10611000FF0FFFFFFFFFFFF9FFFFFFFFFFFFFFFF85
:10612000FFFFFFFFFFFFFFFCFE7FC7FFFCF39EC7E3
:10613000FFFFFFFFFFF07FFFFFFFFFFFFFFFFFFFFE
:10614000FFFFFFFFFFFCFE7FE7FFFCB39C6FFFFF3D
:10615000FFE0007C7FFFFFFFFFFFFFFFFFFFFFFF70
:10616000FFFFFFFCFE7FE7FFFC3398FFFFFFFFE030
:10617000007E7FFFFFFFFFFFFFFFFFFFFFFFFFFF2F
:10618000FFECFE7FE7FFFC9391FFFFFFFFE7FFFEC1
:106190007FFFFFFFFFFFFFFFFFFFFFFFFFFFFFE0AE
:1061A000FE7FE7FFFCC39BFFFFFFFFE7FE007FFFD3
:1061B000FFFFFFFFFFFFFFFFFFFFFFFFFFF0FE7787
:1061C000E7FFF0E2000FFFFFFFE77E007FFFFFFF2A
:1061D000FFFFFFFFFFFFFFFFFFFFFFFC3E63FFFF2F
:1061E000E0F20007FFFFFFE700FFFFFFFFFFFFFFF9
:1061F000FFFFFFFFFFFFFFFFFFFC0E71FFFFF4F348
:106200009FE7FFFFFFE6003FFFFFFFFFFFFFFFFFEE
:10621000FFFFFFFFFFFFFFFCC278FFFFFCD39FE7FC
:10622000FFFFFFE7FE0FFFFFFFFFFFFFFFFFFFFF87
:10623000FFFFFFFFFFFCF07C7FFFFC839BE7FFFF7E
:10624000FFE7FFC3FFFFFFFFFFFFFFFFFFFFFFFFB2
:10625000FFFFFFFCFC7E3FFFFC1391E7FFFFFFE029
:106260000071FFFFFFFFFFFFFFFFFFFFFFFFFFFFCB
:10627000FFFCFFFF1FFFFCB3987FFFFFFFE00079EB
:10628000FFFFFFFFFFFFFFFFFFFFFFFFFFFFFFFC21
:10629000FFFF8FFFFCF39E3FFFFFFFFFFFE8FFFFC5
:1062A000FFFFFFFFFFFFFFFFFFFFFFFFFFFFFFFFFE
:1062B000DFFFFFF3FF7FFFFFFFFFF3E47FFFFFFF41
:1062C000FFFFFFFFFFFFFFFFFFFFFFFFFFFFFFFFDE
:1062D000FFFFFFFFFFFFFFFCF3C63FFFFFFFFFFFD6
:1062E000FFFFFFFFFFFFFFFFFFFE7FFFFFFFFFFF3F
:1062F000FFFFFFFFFFFCF38E7FFFFFFFFFFFFFFFAE
:10630000FFFFFFFFFFFFFFFE7FFFFFFFE000000F2B
:10631000FFFFFFBCF31EFFFFFFFFFFFFFFFFFFFFBD
:10632000FFFFFFFFFFFE7FFFFFFFE0000007FFFF13
:10633000FF80003FFFFFFFFFFFFFFFFFFFFFFFFFAB
:10634000FFFFFFFE7FFFFFFFFFFFFFE7FFFFFF8075
:10635000001FFFFFFFFFFFFFFFFFFFFFFFFFFFFF2C
:10636000FFFE7FFFFFFFFFFFFFE7FFFFFFFCF207DE
:10637000FFFFFFFFFFFFFFFFFFFFFFFFFFFFFFFE2E
:106380007FFFFFFFFFFFFFE7FFFFFFFCF3C1FFFF02
:10639000FFFFFFFFFFFFFFFFFFFFFFFFFFFE7FFF8E
:1063A000FFFFFFFFFFE7FFFFFFFCF3F0FFFFFFFF33
:1063B000FFFFFFFFFFFFFFFFFFFFFFFE7FFFFFFF6E
:1063C000FC0003E7FFFFFFFCF3F87FFFFFFFFFFF89
:1063D000FFFFFFFFFFFFFFFFFFFE7FFFFFFFFC0050
:1063E00003E7FFFFFFFFF3FCFFFFFFFFFFFFFFFFE0
:1063F000FFFFFFFFFFFFFFFE7FFFFFFFFFFFFFFF2E
:10640000FFFFFFFFFFFEFFFFFFFFFFFFFFFFFFFF9D
:10641000FFFFFFFFFFFA7FFFFFFFFFDFFE7FFFFFB2
:10642000FFFFFFFFFFFFFFFFFFFFFFFFFFFFFFFF7C
:10643000FFFFFFF07FFFFFFFFF8FFC0FFFFFFFFF5E
:10644000FFFFFFFFFFFFFFFFFFFFFFFFFFFFFFFF5C
:10645000FFE27FFFFFFFFF100F87FFFFFFFFFFFF40
:10646000FFFFFFFFFFFFFFFFFFFFFFFFFFFFFFF645
:106470007FFFFFFFFE3007E7FFFFFFFFFFFFFFFF8C
:10648000FFFFFFFFFFFFFFFFFFFFFFFFFFFE7FFF9D
:10649000FFFFFC73E3E7FFFFFFFFFFFFFFFFFFFFCF
:1064A000FFFFFFFFFFFFFFFFFFFFFFFE7FFFFFFF7D
:1064B000F8F3F3E7FFFFFFFFFFFFFFFFFFFFFFFF23
:1064C000FFFFFFFFFFFFFFFFFFFE7FFFFFFFF3F375
:1064D000F3E7FFFFFFFFFFFFFFFFFFFFFFFFFFFFF0
:1064E000FFFFFFFFFFFFFFFE7FFFFFFFE7F3F3E785
:1064F000FFFFFFFFFFFFFFFFFFFFFFFFFFFFFFFFAC
:10650000FFFFFFFFFFFE7FFFFFFFE3F3F3E7FFFF68
:10651000FFFFFFFFFFFFFFFFFFFFFFFFFFFFFFFF8B
:10652000FFFFFFFE7FFFFFFFF0F3F3E7FFFFFFFF3B
:10653000FFFFFFFFFFFFFFFFFFFFFFFFFFFFFFFF6B
:10654000FFFE7FFFFFFFFC73FFE7FFFFFFFFFFFF83
:10655000FFFFFFFFFFFFFFFFFFFFFFFFFFFFFFFE4C
:106560000007FFFFFE33FFE7FFFFFFFFFFFFFFFF17
:10657000FFFFFFFFFFFFFFFFFFFFFFFFFFFE00002A
:10658000FFFFFF100007FFFFFFFFFFFFFFFFFFFF01
:10659000FFFFFFFFFFFFFFFFFFFFFFFFFFF01FFFFA
:1065A000FF80000FFFFFFFFFFFFFFFFFFFFFFFFF69
:1065B000FFFFFFFFFFFFFFFFFFFFFFFF0FFFFFC713
:1065C000FFFFFFFFFFFFFFFFFFFFFFFFFFFFFFFFDB
:1065D000FFFFFFFFFFFFFFFFFFFF87FFFFE3FFFF5F
:1065E000FFFFFFFFFFFFFFFFFFFFFFFFFFFFFFFFBB
:1065F000FFFFFFFFFFFFFFFFEFFFFFF7FFFFFFFFC3
:10660000FFFFFFFFFFFFFFFFFFFFFFFFFFFFFFFF9A
:10661000FFFFFFFFFFFFFFFFFFFFFFFFFFFFFFFF8A
:10662000FFFFFFFFFFFFFFFFFFFFFFFFFFFFFFFF7A
:10663000FFFFFFFFFFFFFFFFFFFFFFFFFFFFFFFF6A
:10664000FFFFFFFFFFFFFFFFFFFFFFFFFFFFFFFF5A
:10665000FFFFFFFFFFFFFFFFFFFFFFFFFFFFFFFF4A
:10666000FFFFFFFFFFFFFFFFFFFFFFFFFFFFFFFF3A
:10667000FFFFFFFFFFFFFFFFFFFFFFFFFFFFFFFF2A
:10668000FFFFFFFFFFFFFFFFFFFFFFFFFFFFFFFF1A
:10669000FFFFFFFFFFFFFFFFFFFFFFFFFFFFFFFF0A
:1066A000FFFFFFFFFFFFFFFFFFFFFFFFFFFFFFFFFA
:1066B000FFFFFFFFFFFFFFFFFFFFFFFFFFFFFFFFEA
:1066C000FFFFFFFFFFFFFFFFFFFFFFFFFFFFFFFFDA
:1066D000FFFFFFFFFFFFFFFFFFFFFFFFFFFFFFFFCA
:1066E000FFFFFFFFFFFFFFFFFFFFFFFFFFFFFFFFBA
:1066F000FFFFFFFFFFFFFFFFFFFFFFFFFFFFFFFFAA
:10670000FFFFFFFFFFFFFFFFFFFFFFFFFFFFFFFF99
:10671000FFFFFFFFFFFFFFFFFFFFFF003C670008D9
:1067200000000020340000006C01000870670008C1
:10673000340000202C0700008801000800A24A0451
:106740000000000000000000010203040607080921
:106750000000000000000000000000000000010236
:1067600003040102030406070809020406080000E6
:0400000508000131BD
:00000001FF
