:020000040800F2
:1000000000040020AF0E0008BD0E0008BF0E00085F
:10001000C10E0008C30E0008C50E00080000000055
:10002000000000000000000000000000C70E0008F3
:10003000C90E000800000000CB0E0008CD0E00081D
:10004000110F0008130F0008150F0008170F000804
:10005000190F00081B0F00081D0F00081F0F0008D4
:10006000210F0008230F0008250F0008270F0008A4
:10007000290F00082B0F00082D0F00082F0F000874
:10008000310F0008330F0008350F0008CF0E0008AD
:10009000CF0E0008CF0E0008CF0E00083F0F00085B
:1000A000410F0008430F0008450F0008470F0008E4
:1000B000490F00084B0F00084D0F00084F0F0008B4
:1000C000510F0008530F0008550F0008570F000884
:1000D000590F00085B0F00085D0F00085F0F000854
:1000E000610F0008630F0008650F0008670F000824
:1000F000690F00086B0F00086D0F00086F0F0008F4
:10010000710F0008730F0008750F0008770F0008C3
:10011000790F00087B0F00087D0F00087F0F000893
:10012000810F0008830F0008850F0008870F000863
:1001300000F002F800F03AF80AA090E8000C8244BF
:100140008344AAF10107DA4501D100F02FF8AFF29C
:10015000090EBAE80F0013F0010F18BFFB1A43F0A5
:100160000103184758B2010078B20100103A24BFC9
:1001700078C878C1FAD8520724BF30C830C144BF0C
:1001800004680C607047000000230024002500264E
:10019000103A28BF78C1FBD8520728BF30C148BFEA
:1001A0000B6070471FB51FBD10B510BD01F0DDFB22
:1001B0001146FFF7F7FF01F02BF901F0FBFB03B449
:1001C000FFF7F2FF03BC01F003FC000010B504468A
:1001D000C448844208D10121042000F01DFB002105
:1001E000042000F019FB46E0BF48844208D10121F9
:1001F000082000F011FB0021082000F00DFB3AE080
:10020000BA48844208D10121102000F005FB0021EA
:10021000102000F001FB2EE0B548844208D10121F6
:10022000202000F0F9FA0021202000F0F5FA22E069
:10023000B048844208D10121402000F0EDFA0021AD
:10024000402000F0E9FA16E0AB48844208D10121D1
:10025000802000F0E1FA0021802000F0DDFA0AE0C1
:10026000A648844207D10121801500F0D5FA00216B
:10027000A01500F0D1FA10BD10B50121084600F01C
:10028000CBFA0021012000F0C7FA10BD2DE9F041A2
:10029000024600250026002000230024002791F8B4
:1002A00003C00CF00F0591F803C00CF0100CBCF16A
:1002B000000F03D091F802C04CEA050591F800C088
:1002C000BCF1000F31D0146800202BE04FF0010C7E
:1002D0000CFA00F3B1F800C00CEA03069E4220D1EC
:1002E00083004FF00F0C0CFA03F7BC4305FA03FC34
:1002F0004CEA040491F803C0BCF1280F06D14FF07A
:10030000010C0CFA00FCC2F814C00AE091F803C01A
:10031000BCF1480F05D14FF0010C0CFA00FCC2F8FB
:1003200010C0401C0828D1D31460B1F800C0BCF143
:10033000FF0F34DD546800202EE000F1080C4FF070
:10034000010808FA0CF3B1F800C00CEA03069E425B
:1003500021D183004FF00F0C0CFA03F7BC4305FAD0
:1003600003FC4CEA040491F803C0BCF1280F05D14A
:1003700000F1080C08FA0CF8C2F8148091F803C0D8
:10038000BCF1480F07D100F1080C4FF0010808FA42
:100390000CF8C2F81080401C0828CED35460BDE889
:1003A000F0814FF6FF710180022181700421C1703C
:1003B00070470246002093680B400BB1012000E01B
:1003C000002070470146886880B2704702460020CE
:1003D000D3680B400BB1012000E0002070470146BC
:1003E000C86880B2704701617047416170470AB1C7
:1003F000016100E041617047C16070474FF4803295
:100400000A43826181618261826982697047024622
:1004100000203B4B18684FF68073184040EA0210EA
:100420000843374B186070473649C8617047F0B5CC
:100430000A460023002400210025314E7168C0F3D4
:10044000034583B200F44016B6F5401F08D121F0F1
:1004500070612B4E766826F07066294F7E6012E040
:1004600000F48016B6F5801F06D1032606FA05F4BF
:10047000A14341F0706106E0460D360103FA06F62D
:10048000B14341F0706122B1460D360103FA06F620
:1004900031431B4E7160F0BD30B500228B071C0F3D
:1004A0000F2303FA04F2164B08338C1053F8243050
:1004B0009343134C08348D1044F8253023468C1098
:1004C00053F824308C07240F00FA04F423430C4C17
:1004D00008348D1044F8253030BD0A49DC310860FD
:1004E0007047000000080140000C0140001001406E
:1004F0000014014000180140001C01400020014090
:100500000000014000002042DF48006840F0010088
:10051000DD49086008464068DC490840DA4948601F
:1005200008460068DA490840D7490860084600686C
:1005300020F4802008600846406820F4FE004860EF
:100540004FF41F0088607047CF49096821F480315B
:10055000CD4A11601146096821F480211160B0F57F
:10056000803F03D0B0F5802F0ED106E0C649096860
:1005700041F48031C44A116007E0C349096841F47D
:10058000A021C14A116000E000BF00BF704710B554
:1005900001460022002300204A11012A02D1BA4C50
:1005A000236806E0022A02D1B74C236A01E0B64C68
:1005B000636A01F01F02012494401C400CB1012029
:1005C00000E0002010BD38B5002000900024002578
:1005D00000BF3120FFF7DBFF05460098401C00906C
:1005E0000098B0F5A06F01D0002DF2D03120FFF7B8
:1005F000CEFF08B1012400E00024204638BD0146AA
:100600000020A14A106820F0F80040EAC100106004
:100610007047A04908607047024600209A4B58680E
:1006200020F47C1042EA01031843974B586070474E
:1006300098490866704701460020934A506820F0A8
:1006400003000843506070478F48406800F00C007A
:100650007047014600208C4A506820F0F0000843A3
:100660005060704701460020874A506820F4E060DF
:1006700008435060704701460020834A506820F4C8
:10068000605040EAC1005060704729B17E4A527AFA
:1006900002437D4B5A7204E07B4A527A82437A4B82
:1006A0005A7270477B49D831086070470146002074
:1006B000754A506820F4404008435060704700215C
:1006C000714A20321170704A82F82010012802D03D
:1006D00004280AD104E001216B4A2032117005E0A0
:1006E0000521694A2032117000E000BF00BF704749
:1006F0006949086070476449096A0143624A1162A6
:100700007047654944390860704730B500210022C0
:10071000002400235C4D6D6805F00C0121B1042913
:1007200005D0082923D105E05C4D056022E05B4D32
:1007300005601FE0544D6D6805F47012524D6D68F0
:1007400005F48034022505EB92421CB9544D554303
:1007500005600BE04C4D6D6805F400351DB1504D42
:100760005543056002E04D4D5543056002E04B4D99
:10077000056000BF00BF444D6D6805F0F001090938
:10078000484D6B5C0568DD4045603F4D6D6805F484
:10079000E061090A434D6B5C4568DD4085603A4D78
:1007A0006D6805F46051C90A3E4D6B5C4568DD40DB
:1007B000C560354D6D6805F44041890B3A4D6B5C61
:1007C000C568B5FBF3F5056130BD29B12E4A526904
:1007D00002432D4B5A6104E02B4A526982432A4B53
:1007E0005A61704729B1284A92690243264B9A619F
:1007F00004E0254A92698243234B9A61704729B1EC
:10080000214AD2690243204BDA6104E01E4AD269D0
:1008100082431D4BDA61704729B11B4AD2680243FB
:10082000194BDA6004E0184AD2688243164BDA604A
:10083000704729B1144A12690243134B1A6104E04C
:10084000114A12698243104B1A61704712494039AC
:10085000086070470F49C86470470B49C8717047FA
:100860000948406A40F08070074948627047014675
:100870000020054A92680A400AB1012000E00020E9
:100880007047014988727047001002400000FFF86D
:10089000FFFFF6FE000042428004424200127A004E
:1008A00000093D000000002010000020014600204B
:1008B000FD4A106800F03800084310607047FA499C
:1008C000096821F00801F84A1160114609680143DE
:1008D00011607047F449096821F01001F24A116073
:1008E00011460968014311607047F048EE494860BD
:1008F000EF4848607047EC48006940F08000EA49E2
:10090000086170470420E849C96801F0010109B194
:1009100001200EE0E449C96801F0040109B1022098
:1009200007E0E149C96801F0100109B1032000E0C6
:100930000420704708B500200090FF20009002E0DE
:100940000098401E009000980028F9D108BD70B5AD
:1009500004460425FFF7D6FF054605E0FFF7EAFF4A
:10096000FFF7D0FF0546641E012D01D1002CF5D103
:1009700004B90525284670BD70B50546042440F627
:10098000FF70FFF7E4FF0446042C19D1C648006944
:1009900040F00200C449086108464561006940F022
:1009A0004000086140F6FF70FFF7D1FF0446052CB8
:1009B00006D0BD48006941F6FD710840BA4908619A
:1009C000204670BD10B5042440F6FF70FFF7BFFF4E
:1009D0000446042C18D1B448006940F00400B24920
:1009E00008610846006940F04000086140F6FF7069
:1009F000FFF7ADFF0446052C06D0AB48006941F671
:100A0000FB710840A8490861204610BD10B50424B8
:100A100040F6FF70FFF79BFF0446042C3BD1A34830
:100A2000A1498860A24888600846006940F020001B
:100A300008610846006940F04000086140F6FF7018
:100A4000FFF785FF0446042C1CD19748006941F646
:100A5000DF710840944908610846006940F01000C1
:100A60000861A520934908800F20FFF770FF044616
:100A7000052C10D08C48006941F6EF7108408A4976
:100A8000086108E0052C06D08748006941F6EF713F
:100A9000084085490861204610BDF8B506460D4658
:100AA0000424002000900F20FFF751FF0446042C7F
:100AB00028D17D48006940F001007B4908613580FC
:100AC0000F20FFF744FF0446042C12D1B01C009005
:100AD000280C009908800F20FFF739FF0446052CE9
:100AE00010D07148006941F6FE7108406E490861F6
:100AF00008E0052C06D06C48006941F6FE710840FC
:100B0000694908612046F8BD70B505460E460424C3
:100B10000F20FFF71CFF0446042C13D16248006924
:100B200040F00100604908612E800F20FFF70FFFA1
:100B30000446052C06D05C48006941F6FE71084069
:100B400059490861204670BD70B505460E4604241B
:100B50000F20FFF7FCFE0446042C17D153485249DE
:100B60008860534888600846006940F010000861BA
:100B70002E800F20FFF7EBFE0446052C06D04A48D6
:100B8000006941F6EF71084047490861204670BD91
:100B90002DE9F04704464FF6FF763746B046B1469A
:100BA0000425E443E6B2C4F30727C4F307484FEA39
:100BB00014690F20FFF7CBFE0546042D40D13B48BA
:100BC000394988603A4888600846006940F010005A
:100BD0000861FF2E06D03748083006800F20FFF747
:100BE000B6FE0546042D08D1FF2F06D031480A3045
:100BF00007800F20FFF7ABFE0546042D0AD1B8F1A0
:100C0000FF0F07D02B480C30A0F800800F20FFF713
:100C10009EFE0546042D0AD1B9F1FF0F07D02548E5
:100C20000E30A0F800900F20FFF791FE0546052D2D
:100C300006D01D48006941F6EF7108401A49086165
:100C40002846BDE8F08770B50546042440F6FF70DD
:100C5000FFF77DFE0446042C49D1144812498860F0
:100C6000134888600846006940F020000861084683
:100C7000006940F04000086140F6FF70FFF767FE32
:100C80000446042C2AD10848006941F6DF71084067
:100C9000054908610846006940F0100008615DB12F
:100CA0000020044908800AE0002002402301674533
:100CB000AB89EFCD00F8FF1FA5204549088040F61D
:100CC000FF70FFF744FE0446052C10D04148006930
:100CD00041F6EF7108403F49086108E0052C06D055
:100CE0003C48006941F6DF7108403A4908612046F6
:100CF00070BD2DE9F04105460E46174604243648DE
:100D000034498860354888600F20FFF720FE04468C
:100D1000042C19D12F48006940F010002D490861BA
:100D200047F0F800304328432949891C08800F20E8
:100D3000FFF70DFE0446052C06D02648006941F653
:100D4000EF710840234908612046BDE8F081214841
:100D5000C069800870471F48006A704700201D491D
:100D6000C96901F0020109B1012000E000207047CB
:100D700000201849096801F0200109B1012000E0B4
:100D80000020704729B1134A12690243114B1A61BE
:100D900004E0104A126982430E4B1A617047014603
:100DA0000020012908D10B4AD26902F001020AB1E0
:100DB000012008E0002006E0064AD2680A400AB195
:100DC000012000E0002070470249C8607047000021
:100DD00000F8FF1F0020024023016745AB89EFCDDB
:100DE00010B501210807FFF724FD00214FF08050C6
:100DF000FFF71FFD10BD2A490862704728490861A6
:100E0000704701460020274A106820F0E0000843A0
:100E1000106070472249A0310860704710B5024643
:100E20000020204B186820F00300104318601E4B70
:100E30001B6843F004031C4C2360012901D130BF1F
:100E400000E020BF184B1B6823F00403164C2360FE
:100E500010BD1448006840F00400124908600846BC
:100E6000006840F0020008600F48006840F004008D
:100E70000D49086000BF00BF30BF70470146002029
:100E8000084A52680A400AB1012000E00020704779
:100E90000449096841EA8001024A11607047000074
:100EA00000000E420070004010ED00E070470B485B
:100EB00080470B4981F308880A480047FEE7FEE7B0
:100EC000FEE7FEE7FEE7FEE7FEE7FEE7FEE7FEE7FA
:100ED00005480649064A074B70470000AD0E00085A
:100EE00080060020310100088000002080060020DC
:100EF00080020020800200207047704700BFFEE79C
:100F000000BFFEE700BFFEE77047704770477047BD
:100F10007047704770477047704770477047704719
:100F20007047704770477047704770477047704709
:100F300070477047704770477047704770477047F9
:100F400070477047704770477047704770477047E9
:100F500070477047704770477047704770477047D9
:100F600070477047704770477047704770477047C9
:100F700070477047704770477047704770477047B9
:100F8000704770477047704700E0401E0128FCD84A
:100F900070470022002100BF05E0002200E0521C43
:100FA000FF2AFCD9491C8142F7D3704710B50021B4
:100FB0000BE0002205E0002300E05B1CDE2BFCDBE5
:100FC000521CB2F57A6FF6DB491C8142F1D310BD99
:100FD00030B50446002503E03C20FFF7E7FF6D1C19
:100FE000A542F9D330BD10B500BFFA480068C4B2BD
:100FF0000220FFF7CEFF002CF7D11420FFF7C9FF26
:1010000010BD10B500BF4FF40051F348FFF7D1F900
:101010000028F8D0C820FFF7BCFF10BD10B517207E
:1010200000F050FCA52000F065FCFFF7EAFFC820A7
:10103000FFF7AFFF10BD10B5202000F043FC0024E7
:1010400004E0E649085D00F055FC641C382CF8D338
:10105000212000F037FC002404E0E149085D00F0A5
:1010600049FC641C2A2CF8D3242000F02BFC00241B
:1010700004E0DC49085D00F03DFC641C382CF8D32A
:10108000D9480068D8B9222000F01CFC002404E0F4
:10109000D649085D00F02EFC641C382CF8D32320C0
:1010A00000F010FC002404E0D149085D00F022FCAF
:1010B000641C382CF8D30120CB4908601AE02220A8
:1010C00000F000FC002404E0C949085D00F012FCB7
:1010D000641C382CF8D3232000F0F4FB002404E037
:1010E000C249085D00F006FC641C382CF8D30020CF
:1010F000BD49086010BD70B50446132000F0E2FB46
:10110000002504E0207800F0F5FB641C6D1C42F61D
:1011100030208542F6D370BD10B5202000F0D2FB00
:10112000002404E0B349085D00F0E4FB641C382CA3
:10113000F8D3212000F0C6FB002404E0AE49085D8E
:1011400000F0D8FB641C2A2CF8D3242000F0BAFB52
:10115000002404E0A949085D00F0CCFB641C382C95
:10116000F8D3A1480068D8B9222000F0ABFB0024D6
:1011700004E0A349085D00F0BDFB641C382CF8D3E3
:10118000232000F09FFB002404E09E49085D00F04E
:10119000B1FB641C382CF8D30120934908601AE095
:1011A000222000F08FFB002404E09649085D00F047
:1011B000A1FB641C382CF8D3232000F083FB00240F
:1011C00004E08F49085D00F095FB641C382CF8D3CF
:1011D00000208549086010BD2DE9F0410446002734
:1011E000132000F06FFB002612E000250DE02CB16B
:1011F000FF2C07D1FF2000F07DFB04E0002000F071
:1012000079FB00E000BF00BF6D1C1E2DEFD3761CE4
:10121000B6F5B47FE9D3BDE8F08110B5002072497E
:10122000086000F04FFBF32000F064FB012000F0A9
:1012300061FB012000F046FB032000F05BFB102067
:1012400000F058FB3F2000F055FB3F2000F052FB20
:10125000032000F04FFB062000F034FB372000F0A5
:1012600049FB3D2000F046FB3D2000F043FB6020A1
:1012700000F028FB222000F03DFB822000F022FB42
:10128000072000F037FB302000F01CFB092000F0A5
:1012900031FBE32000F016FB882000F02BFB6120DF
:1012A00000F010FBF02000F025FB012000F022FBF5
:1012B000682000F01FFB502000F004FBB72000F076
:1012C00019FB10BD08B501216020FFF78BFA4FF420
:1012D000E060ADF8000010208DF8030002208DF8CA
:1012E000020069464848FEF7D1FF4FF44040ADF890
:1012F000000010208DF8030003208DF802006946DD
:101300003548FEF7C3FF4FF42050ADF800004820E9
:101310008DF8030003208DF8020069462E48FEF781
:10132000B5FF4FF48050ADF8000010208DF8030099
:1013300003208DF8020069462748FEF7A7FF08BD85
:1013400010B5FFF7E1F84FF48030FFF7FDF8FFF735
:101350003AF92E49087008460078012805D14FF463
:10136000E0110004FFF758F90DE00120FFF751F9F3
:1013700000BF2120FFF70BF90028FAD04FF46011CD
:101380000020FFF749F91020FFF7A4FA0220FFF729
:101390008DFA0020FFF75DF90020FFF76CF94FF49C
:1013A0008060FFF75FF90120FFF742F900BF3920A5
:1013B000FFF7EDF80028FAD00220FFF73CF900BF54
:1013C000FFF742F90828FBD1012144F20500FFF79D
:1013D00009FA10BD2C01234200180140DE19000853
:1013E000161A0008A21A000818000020401A000867
:1013F000781A0008CC1A0008041B0008901B00088B
:101400002E1B0008661B0008001401401400002079
:10141000FFF796FFFFF756FF84E000F087FAFFF72B
:10142000FCFEFF20FFF7D8FEFFF705FEFFF7F6FDF5
:10143000502000F047FAD72000F05CFAF148FFF79F
:101440005AFEFFF7F8FDFFF7E9FDFFF7CCFDEE4888
:10145000FFF751FEFFF7EFFDFFF7E0FDFFF7C3FDDC
:10146000EA48FFF748FEFFF7E6FDFFF7D7FDFFF775
:10147000BAFDE448FFF73FFEFFF74EFEFFF7CEFD53
:10148000FFF7B1FDE048FFF736FEFFF745FEFFF737
:10149000C5FDFFF7A8FDDD48FFF72DFEFFF73CFE79
:1014A000FFF7BCFDFFF79FFDD948FFF724FEFFF7CC
:1014B00033FEFFF7B3FDFFF796FDD648FFF71BFE9F
:1014C000FFF72AFEFFF7AAFDFFF78DFDD248FFF7D1
:1014D00012FEFFF721FEFFF7A1FDFFF784FDCF48C5
:1014E000FFF709FEFFF718FEFFF798FDFFF77BFDFA
:1014F000CB48FFF700FEFFF70FFEFFF78FFDFFF76A
:1015000072FDC848FFF7F7FDFFF706FEFFF786FDFF
:10151000FFF769FD00BF00BFFFF78DFDFFF77EFD00
:10152000FFF761FD79E710B5072000F0CBF9A520A2
:1015300000F0E0F910BD10B5202000F0C3F9002440
:1015400004E0B949085D00F0D5F9641C382CF8D3E3
:10155000212000F0B7F9002404E0B449085D00F050
:10156000C9F9641C2A2CF8D3242000F0ABF900241C
:1015700004E0AF49085D00F0BDF9641C382CF8D3D5
:10158000AC480068D8B9222000F09CF9002404E09F
:10159000A949085D00F0AEF9641C382CF8D323206B
:1015A00000F090F9002404E0A449085D00F0A2F9DD
:1015B000641C382CF8D301209E4908601AE02320CF
:1015C00000F080F9002404E09B49085D00F092F9E6
:1015D000641C382CF8D3222000F074F9002404E0B5
:1015E0009649085D00F086F9641C382CF8D3002079
:1015F0009049086010BD2DE9FF4F83B0074688462B
:101600009A46DDF844B000BF10983844401E02905E
:1016100000200190C146B8F1FF0F04DD4FEA192008
:10162000019009F0FF090020009008EB0A00461E17
:10163000FF2E02D9300A0090F6B210980AFB00F093
:10164000C50800F073F9FFF7E8FD502000F03AF903
:10165000F72000F04FF9002000F034F9FF2000F0EF
:1016600049F9012000F046F9912000F02BF9902073
:1016700000F028F9F8B200F03DF90299C8B200F084
:1016800039F90199C8B200F035F909F0FF0000F00E
:1016900031F90099C8B200F02DF9F0B200F02AF942
:1016A000012000F027F9BBF1000F0CD1132000F04E
:1016B00009F9002404E00599085D00F01BF9641C99
:1016C000AC42F8D332E0BBF1010F16D1102000F08C
:1016D000F9F8002403E0002000F00CF9641CAC428F
:1016E000F9D3132000F0EEF8002403E0FF2000F00F
:1016F00001F9641CAC42F9D318E0BBF1020F15D11B
:10170000102000F0DFF8002403E0FF2000F0F2F8E2
:10171000641CAC42F9D3132000F0D4F8002403E099
:10172000002000F0E7F8641CAC42F9D3FFF7F4FCAA
:10173000FFF774FC4FF4FA70FFF72BFC00F0F6F89B
:10174000FFF76BFD502000F0BDF8D72000F0D2F875
:1017500007B0BDE8F08F08B501216020FFF742F81F
:101760004FF4E060ADF8000000208DF80300022087
:101770008DF8020069463248FEF788FD4FF440407C
:10178000ADF8000000208DF8030003208DF8020062
:1017900069462C48FEF77AFD4FF42050ADF8000062
:1017A00000208DF8030003208DF8020069462548CB
:1017B000FEF76CFD4FF48050ADF8000000208DF86E
:1017C000030003208DF8020069461E48FEF75EFD07
:1017D00008BD10B501210807FFF711F80120FFF738
:1017E00019FBFFF736FB02210120FFF717FB10BDA5
:1017F00010B500214FF4FE70FFF70EF8FFF7E9FF78
:1018000010BD70470C2900083C5300086C7D00088F
:101810009CA70008CCD10008FCFB00082C2601087E
:101820005C5001088C7A0108BA1B0008E41B000810
:10183000621C0008180000200E1C0008381C00085C
:10184000001401400018014007E0002101E04A1C9B
:10185000D1B20229FBDB421ED0B20028F5D170477D
:1018600070B504460120FFF7EFFF002527E04FF495
:1018700000712C48FEF7B9FD0120FFF7E5FF04F0E9
:10188000800028B14FF480612648FEF7ACFD04E0EB
:101890004FF480612348FEF7A8FD6006040E012086
:1018A000FFF7D2FF0120FFF76FFB4FF400711D48D7
:1018B000FEF799FD0120FFF7C7FF681CC5B2082D90
:1018C000D5DB70BD10B504460120FFF7BDFF4FF416
:1018D00080711448FEF789FD4FF400411248FEF76D
:1018E00084FD2046FFF7BCFF4FF480710D48FEF7E2
:1018F0007AFD10BD10B504460120FFF7A5FF4FF497
:1019000080710848FEF771FD4FF400410648FEF76C
:101910006AFD2046FFF7A4FF4FF480710148FEF7EF
:1019200062FD10BD001401400018014010B54FF4D5
:1019300080410B48FEF757FD0A20FFF72AFB4FF4C2
:1019400080410748FEF751FD0A20FFF722FB4FF4C4
:1019500080410348FEF747FD0A20FFF71AFB10BD40
:1019600000180140704770477047754600F02CF82A
:10197000AE4605006946534620F00700854618B07C
:1019800020B5FFF7A5FABDE820404FF000064FF064
:1019900000074FF000084FF0000B21F00701AC46A4
:1019A000ACE8C009ACE8C009ACE8C009ACE8C009C3
:1019B0008D46704710B50446AFF300802046BDE861
:1019C0001040FEF7FCBB0000004870471C000020E0
:1019D00001491820ABBEFEE7260002007047010F48
:1019E0000F0F0101010000000000000000000000D6
:1019F00000000000000000000000000000000000E7
:101A000000000000000000000000000000000000D6
:101A1000000000000000014F8F0F010101000000D5
:101A200000000000000000000000000000000000B6
:101A300000000000000000000000000000000000A6
:101A4000010F8F0F010101000000000000000000E5
:101A50000000000000000000000000000000000086
:101A60000000000000000000000000000000000076
:101A70000000000000000000014F8F4F0101010035
:101A80000000000000000000000000000000000056
:101A90000000000000000000000000000000000046
:101AA0000000010F8F4F0101010000000000000045
:101AB0000000000000000000000000000000000026
:101AC000000000000000000000000000010F010005
:101AD0000001010000000000000000000000000004
:101AE00000000000000000000000000000000000F6
:101AF00000000000000000000000000000000000E6
:101B000000000000010F01000001010000000000C2
:101B100000000000000000000000000000000000C5
:101B20000000000000000000000000000000018F25
:101B300001000001010000000000000000000000A2
:101B40000000000000000000000000000000000095
:101B50000000000000000000000000000000000085
:101B6000000000000000014F010000010100000022
:101B70000000000000000000000000000000000065
:101B80000000000000000000000000000000000055
:101B9000010F010000010100000000000000000032
:101BA0000000000000000000000000000000000035
:101BB00000000000000000000000011919191901BF
:101BC00001011919190101010000000000000000C5
:101BD0000000000000000000000000000000000005
:101BE0000000000001599959990101015999190101
:101BF00001010000000000000000000000000000E3
:101C0000000000000000000000000000000001597A
:101C10009959990101015999190101010000000028
:101C200000000000000000000000000000000000B4
:101C300000000000000000000119995999010101FC
:101C40005999590101010000000000000000000046
:101C50000000000000000000000000000000000084
:101C6000000001199959990101015999590101017E
:101C70000000000000000000000000000000000064
:101C8000000000000000000000000000FFFFFFFF58
:101C9000FFFFFFFFFFFFFFFFFFFF8000FFFFFFF8D9
:101CA00000000FFFFFE0000001FFFF80000000FFC9
:101CB000FF000000007FFE000000003FFC0000006D
:101CC000001FFC003FFF001FFC03FFFFE01FF80F99
:101CD000FFFFF80FF81FFFFFFC0FF81FFFFFFC0FBF
:101CE000F83FFFFFFE0FF83FFFFFFE0FF83FFFFF3B
:101CF000FE0FF81FFFFFFC0FF81FFFFFFC0FF80F90
:101D0000FFFFF80FFC03FFFFE01FFC003FFF001F79
:101D1000FC000000001FFE000000003FFF0000006C
:101D2000007FFF80000000FFFFE0000001FFFFF8E0
:101D300000000FFFFFFF8000FFFFFFFFFFFFFFFF1F
:101D4000FFFFFFFFFFFFFFFFFFFFFFFFFFFFFFFFA3
:101D5000FFFFFFFFFFFFFFFFFFFFFFFFFFFFFFFF93
:101D6000FFFFFFFFFFFFFFFFFFFFFFFFFFFFFFFF83
:101D7000FFFFFFFFFFFFFFFFFFFFFFFFFFFFFFFF73
:101D8000FFFFFFFFFFFFFFFFFFFFFFFFFFFFF80069
:101D90000000000FF8000000000FF8000000000F26
:101DA000F8000000000FF8000000000FFC00000029
:101DB000000FFE000000000FFF807FFFFFFFFFC04D
:101DC0007FFFFFFFFFE03FFFFFFFFFF01FFFFFFF71
:101DD000FFF01FFFFFFFFFF80FFFFFFFFFFC0FFFEC
:101DE000FFFFFFFC0FFFFFFFFFFFFFFFFFFFFFFFF6
:101DF000FFFFFFFFFFFFFFFFFFFFFFFFFFFFFFFFF3
:101E0000FFFFFFFFFFFFFFFFFFFFFFFFFFFFFFFFE2
:101E1000FFFFFFFFFFFFFFFFFFFFFFFFFFFFFFF0E1
:101E20000FFFFC0FFFC003FFFC0FFF8000FFFC0F44
:101E3000FF00007FFC0FFE00003FFC0FFC00001FB6
:101E4000FC0FFC00000FFC0FF803C007FC0FF80F9D
:101E5000F003FC0FF81FF801FC0FF81FFC00FC0F4B
:101E6000F83FFE007C0FF83FFF003C0FF83FFF807B
:101E70001C0FF81FFFC00C0FF81FFFE0040FF8073E
:101E8000FFF0000FFC01FFF8000FFC003FFC000F0B
:101E9000FC003FFE000FFE003FFF000FFF003FFF72
:101EA000800FFF803FFFC00FFFC07FFFE00FFFF8F4
:101EB0007FFFF80FFFFFFFFFFF0FFFFFFFFFFFFF99
:101EC000FFFFFFFFFFFFFFFFFFFFFFFFFFFFFFFF22
:101ED000FFFFFFFFFFFFFFFFFFFFFFF00FFFFFFF11
:101EE000FFC003FFFFF01F8001FFFFC00700007F5E
:101EF000FF800200007FFF000200003FFE000000A4
:101F0000001FFC000003C01FFC00000FF01FFC07B7
:101F1000801FF80FF80FE03FFC0FF81FF03FFE0F97
:101F2000F83FF03FFE0FF83FF83FFE0FF83FF83F55
:101F3000FE0FF83FF83FFE0FF81FF83FFC0FF80FB9
:101F4000FFFFF80FF807FFFFF00FFC01FFFF801FF6
:101F5000FC007FFE001FFE007FFE003FFE007FFEB4
:101F6000003FFF007FFE007FFF807FFE00FFFFE05D
:101F7000FFFF03FFFFF8FFFF0FFFFFFFFFFFFFFF64
:101F8000FFFFFFFFFFFFFFFFFFFFFFFFFFFFFFFF61
:101F9000FFFFFFFFFFFFFFFFFFFFFFF81FFFFFFF38
:101FA000FFF81FFFFFFFFFF81FFFFFFFFFF81FFFF6
:101FB000FFFFFFF81FFFF8000000000FF80000000F
:101FC000000FF8000000000FF8000000000FF800FC
:101FD0000000000FF8000000000FFC000000000FE0
:101FE000FE001FF81FFFFF8007F81FFFFFC003F868
:101FF0001FFFFFE001F81FFFFFF800781FFFFFFC45
:1020000000381FFFFFFF00081FFFFFFF80001FFFBA
:10201000FFFFC0001FFFFFFFF0001FFFFFFFF800E2
:102020001FFFFFFFFE001FFFFFFFFF001FFFFFFF5F
:10203000FF801FFFFFFFFFE01FFFFFFFFFF01FFFFD
:10204000FFFFFFFFFFFFFFFFFFFFFFFFFFFFFFFFA0
:10205000FFFFFFFFFFFFFFFFFFFFFF803FFFFFFFCF
:10206000FE0007FFF81FF80001FFF81FF00000FF57
:10207000F81FE000007FF81FE000003FF81FC000DD
:10208000003FF81FC01FC01FF81F807FF01FF81F00
:1020900081FFF80FF81F81FFFC0FF81F83FFFC0F73
:1020A000F81F83FFFE0FF81F83FFFE0FF81F83FF4B
:1020B000FE0FF81F83FFFE0FF807C1FFFC0FF800AB
:1020C00000FFFC0FF800007FF00FF800003FC01F7A
:1020D000F800003F001FF800003F003FFE00003FF7
:1020E000003FFFF0003F007FFFFF807F00FFFFFF0A
:1020F000FC7F03FFFFFFFFFF0FFFFFFFFFFFFFFF5F
:10210000FFFFFFFFFFFFFFFFFFFFFFFFFFFFFFFFDF
:10211000FFFFFFFFFFFFFFFFFFFFFFC01FFFFFF8F5
:10212000FF0003FFFFC0FC0001FFFF80F800007FFD
:10213000FF00F000007FFE00F000003FFC00E00028
:10214000001FFC00E00FC01FF803C03FF00FF80FA6
:10215000C07FF80FF81FC0FFFC0FF81FC1FFFE0F74
:10216000F83FC1FFFE0FF83FC1FFFE0FF83FC1FF70
:10217000FE0FF81FC0FFFC0FF80FE0FFFC0FFC077D
:10218000E07FF80FFC01F03FE01FFC00300F801FE4
:10219000FE000000003FFF000000003FFF80000045
:1021A000007FFFC0000000FFFFF0000003FFFFFC06
:1021B00000000FFFFFFFC000FFFFFFFFFFFFFFFF5B
:1021C000FFFFFFFFFFFFFFFFFFFFFFFFFFFFFFFF1F
:1021D000FFFFFFFFFFFFFFFFFFFFFFFFFFFFF81FF6
:1021E000FFFFFFFFF80FFFFFFFFFF807FFFFFFFFF5
:1021F000F801FFFFFFFFF8007FFFFFFFF8001FFF60
:10220000FFFFF8000FFFFFFFF80001FFFFFFF810CE
:10221000007FFFFFF818001FFFFFF81E0003FFFFFD
:10222000F81F00003FFFF81FC00001FFF81FF0007B
:10223000000FF81FFC00000FF81FFF00000FF81F31
:10224000FFE0000FF81FFFF8000FF81FFFFF800FDF
:10225000F81FFFFFFC0FF81FFFFFFFFFF81FFFFF36
:10226000FFFFF81FFFFFFFFFF81FFFFFFFFFF81F33
:10227000FFFFFFFFF81FFFFFFFFFFFFFFFFFFFFF55
:10228000FFFFFFFFFFFFFFFFFFFFFFFFFFFFFFFF5E
:10229000FFFFFFFFFFFFFFFFFFFFFFFFFFFFFFFF4E
:1022A000FFF00FFFFFF03FC003FFFFC00F8000FFF4
:1022B000FF000700007FFE000200003FFE0000005C
:1022C000003FFC000000001FFC000007E01FF807B3
:1022D000800FF80FF80FE03FFC0FF81FE03FFC0FF6
:1022E000F83FF07FFE0FF83FF07FFE0FF83FF07FE2
:1022F000FE0FF83FF07FFE0FF81FE03FFC0FF80FD6
:10230000C03FFC0FF807801FF80FFC000007E01F1C
:10231000FC000000001FFE000000003FFE00020065
:10232000003FFF000700007FFF800F0000FFFFE07D
:102330003FC003FFFFFFFFF00FFFFFFFFFFFFFFFA7
:10234000FFFFFFFFFFFFFFFFFFFFFFFFFFFFFFFF9D
:10235000FFFFFFFFFFFFFFFFFFFF0001FFFFFFF891
:1023600000001FFFFFE0000007FFFF80000001FFEB
:10237000FF00000000FFFE000000007FFE000000E4
:10238000003FFC01F806001FFC07FE07C01FF80F06
:10239000FF03F81FF81FFF83F80FF83FFF81FC0FC2
:1023A000F83FFFC1FE0FF83FFFC1FE0FF83FFFC12E
:1023B000FE0FF81FFFC1FE0FF81FFF81FC0FF80F83
:1023C000FF01F80FF807FE01E00FFC01F803801F82
:1023D000FC000003801FFE000007803FFF00000795
:1023E000803FFF00000F80FFFFC0001F81FFFFE064
:1023F000007F87FFFFFC01FFFFFFFFFFFFFFFFFFE5
:10240000FFFFFFFFFFFFFFFFFFFFFFFFFFFFFFFFDC
:10241000FFFFFFFFFFFFFFFFFFFFFFFFFFFFFFFFCC
:10242000FFFFFFFFFFFFFFFFFFFFFFFFFFFC01FFBD
:10243000FFE0003FFFC0001FFF87FF0FFF1FFFC728
:10244000FF3FFFE7FF7FFFF7FF7FFFF7FF3FFFE75C
:10245000FF1FFFC7FF83FE0FFFC0001FFFE0003F0D
:10246000FFFC01FFFFFFFFFFFFFFFFFFFFFFFFFF7D
:10247000FFFFFFFFFFFFFFFFFFFFFFFFFFFFFFFF6C
:10248000FFFFFFFFFFFFFFFFFFFFFFFFFFFFFFFF5C
:10249000FFFFFFFFFFFFFFFFFFFFFFFFFFFFFFFF4C
:1024A000FFFFFFFFFFFFFFFFFFFFFFFFFFFFFFFF3C
:1024B000FFFFFFFFFFFFFFF7FFFFFFF7FFFFFFF744
:1024C000FFFFFFE7FF000007FF000007FF80000796
:1024D000FFDFFFE7FFDFFFF7FFDFFFF7FFDFFFF7BC
:1024E000FFFFFFFFFFFFFFFFFFFFFFFFFFFFFFFFFC
:1024F000FFFFFFFFFFFFFFFFFFFFFFFFFFFFFFFFEC
:10250000FFFFFFFFFFFFFFFFFFFFFFFFFFFFFFFFDB
:10251000FFFFFFFFFFFFFFFFFFFFFFFFFFFFFFFFCB
:10252000FFFFFFFFFFFFFFFFFFFFFFFFFFFFFFFFBB
:10253000FFE0FE1FFF807E07FF803FC7FF1F1FE7F2
:10254000FF3FCFE7FF7FE7E7FF7FF3E7FF7FF9E795
:10255000FF7FFCE7FF3FFE67FF99FF27FFC1FF8773
:10256000FFE1FFC7FFFFFFFFFFFFFFFFFFFFFFFFD1
:10257000FFFFFFFFFFFFFFFFFFFFFFFFFFFFFFFF6B
:10258000FFFFFFFFFFFFFFFFFFFFFFFFFFFFFFFF5B
:10259000FFFFFFFFFFFFFFFFFFFFFFFFFFFFFFFF4B
:1025A000FFFFFFFFFFFFFFFFFFFFFFFFFFFFFFFF3B
:1025B000FFFFF87FFFE1E01FFF80C00FFF804FCFDC
:1025C000FF1E1FE7FF3F1FF7FF7FBFF7FF7FBFF72C
:1025D000FF7FBFF7FF3FFFE7FF83FE0FFF83FE0F85
:1025E000FFC3FE1FFFFFFFFFFFFFFFFFFFFFFFFF18
:1025F000FFFFFFFFFFFFFFFFFFFFFFFFFFFFFFFFEB
:10260000FFFFFFFFFFFFFFFFFFFFFFFFFFFFFFFFDA
:10261000FFFFFFFFFFFFFFFFFFFFFFFFFFFFFFFFCA
:10262000FFFFFFFFFFFFFFFFFFFFFFFFFFFFFDFBC0
:10263000FFFFFDFBFFFFFDFBFF000003FF000003AA
:10264000FF000003FF800003FFE3FDFBFFF0FDFB45
:10265000FFFC7DFBFFFE1DFFFFFF8DFFFFFFE1FF86
:10266000FFFFF1FFFFFFFDFFFFFFFFFFFFFFFFFF8A
:10267000FFFFFFFFFFFFFFFFFFFFFFFFFFFFFFFF6A
:10268000FFFFFFFFFFFFFFFFFFFFFFFFFFFFFFFF5A
:10269000FFFFFFFFFFFFFFFFFFFFFFFFFFFFFFFF4A
:1026A000FFFFFFFFFFFFFFFFFFFFFFFFFFFFFFFF3A
:1026B000FF3FE07FFF3F801FFF3F000FFF3E3F8F48
:1026C000FF3E7FE7FF3EFFF7FF3EFFF7FF3EFFF7CE
:1026D000FF3E7FF7FF073FF7FF001E67FFF81E0F63
:1026E000FFFFFE1FFFFFFFFFFFFFFFFFFFFFFFFFDB
:1026F000FFFFFFFFFFFFFFFFFFFFFFFFFFFFFFFFEA
:10270000FFFFFFFFFFFFFFFFFFFFFFFFFFFFFFFFD9
:10271000FFFFFFFFFFFFFFFFFFFFFFFFFFFFFFFFC9
:10272000FFFFFFFFFFFFFFFFFFFFFFFFFFFFE07F58
:10273000FFCFC01FFF8F800FFF0F1FCFFF7F3FE72F
:10274000FF7F7FF7FF7F7FF7FF3F7FF7FF3F3FE789
:10275000FF9F9FC7FFC38F0FFFE0001FFFF0003FE9
:10276000FFFE00FFFFFFFFFFFFFFFFFFFFFFFFFF79
:10277000FFFFFFFFFFFFFFFFFFFFFFFFFFFFFFFF69
:10278000FFFFFFFFFFFFFFFFFFFFFFFFFFFFFFFF59
:10279000FFFFFFFFFFFFFFFFFFFFFFFFFFFFFFFF49
:1027A000FFFFFFFFFFFFFFFFFFFFFFFFFFFFFFFF39
:1027B000FF3FFFFFFF1FFFFFFF07FFFFFF21FFFF9F
:1027C000FF387FFFFF3E0FFFFF3F8007FF3FF0070F
:1027D000FF3FFE07FF1FFFFFFF0FFFFFFF03FFFF8E
:1027E000FFC3FFFFFFFFFFFFFFFFFFFFFFFFFFFF35
:1027F000FFFFFFFFFFFFFFFFFFFFFFFFFFFFFFFFE9
:10280000FFFFFFFFFFFFFFFFFFFFFFFFFFFFFFFFD8
:10281000FFFFFFFFFFFFFFFFFFFFFFFFFFFFFFFFC8
:10282000FFFFFFFFFFFFFFFFFFFFFFFFFFFFFFFFB8
:10283000FFE1F83FFFC0F01FFF80600FFF1E03CFD6
:10284000FF3F87E7FF7F8FF7FF7F9FF7FF7F1FF730
:10285000FF3E1FF7FF1C0FE7FF8047CFFFC0E00FD1
:10286000FFE1F01FFFFFF83FFFFFFFFFFFFFFFFF4C
:10287000FFFFFFFFFFFFFFFFFFFFFFFFFFFFFFFF68
:10288000FFFFFFFFFFFFFFFFFFFFFFFFFFFFFFFF58
:10289000FFFFFFFFFFFFFFFFFFFFFFFFFFFFFFFF48
:1028A000FFFFFFFFFFFFFFFFFFFFFFFFFFFFFFFF38
:1028B000FFF803FFFFE0007FFFC0003FFF8F8C1F8A
:1028C000FF3FCF8FFF7FE7C7FF7FF7E7FF7FF7F778
:1028D000FF7FF7F7FF3FE7F7FF8FC787FF800F8F77
:1028E000FFC01F8FFFF03FFFFFFFFFFFFFFFFFFF56
:1028F000FFFFFFFFFFFFFFFFFFFFFFFFFFFFFFFFE8
:10290000FFFFFFFFFFFFFFFFFFFFFFFFFFFFFFFFD7
:10291000FFFFFFFFFFFFFFFFFFFFFFFFFFFFFFFFC7
:10292000FFFFFFFFFFFFFFFFFFFFFFFFFFFFFFFFB7
:10293000FFFFFFFFFFFFFFFFFFFFFFFFFFFFFFFFA7
:10294000FFFFFFFFFFFFFFFFFFFFFFFFFFFFFFFF97
:10295000FFFFFFFFFFFFFFFFFFFFFFFFFFFFFFFF87
:10296000FFFFFFFFFFFFFFFFFFFFFFFFFFFFFFFF77
:10297000FFFFFFFFFFFFFFFFFFFFFFFFFFFFFFFF67
:10298000FFFFFFFFFFFFFFFFFFFFFFFFFFFFFFFF57
:10299000FFFFFFFFFFFFFFFFFFFFFFFFFFFFFFFF47
:1029A000FFFFFFFFFFFFFFFFFFFFFFFFFFFFFFFF37
:1029B000FFFFFFFFFFFFFFFFFFFFFFFFFFFFFFFF27
:1029C000FFFFFFFFFFFFFFFFFFFFFFFFFFFFFFFF17
:1029D000FFFFFFFFFFFFFFFFFFFFFFFFFFFFFFFF07
:1029E000FFFFFFFFFFC3FFFFFFFFFFFFFFFFFFFF33
:1029F000FFFFFFFFFFFFFFFFFFFFFFFFFFFFFFFFE7
:102A0000FFFFFFC3FFFFFFFFFFFFFFFFFFFFFFFF12
:102A1000FFFFFFFFFFFFFFFFFFFFFFFFFFFFFFFFC6
:102A2000FFC3FFFFFFFFFFFFFFFFFFFFFFFFFFFFF2
:102A3000FFFFFFFFFFFFFFFFFFFFFFFFFFFFFFC3E2
:102A4000FFFFFFFFFFFFFFFFFFFFFFFFFFFFFFFF96
:102A5000FFFFFFFFFFFFFFFFFFFFFFFFFFC3FFFFC2
:102A6000FFFFFFFFFFFFFFFFFFFFFFFFFFFFFFFF76
:102A7000FFFFFFFFFFFFFFFFFFFFFFC3FFFFFFFFA2
:102A8000FFFFFFFFFFFFFFFFFFFFFFFFFFFFFFFF56
:102A9000FFFFFFFFFFFFFFFFFFC3FFFFFFFFFFFF82
:102AA000FFFFFFFFFFFFFFFFFFFFFFFFFFFFFFFF36
:102AB000FFFFFFFFFFFFFFC3FFFFFFFFFFFFFFFF62
:102AC000FFFFFFFFFFFFFFFFFFFFFFFFFFFFFFFF16
:102AD000FFFFFFFFFFC3FFFFFFFFFFFFFFFFFFFF42
:102AE000FFFFFFFFFFFFFFFFFFFFFFFFFFFFFFFFF6
:102AF000FFFFFFC3FFFFFFFFFFFFFFFFFFFFFFFF22
:102B0000FFFFFFFFFFFFFFFFFFFFFFFFFFFFFFFFD5
:102B1000FFC3FFFFFFFFFFFFFFFFFFFFFFFFFFFF01
:102B2000FFFFFFFFFFFFFFFFFFFFFFFFFFFFFFC3F1
:102B3000FFFFFFFFFFFFFFFFFFFFFFFFFFFFFFFFA5
:102B4000FFFFFFFFFFFFFFFFFFFFFFFFFFC3FFFFD1
:102B5000FFFFFFFFFFFFFFFFFFFFFFFFFFFFFFFF85
:102B6000FFFFFFFFFFFFFFFFFFFFFFC3FFFFFFFFB1
:102B7000FFFFFFFFFFFFFFFFFFFFFFFFFFFFFFFF65
:102B8000FFFFFFFFFFFFFFFFFFC3FFFFFFFFFFFF91
:102B9000FFFFFFFFFFFFFFFFFFFFFFFFFFFFFFFF45
:102BA000FFFFFFFFFFFFFFC3FFFFFFFFFFFFFFFF71
:102BB000FFFFFFFFFFFFFFFFFFFFFFFFFFFFFFFF25
:102BC000FFFFFFFFFFC3FFFFFFFFFFFFFFFFFFFF51
:102BD000FFFFFFFFFFFFFFFFFFFFFFFFFFFFFFFF05
:102BE000FFFFFFC3FFFFFFFFFFFFFFFFFFFFFFFF31
:102BF000FFFFFFFFFFFFFFFFFFFFFFFFFFFFFFFFE5
:102C0000FFC3FFFFE7FFBFFFFFFFFFFFFFFFFFFF68
:102C1000FFFFFFFFFFFFFFFFFFFFFFFFFFFFFFC300
:102C2000FFFFE7FF9FFFFFFFFFFFFFFFFFFFFFFF2C
:102C3000FFFFFFFFFFFFFFFFFFFFFFFFFFC3FFCF10
:102C4000E7FF9FFFFFFFFFFFFFFFFFFFFFFFFFFF0C
:102C5000FFFFFFFFFFFFFFFFFFFFFFC3FFCFE7FF08
:102C60009FFFFFFFFFFFFFFDFFFFFFFFFFFFFFFFD6
:102C7000FFFFFFFFFFFFFFFFFFC3FFCFE7FF9FFF48
:102C8000FFFFFF7FBBFCFFFFFFFFFFFFFFFFFFFF1B
:102C9000FFFFFFFFFFFFFFC3FFE7E7FF9FFFFFFF10
:102CA000FE3F11F8FFF9FFEFFFFFFFFFFFFFFFFF00
:102CB000FFFFFFFFFFC3FFE7E0009FFFFFFFFF3FB6
:102CC00038F9FFF9FFE7FFFFFFFFFFFFFFFFFFFFFF
:102CD000FFFFFFC3FFE7E0009FFFFFFFFF9E3C7188
:102CE000F3F9FFE7FFFFFFFFFFFFFFFFFFFFFFFF1E
:102CF000FFC3FFE7E7FF9FFFFFFFFF8C7EE3F3F9D2
:102D0000FFE7FFFFFFFFFFFFFFFFFFFFFFFFFFC327
:102D1000FFE7E7FF9FFFFFFFFFDCFFC7F3F9FFE7D8
:102D2000FFFFFFFFFFFFFFFFFFFFFFFFFFC3FFE30B
:102D3000E7FF9FFFFFFFFFF8FF8FF9F9FFE7FFFFB6
:102D4000FFFFFFFFFFFFFFFFFFFFFFC3FFF3E7FFF3
:102D50009FFFFFFFFFF9FE1FF9F80027FFFFFFFFAE
:102D6000FFFFFFFFFFFFFFFFFFC3FFF3E7FF9FFF33
:102D7000FFFFFC03807FF9F80027FFFFFFFFFFFF45
:102D8000FFFFFFFFFFFFFFC3FFF3E7FF9FFFFFFF13
:102D9000FC03803FF9F9FFE7FFFFFFFFFFFFFFFFA5
:102DA000FFFFFFFFFFC3FFF0003F9FFFFFFFFFE1BB
:102DB000FE1FF9F9FFE7FFFFFFFFFFFFFFFFFFFF28
:102DC000FFFFFFC3FFF000079FFFFFFFFFF8FF8734
:102DD000F8F9FFE7FFFFFFFFFFFFFFFFFFFFFFFF28
:102DE000FFC3FFFFFF819FFFFFFFFFFC7FE7FCF9B1
:102DF000FFE7FFFFFFFFFFFFFFFFFFFFFFFFFFC337
:102E0000FFFFFFF09FFFFFFFFFDE3EF3FCF9FFE750
:102E1000FFFFFFFFFFFFFFFFFFFFFFFFFFC3FFFFFE
:102E2000FFFD3FFFFFFFFF8F3871FCF9FFE7FFFF5A
:102E3000FFFFFFFFFFFFFFFFFFFFFFC3FFFDFFFFE0
:102E40003FFFFFFFFF1F10F9FC000FE7FFFFFFFF31
:102E5000FFFFFFFFFFFFFFFFFFC3FFF8FFFE7FFF46
:102E6000FFFFFE3F9BF8FC0001E7FFFFFFFFFFFFB6
:102E7000FFFFFFFFFFFFFFC3FFE1E000FFFFFFFFDA
:102E8000FF7FBFFCFFFFE067FFFFFFFFFFFFFFFFCC
:102E9000FFFFFFFFFFC3FFC7E000FFFFFFFFFFDFF4
:102EA000FF1DFFFFFC27FFFFFFFFFFFFFFFFFFFFEF
:102EB000FFFFFFC3FF8FE7FC7FFFFFFFFF8FFF8F49
:102EC000FFFFFF4FFFFFFFFFFFFFFFFFFFFFFFFFC2
:102ED000FFC3FFDFE7FE3FFFFFFFFF1FFFC7FF7FCF
:102EE000FFCFFFFFFFFFFFFFFFFFFFFFFFFFFFC35E
:102EF000FFFFE7FF3FFFFFFFFE3E0003FE3FFF9F98
:102F0000FFFFFFFFFFFFFFFFFFFFFFFFFFC3FFFF0D
:102F1000FFFFFFFFFFFFFC7E0001F878003FFFFF8F
:102F2000FFFFFFFFFFFFFFFFFFFFFFC3FFFFE73FC5
:102F3000BFFFFFFFFEFE7FF3F1F8003FFFFFFFFF43
:102F4000FFFFFFFFFFFFFFFFFFC3FFF9E73F9FFF0B
:102F5000FFFFFFFE7FFFE3F9FF1FFFFFFFFFFFFF04
:102F6000FFFFFFFFFFFFFFC3FFF9E73F3FFFFFFF4B
:102F7000FFFE7FFFF7F9FF8FFFFFFFFFFFFFFFFF60
:102F8000FFFFFFFFFFC3FFF9673F3FFFFFFFFFFFAB
:102F9000FFFFFFF9FFCFFFFFFFFFFFFFFFFFFFFF77
:102FA000FFFFFFC3FFF8670E3FFFFFFFFF9FFFFB21
:102FB000FFFFFFFFFFFFFFFFFFFFFFFFFFFFFFFF21
:102FC000FFC3FFF927067FFFFFFFFF9FDFF9FFF930
:102FD000CFEFFFFFFFFFFFFFFFFFFFFFFFFFFFC37D
:102FE000FFF987227FFFFFFFFF9F8FF9FE79CFE771
:102FF000FFFFFFFFFFFFFFFFFFFFFFFFFFC3FFF12B
:10300000C738FFFFFFFFFF9F1FF3FE79CFCFFFFF02
:10301000FFFFFFFFFFFFFFFFFFFFFFC3FFE1E73CF5
:10302000FFFFFFFFFF9E3FF3FE59CFCFFFFFFFFFE4
:10303000FFFFFFFFFFFFFFFFFFC3FFC1E53CFFFFF7
:10304000FFFFFF9C7FF3FE19C38FFFFFFFFFFFFF12
:10305000FFFFFFFFFFFFFFC3FFE9E0387FFFFFFF38
:10306000FF98BFE7FE49C19FFFFFFFFFFFFFFFFF84
:10307000FFFFFFFFFFC3FFF9A4387FFFFFFFFF99AA
:103080000FE7FE61C89FFFFFFFFFFFFFFFFFFFFF8E
:10309000FFFFFFC3FFF907133FFFFFFFFF9383E726
:1030A000FC71CE3FFFFFFFFFFFFFFFFFFFFFFFFFB2
:1030B000FFC3FFF827033FFFFFFFFF9FE1CFF87932
:1030C000CF3FFFFFFFFFFFFFFFFFFFFFFFFFFFC33C
:1030D000FFF967273FFFFFFFFF9FF88FF0794F3F12
:1030E000FFFFFFFFFFFFFFFFFFFFFFFFFFC3FFF932
:1030F000E7379FFFFFFFFF1FFE1FFA780E1FFFFF3E
:10310000FFFFFFFFFFFFFFFFFFFFFFC3FFF9E73FE9
:103110009FFFFFFFFE1FFF3FFE690E1FFFFFFFFF28
:10312000FFFFFFFFFFFFFFFFFFC3FFFFE73F9FFF23
:10313000FFFFFC1FFE1FFE41C4CFFFFFFFFFFFFF8D
:10314000FFFFFFFFFFFFFFC3FFFE793FBFFFFFFF52
:10315000FF9FF89FFE09C0CFFFFFFFFFFFFFFFFFAC
:10316000FFFFFFFFFFC3FFFE7DFFFFFFFFFFFF9F8E
:10317000F1CFFE59C9CFFFFFFFFFFFFFFFFFFFFFAA
:10318000FFFFFFC3FFFE7CFFFFFFFFFFFF9BC3CFDF
:10319000FE79CDE7FFFFFFFFFFFFFFFFFFFFFFFF10
:1031A000FFC3FFC000003FFFFFFFFF9187E7FE79ED
:1031B000CFE7FFFFFFFFFFFFFFFFFFFFFFFFFFC3A3
:1031C000FFC000001FFFFFFFFF98DFE7FFF9CFE719
:1031D000FFFFFFFFFFFFFFFFFFFFFFFFFFC3FFFE3C
:1031E0007E7F9FFFFFFFFF9C7FE7FF9E4FEFFFFF6C
:1031F000FFFFFFFFFFFFFFFFFFFFFFC3FFFE7E7F1D
:103200009FFFFFFFFF9E3FF3FF9F7FFFFFFFFFFF3B
:10321000FFFFFFFFFFFFFFFFFFC3FFFE7F3F9FFF9B
:10322000FFFFFF9F1FF3FF9F3FFFFFFFFFFFFFFF1A
:10323000FFFFFFFFFFFFFFC3FFFE7F3F9FFFFFFF7B
:10324000FF9F8FF3F000000FFFFFFFFFFFFFFFFF67
:10325000FFFFFFFFFFC3FFFFFFFFFFFFFFFFFF9F1A
:10326000C7F9F0000007FFFFFFFFFFFFFFFFFFFFB1
:10327000FFFFFFC3FFFFFFFFFFFFFFFFFF9FEFF910
:10328000FF9F9FE7FFFFFFFFFFFFFFFFFFFFFFFF26
:10329000FFC3FFFFFFFFFFFFFFFFFF9FFFFBFF9F3E
:1032A0009FE7FFFFFFFFFFFFFFFFFFFFFFFFFFC3E2
:1032B000FFFFFFFFFFFFFFFFFFFFFFFFFF9FCFE7C6
:1032C000FFFFFFFFFFFFFFFFFFFFFFFFFFC3FFFF4A
:1032D000FFFFFFFFFFFFFFFFFFFFFF9FCFE7FFFFA6
:1032E000FFFFFFFFFFFFFFFFFFFFFFC3FFFFFFFF2A
:1032F000FFFFFFFFFFFFFFFFFFFFFFFFFFFFFFFFDE
:10330000FFFFFFFFFFFFFFFFFFC3FFFFFFFFFFFF09
:10331000FFFFFFFFFFFFFFFFFFFFFFFFFFFFFFFFBD
:10332000FFFFFFFFFFFFFFC3FFFFFFFFFFFFFFFFE9
:10333000FFFFFFFFFFFFFFFFFFFFFFFFFFFFFFFF9D
:10334000FFFFFFFFFFC3FFFFFFFFFFFFFFFFFFFFC9
:10335000FFFFFFFFFFFFFFFFFFFFFFFFFFFFFFFF7D
:10336000FFFFFFC3FFFFFFFFFFFFFFFFFFFFFFFFA9
:10337000FFFFFFFFFFFFFFFFFFFFFFFFFFFFFFFF5D
:10338000FFC3FFFFFFFFFFFFFFFFFFFFFFFFFFFF89
:10339000FFFFFFFFFFFFFFFFFFFFFFFFFFFFFFC379
:1033A000FFFFFFFFFFFFFFFFFFFFFFFFFFFFFFFF2D
:1033B000FFFFFFFFFFFFFFFFFFFFFFFFFFC3FFFF59
:1033C000FFFFFFFFFFFFFFFFFFFFFFFFFFFFFFFF0D
:1033D000FFFFFFFFFFFFFFFFFFFFFFC3FFFFFFFF39
:1033E000FFFFFFFFFFFFFFFFFFFFFFFFFFFFFFFFED
:1033F000FFFFFFFFFFFFFFFFFFC3FFFFFFFFFFFF19
:10340000FFFFFFFFFFFFFFFFFFFFFFFFFFFFFFFFCC
:10341000FFFFFFFFFFFFFFC3FFFFFFFFFFFFFFFFF8
:10342000FFFFFFFFFFFFFFFFFFFFFFFFFFFFFFFFAC
:10343000FFFFFFFFFFC3FFFFFFFFFFFFFFFFFFFFD8
:10344000FFFFFFFFFFFFFFFFFFFFFFFFFFFFFFFF8C
:10345000FFFFFFC3FFFFFFFFFFFFFFFFFFFFFFFFB8
:10346000FFFFFFFFFFFFFFFFFFFFFFFFFFFFFFFF6C
:10347000FFC3FFFFFFFFFFFFFFFFFFFFFFFFFFFF98
:10348000FFFFFFFFFFFFFFFFFFFFFFFFFFFFFFC388
:10349000FFFFFFF9FFFFFFFFFFFFFFFFFFFFFFFF42
:1034A000FFFFFFFFFFFFFFFFFFFFFFFFFFC3FFFF68
:1034B000FFF83FFFFFFFFFFFFFFFFFFFFFFFFFFFE3
:1034C000FFFFFFFFFFFFFFFFFFFFFFC3FFFFFFF84F
:1034D0000FFFFFFFFFFFFFFFFFFFFFFFFFFFFFFFEC
:1034E000FFFFFFFFFFFFFFFFFFC3FFFFFFFFCFFF58
:1034F000FFFFFFFFFF9FFFFFFFFFFFFFFFFFFFFF3C
:10350000FFFFFFFFFFFFFFC3FFFFFFFFFFFFFFFF07
:10351000FFFFFF83FFFFFFFFFFFFFFFFFFFFFFFF37
:10352000FFFFFFFFFFC3FFFFFFFFFFFFFFFFFFFFE7
:10353000FF80FFFFFE7FFFFFFFFFFFFFFFFFFFFF9B
:10354000FFFFFFC3FFFFFFFFFFFFFFFFFFFFFFFCCA
:10355000FFFFFE0FFFFFFFFFFFFFFFFFFFFFFFFF6C
:10356000FFC3FFFFFFFFFFFFFFFFFFFFFFFFFFFFA7
:10357000FE03FFFFFFFFFFFFFFFFFFFFFFFFFFC394
:10358000FFFFE7FFBFFFFFFFFFFFFFFFFFFFFFF3AF
:10359000FFFFFFFFFFFFFFFFFFFFFFFFFFC3FFFF77
:1035A000E7FF9FFFFFFFFFFFFFFFFFFFFFFFFFFFA3
:1035B000FFFFFFFFFFFFFFFFFFFFFFC3FFCFE7FF9F
:1035C0009FFFFFFFFFFFFFFFFFFFFFFFFFFFFFFF6B
:1035D000FFFFFFFFFFFFFFFFFFC3FFCFE7FF9FFFDF
:1035E000FFFFFFFEFFFFFFFFFFFFFFFFFFFFFFFFEC
:1035F000FFFFFFFFFFFFFFC3FFCFE7FF9FFFFFFFBF
:10360000FFFC7FFFFFFFFFFFFFFFFFFFFFFFFFFF4D
:10361000FFFFFFFFFFC3FFE7E7FF9FFFFFFFFFFC89
:10362000F001FFFFFFDFFFFFFFFFFFFFFFFFFFFFD7
:10363000FFFFFFC3FFE7E0009FFFFFFFFFF9F0017F
:10364000FFFFFF8FFFFFFFFFFFFFFFFFFFFFFFFFFA
:10365000FFC3FFE7E0009FFFFFFFFFF273E7FFFFFD
:10366000FF1FFFFFFFFFFFFFFFFFFFFFFFFFFFC386
:10367000FFE7E7FF9FFFFFFFFFE673E7F8007E3FEE
:10368000FFFFFFFFFFFFFFFFFFFFFFFFFFC3FFE79E
:10369000E7FF9FFFFFFFFF8E73E7F800047FFFFF48
:1036A000FFFFFFFFFFFFFFFFFFFFFFC3FFE3E7FF9A
:1036B0009FFFFFFFFF1E73E7FFFF00FFFFFFFFFFFE
:1036C000FFFFFFFFFFFFFFFFFFC3FFF3E7FF9FFFCA
:1036D000FFFFFC7E73E7FFFFF07FFFFFFFFFFFFFB1
:1036E000FFFFFFFFFFFFFFC3FFF3E7FF9FFFFFFFAA
:1036F000FC7E73E7FFFFFC3FFFFFFFFFFFFFFFFFC5
:10370000FFFFFFFFFFC3FFF3E7FF9FFFFFFFFE3E4B
:1037100073E7FFDFFF1FFFFFFFFFFFFFFFFFFFFF5D
:10372000FFFFFFC3FFF0003F9FFFFFFFFF1E73E798
:10373000FF0FCF8FFFFFFFFFFFFFFFFFFFFFFFFF29
:10374000FFC3FFF000079FFFFFFFFF8E73E7FC3F03
:10375000E7CFFFFFFFFFFFFFFFFFFFFFFFFFFFC3FD
:10376000FFFFFF819FFFFFFFFFC673E7F0FFE3C787
:10377000FFFFFFFFFFFFFFFFFFFFFFFFFFC3FFFF95
:10378000FFF09FFFFFFFFFE273E7FBFFF3EFFFFF99
:10379000FFFFFFFFFFFFFFFFFFFFFFC3FFFFFFFD77
:1037A0003FFFFFFFFFF273E7FFFFF9FFFFFFFFFFA0
:1037B000FFFFFFFFFFFFFFFFFFC3FFFDFFFF3FFF17
:1037C000FFFFFFF9F001FFFFF8FFFFFFFFFFFFFF23
:1037D000FFFFFFFFFFFFFFC3FFF8FFFE7FFFFFFFBD
:1037E000FFF8F001FFFFFCFFFFFFFFFFFFFFFFFF00
:1037F000FFFFFFFFFFC3FFE1E000FFFFFFFFFFFC54
:10380000FFFFFE00007FFFFFFFFFFFFFFFFFFFFF47
:10381000FFFFFFC3FFC7E000FFFFFFFFFFBC7FFF0D
:10382000FE00003FFFFFFFFFFFFFFFFFFFFFFFFF67
:10383000FFC3FF8FE7FC7FFFFFFFFF1EFFFFFFFFC0
:10384000FF7FFFFFFFFFFFFFFFFFFFFFFFFFFFC344
:10385000FFDFE7FE3FFFFFFFFE3F79FFF3FFFFFFC4
:10386000FFFFFFFFFFFFFFFFFFFFFFFFFFC3FFFFA4
:10387000E7FF3FFFFFFFFE7E303FF07FFFFFFFFFD0
:10388000FFFFFFFFFFFFFFFFFFFFFFC3FFFFFFFF84
:10389000FFFFFFFFFC7C7C07FC000007FFFFFFFF32
:1038A000FFFFFFFFFFFFFFFFFFC3FFFCFFFE7FFFE8
:1038B000FFFFFEFCFFC1FF800007FFFFFFFFFFFFD0
:1038C000FFFFFFFFFFFFFFC3FFFCFF927FFFFFFF34
:1038D000FFF8FFFBFFF0FFFFFFFFFFFFFFFFFFFF12
:1038E000FFFFFFFFFFC3FFE4FF927FFFFFFFFFFD2E
:1038F000FFFFFFFC3FFFFFFFFFFFFFFFFFFFFFFF9B
:10390000FFFFFFC3FFE4FF927FFFFFFFFFFE73FB9C
:10391000FFFF3FFFFFFFFFFFFFFFFFFFFFFFFFFF77
:10392000FFC3FFE480927FFFFFFFFF9E73F9FFFF5D
:10393000FFFFFFFFFFFFFFFFFFFFFFFFFFFFFFC3D3
:10394000FFE480927FFFFFFFFF9E73F3FFF9FFEF1D
:10395000FFFFFFFFFFFFFFFFFFFFFFFFFFC3FFE4CE
:1039600099927FFFFFFFFF9673F3FFF9FFE7FFFFD9
:10397000FFFFFFFFFFFFFFFFFFFFFFC3FFE4999281
:103980007FFFFFFFFF8670E3F3F9FFE7FFFFFFFF15
:10399000FFFFFFFFFFFFFFFFFFC3FFE499927FFFE1
:1039A000FFFFFF927067F3F9FFE7FFFFFFFFFFFFE5
:1039B000FFFFFFFFFFFFFFC3FFE499001FFFFFFFB3
:1039C000FF987227F3F9FFE7FFFFFFFFFFFFFFFFFD
:1039D000FFFFFFFFFFC3FFE499001FFFFFFFFF1C76
:1039E000738FF9F9FFE7FFFFFFFFFFFFFFFFFFFF07
:1039F000FFFFFFC3FFE499FFFFFFFFFFFE1E73CF32
:103A0000F9F80027FFFFFFFFFFFFFFFFFFFFFFFFAA
:103A1000FFC3FFE499FFFFFFFFFFFC1E53CFF9F840
:103A20000027FFFFFFFFFFFFFFFFFFFFFFFFFFC3B9
:103A3000FF8099FFFFFFFFFFFE9E0387F9F9FFE775
:103A4000FFFFFFFFFFFFFFFFFFFFFFFFFFC3FF8041
:103A500099FFFFFFFFFFFF9A4387F9F9FFE7FFFF99
:103A6000FFFFFFFFFFFFFFFFFFFFFFC3FFE4990022
:103A70001FFFFFFFFF907133F8F9FFE7FFFFFFFF24
:103A8000FFFFFFFFFFFFFFFFFFC3FFE499001FFFE2
:103A9000FFFFFF827033FCF9FFE7FFFFFFFFFFFF2F
:103AA000FFFFFFFFFFFFFFC3FFE499927FFFFFFFD0
:103AB000FF967273FCF9FFE7FFFFFFFFFFFFFFFFB9
:103AC000FFFFFFFFFFC3FFE499927FFFFFFFFF9E11
:103AD0007379FCF9FFE7FFFFFFFFFFFFFFFFFFFF29
:103AE000FFFFFFC3FFE499927FFFFFFFFF9E73F983
:103AF000FC000FE7FFFFFFFFFFFFFFFFFFFFFFFFE0
:103B0000FFC3FF8499927FFFFFFFFFFE73F9FC0064
:103B100001E7FFFFFFFFFFFFFFFFFFFFFFFFFFC307
:103B2000FFC480927FFFFFFFFFE793FBFFFFE0678B
:103B3000FFFFFFFFFFFFFFFFFFFFFFFFFFC3FFE0F0
:103B400080927FFFFFFFFFE7DFFFFFFFFC27FFFF04
:103B5000FFFFFFFFFFFFFFFFFFFFFFC3FFF0FF922D
:103B60007FFFFFFFFFE7CFFFFFFFFF4FFFFFFFFFDD
:103B7000FFFFFFFFFFFFFFFFFFC3FFF4FF927FFF89
:103B8000FFFFFC000003FF7FFFCFFFFFFFFFFFFFF2
:103B9000FFFFFFFFFFFFFFC3FFFCFF927FFFFFFF61
:103BA000FC000001FE3FFF9FFFFFFFFFFFFFFFFF45
:103BB000FFFFFFFFFFC3FFFCFFFE7FFFFFFFFFE7ED
:103BC000E7F9F878003FFFFFFFFFFFFFFFFFFFFF70
:103BD000FFFFFFC3FFFFFFFFFFFFFFFFFFE7E7F967
:103BE000F1F8003FFFFFFFFFFFFFFFFFFFFFFFFFB9
:103BF000FFC3FFFFFFFFFFFFFFFFFFE7F3F9E3F95D
:103C0000FF1FFFFFFFFFFFFFFFFFFFFFFFFFFFC3E0
:103C1000FFFFFFFFFFFFFFFFFFE7F3F9F7F9FF8F5C
:103C2000FFFFFFFFFFFFFFFFFFFFFFFFFFC3FFFFE0
:103C3000FFFFFFFFFFFFFFFFFFFFFFF9FFCFFFFFCA
:103C4000FFFFFFFFFFFFFFFFFFFFFFC3FFFFFFFFC0
:103C5000FFFFFFFFFFFFFFFFFFFFFFFFFFFFFFFF74
:103C6000FFFFFFFFFFFFFFFFFFC3FFFFFFFFFFFFA0
:103C7000FFFFFFFFFFFFFFFFFFFFFFFFFFFFFFFF54
:103C8000FFFFFFFFFFFFFFC3FFFFFFFFFFFFFFFF80
:103C9000FFFFFFFFFFFFFFFFFFFFFFFFFFFFFFFF34
:103CA000FFFFFFFFFFC3FFFFFFFFFFFFFFFFFFFF60
:103CB000FFFFFFFFFFFFFFFFFFFFFFFFFFFFFFFF14
:103CC000FFFFFFC3FFFFFFFFFFFFFFFFFFFFFFFF40
:103CD000FFFFFFFFFFFFFFFFFFFFFFFFFFFFFFFFF4
:103CE000FFC3FFFFFFFFFFFFFFFFFFFFFFFFFFFF20
:103CF000FFFFFFFFFFFFFFFFFFFFFFF80003FFC312
:103D0000FFFFFFFFFFFFFFFFFFFFFFFFFFFFFFFFC3
:103D1000FFFFFFFFFFFFFFFFFFE00003FFC3FFFF09
:103D2000FFFFFFFFFFFFFFFFFFFFFFFFFFFFFFFFA3
:103D3000FFFFFFFFFFFFFFC00003FFC3FFFFFFFF09
:103D4000FFFFFFFFFFFFFFFFFFFFFFFFFFFFFFFF83
:103D5000FFFFFFFFFF800003FFC3FFFFFFFFFFFF29
:103D6000FFFFFFFFFFFFFFFFFFFFFFFFFFFFFFFF63
:103D7000FFFFFF03FFFFFFC3FFFFFFFFFFFFFFFF8B
:103D8000FFFFFFFFFFFFFFFFFFFFFFFFFFFFFFFF43
:103D9000FF0FFFFFFFC3FFFFFFFFFFFFFFFFFFFF5F
:103DA000FFFFFFFFFFFFFFFFFFFFFFFFFFFFFF0F13
:103DB000FFFFFFC3FFFFFFFFFFFFFFFFFFFFFFFF4F
:103DC000FFFFFFFFFFFFFFFFFFFFFFFFFF1FFFFFE3
:103DD000FFC3FFFFFFFFFFFFFFFFFFFFFFFFFFFF2F
:103DE000FFFFFFFFFFFFFFFFFFFFFF1FFFFFFFC3FF
:103DF000FFFFFFFFFFFFFFFFFFFFFFFFFFFFFFFFD3
:103E0000FFFFFFFFFFFFFFFFFF1FFFFFFFC3FFFFDE
:103E10008FF9FFFFFFFFFFFFFFFFFFFFFFFFFFFF28
:103E2000FFFFFFFFFFFFFF1FFFFFFFC3FFFF8FF835
:103E30003FFFFFFFFFFFFFFFFFFFFFFFFFFFFFFF52
:103E4000FFFFFFFFFF8FFFFFFFC3FFFF8FF80FFF95
:103E5000FFFFFFFFFFFFFFFFFFFFFFFFFFFFFFFF72
:103E6000FFFFFF8FFFFFFFC3FFFFFFFFCFFFFFFF3E
:103E7000FFF8FF9FFFFFFFFFFFFFFFFFFFFFFFFFB9
:103E8000FFC7FFFFFFC3FFFFFFFFFFFFFFFFFFF8BD
:103E9000FF83FFFFFFFFFFFFFFFFFFFFFFFFFFE1CC
:103EA000FFFFFFC3FFFFFFFFFFFFFFFFFFF8FF80E4
:103EB000FFE3FE7FFFFFFFFFFFFFFFFC00000003AB
:103EC000FFC3FFFFFFFFFFFFFFFFFFFFFFFCFFE35D
:103ED000FE0FFFFFFFFFFFFFFFFC00000003FFC31B
:103EE000FFFFFFFFFFFFFFFFFFFFFFFFFFE3FE03FB
:103EF000FFFFFFFFFFFFFFFC00000003FFC3FFFF0A
:103F0000FFFFFFFFFFFFFFFFFFFFFFFFFFF3FFFFCD
:103F1000FFFFFFFFFFFC00000003FFC3FFF39FFF55
:103F2000BFFFFFFFFFFFFFFFFFFFFFFFFFFFFFFFE1
:103F3000FFFFFFFFFFFFFFFFFFC3FFF39FFF9FFF99
:103F4000FFFFFFFFFFFFFFFFFFFFFFFFFFFFFFFF81
:103F5000FFFFFFFFFFFFFFC3FFF39FFF9FFFFFFF79
:103F6000FFFE7FFBFFFFFFFFFFFFFFFFFFFFFFFFE6
:103F7000FFFFFFFFFFC3FFF39F9F9FFFFFFFFFFEBA
:103F80007FF9FFFFFFFFFFFFFFFFFFFFFFFFFFFFC7
:103F9000FFFFFFC3FFF39F8FBFFFFFFBFCFE7FF917
:103FA000FFFFFFCFFFFFFFFFFFFFFFFFFFFFFFFF51
:103FB000FFC3FFF200873FF9FFF1FCFE7FF9FFFF2F
:103FC000F9CFFFFFFFFFFFFFFFFFFFC7FF8FFFC31B
:103FD000FFF200933FF9FFF3FCFE7FF9F80039CFC1
:103FE000FFFFFFFFFFFFFFFFFF8FFFC7FFC3FFF3D1
:103FF00099933FF99FE3FE7E7FF9F80039CFFFFFE9
:10400000FFFFFFFFFFFFFF1FFFE7FFC3FFF39998CD
:104010007FD9CFC7FE7E0009F9CE79CFFFFFFFFF22
:10402000FFFFFFFFFF1FFFE3FFC3FFE3999C7F89B3
:10403000E78FFE7E0009F9CE79CFFFFFFFFFFFFF7C
:10404000FFFFFF1FFFE3FFC3FFC3999CFF99F31F0F
:10405000FE7E7FF9F9CE79CFFFFFFFFFFFFFFFFF65
:10406000FF1FFFE3FFC3FF93999C7FB9F03FFE7EE4
:104070007FF9F9CE79CFFFFFFFFFFFFFFFFFFF1FA3
:10408000FFE3FFC3FFF399987F39F87FFE3E7FF986
:10409000F800000FFFFFFFFFFFFFFFFFFF1FFFE321
:1040A000FFC3FFF399987F79F8FFFF3E7FF9F8008F
:1040B000000FFFFFFFFFFFFFFFFFFF0FFFC3FFC367
:1040C000FFF200933FF9E3FFFF3E7FF9F9CE79CF8E
:1040D000FFFFFFFFFFFFFFFFFF87FFC7FFC3FFF2E9
:1040E00000873FF987FFFF3E7FF9F9CE79CFFFFFC9
:1040F000FFFFFFFFFFFFFF83FF07FFC3FFF39F8F5C
:104100003F000000FF0003F9F9CE79CFFFFFFFFF6A
:10411000FFFFFFFFFFC0FE0FFFC3FFF39F9F3F00A6
:1041200000007F000079F9CE79CFFFFFFFFFFFFF8E
:10413000FFFFFFE0000FFFC3FFF39F9F9FF9FCFC11
:104140007FFFF819F80039CFFFFFFFFFFFFFFFFFE8
:10415000FFF0001FFFC3FFF39F9F9FF9FE7E7FFFCD
:10416000FF09F80039CFFFFFFFFFFFFFFFFFFFF858
:10417000007FFFC3FFF3FFFF9FF9FE7E7FFFFFD3AA
:10418000FFFFF9CFFFFFFFFFFFFFFFFFFFFF01FF73
:10419000FFC3FFF0000FBFF9FF3E7FDFFFF3F9FC25
:1041A000FCCFFFFFFFFFFFFFFFFFFFFFFFFFFFC38E
:1041B000FFF00001FFF9F73E7F8FFFE7F9FCFCFFFE
:1041C000FFFFFFFFFFFFFFFFFFFFFFFFFFC3FFFF3B
:1041D000FFE03FF9E39E7E1E000FF9FCFE7FFFFF2C
:1041E000FFFFFFFFFFFFFFFFFFFFFFC3FFFFFFFE1C
:1041F0001FF9C79FFC7E000FF9FCFE7FFFFFFFFF4A
:10420000FFFFFFFFFFFFFFFFFFC3FFFFFFFFBFF940
:104210008FCFF8FE7FC7F800007FFFFFFFFFFFFF93
:10422000FFFFFFFFFFFFFFC3FFFFFEFDFFF91FCFF3
:10423000FDFE7FE3F800003FFFFFFFFFFFFFFFFFF2
:10424000FFF80003FFC3FFFCFE78FFF9BFE7FFFEA6
:104250007FF3F9FCFF3FFFFFFFFFFFFFFFFFFFE0E2
:104260000003FFC3FFFCFC71FFF9FFE7FFFFFFFF47
:10427000F9FCFF3FFFFFFFFFFFFFFFFFFFC0000351
:10428000FFC3FFFCFCE3FFF9FFF3FFFFFFFFF9FCB7
:10429000FF9FFFFFFFFFFFFFFFFFFF800003FFC344
:1042A000FFFCFCC7FFFFFFF7FF9FFFFFF9FFFFBF0A
:1042B000FFFFFFFFFFFFFFFFFF071F1FFFC3FFFC05
:1042C000F9EFFFFFFE7FFF9FC001FFFFFFFFFFFF32
:1042D000FFFFFFFFFFFFFF0F1F8FFFC3FFFCF9F181
:1042E000FF9FFE7FFF9FC001FFFF7FEFFFFFFFFFEC
:1042F000FFFFFFFFFF1F9FC7FFC3FFFCF3E07F9C93
:10430000027EFF9FCFF3FFFE3FE7FFFFFFFFFFFFB0
:10431000FFFFFF1F8FE7FFC3FFFCE7FC3F9C027E10
:104320007F9FCFF3FFFC7FE7FFFFFFFFFFFFFFFF54
:10433000FF1F8FE3FFC3FFFCC7FF3F9CE67E7F9E0E
:10434000CFF3FFF8FFE7FFFFFFFFFFFFFFFFFF1FB8
:104350008FE3FFC3FFFC8FEF3F9CE67CFF9C4FF396
:10436000FFF9FFE7FFFFFFFFFFFFFFFFFF1F8FE3E7
:10437000FFC3FFFC1FC73F9CE63CFF98C003FFF153
:10438000FFE7FFFFFFFFFFFFFFFFFF8F87C3FFC3B5
:10439000FFC07DCF3F9CE61CFF99C003FFE3FFE712
:1043A000FFFFFFFFFFFFFFFFFF8FC383FFC3FFC0C0
:1043B000389F3F9CE609FF93CFF3FFF7FFE7FFFF2E
:1043C000FFFFFFFFFFFFFFC7C007FFC3FFFC191F71
:1043D0003F800641F99FCFF3F0000027FFFFFFFF6A
:1043E000FFFFFFFFFFE3E007FFC3FFFC833F3F80CA
:1043F0000661F81FCFF3F0000027FFFFFFFFFFFF6C
:10440000FFFFFFFFE00FFFC3FFFCC7FF3F9CE6710C
:10441000FC0FCFF3FFFFFFE7FFFFFFFFFFFFFFFFF3
:10442000FFFFF81FFFC3FFFCE3FF3F9CE671FF8324
:10443000C001FFFFFFEFFFFFFFFFFFFFFFFFFFFFD9
:10444000FFFFFFC3FFFCF3803F9CE671FFE0C0016C
:10445000FFFFFFCFFFFFFFFFFFFFFFFFFFFFFFFF9C
:10446000FFC3FFFCF9807F9CE671FFF87FFFFF83AD
:10447000FFCFFFFFFFFFFFFFFFFFFFFFFFFFFFC3B8
:10448000FFFCF9FFFF800674FFFEFFFFFF803F9FE8
:10449000FFFFFFFFFFFFFFFFFFFFFFFFFFC3FFFC6B
:1044A000FCCFFF800064F8000001FF9E071FFFFFA4
:1044B000FFFFFFFFFFFFFFFE01FFFFC3FFFCFCC389
:1044C000FF9CE464F8000001FF9FC03FFFFFFFFF77
:1044D000FFFFFFFFFFF8007FFFC3FFFCFC60FF9CB6
:1044E000E624FFFFFFFFFF9FF87FFFFFFFFFFFFFB7
:1044F000FFFFFFE0001FFFC3FFFCFE7C7F9CE60E7A
:10450000FFFFFFFFFF9FF87FFFFFFFFFFFFFFFFFA2
:10451000FFC0000FFFC3FFFFFEFEFF9CE64E7FFFC4
:10452000FFFFF19FC03FFFFFFFFFFFFFFFFFFF8186
:10453000FE0FFFC3FFFFFFFFFF9CE66E7F0000073B
:10454000F01E071FFFFFFFFFFFFFFFFFFF87FF8733
:10455000FFC3FFFFFFFFFF9C027E7F000007FE00FE
:104560003FCFFFFFFFFFFFFFFFFFFF8FFFC7FFC32F
:10457000FFFFFFFFFF9C027E7FFFFFFFFFE07FC783
:10458000FFFFFFFFFFFFFFFFFF0FFFC3FFC3FFFFA3
:10459000FFFFFF9FFE7EFFFFFFFFFFFC1FE3FFFF0C
:1045A000FFFFFFFFFFFFFF1FFFE3FFC3FFFFFFFF53
:1045B000FFFFFE7FFFFFFFFFFFFF3FF7FFFFFFFF54
:1045C000FFFFFFFFFF1FFFE3FFC3FFFFFFFFFFFF33
:1045D000FFFFFFFFFFFFFFFFFFFFFFFFFFFFFFFFEB
:1045E000FFFFFF1FFFE3FFC3FFFFFFFFFFFFFFFF13
:1045F000FFFFFFFFFFFFFFFFFFFFFFFFFFFFFFFFCB
:10460000FF1FFFE3FFC3FFFFFFFFFFFFFFFFFFFFF2
:10461000FFFFFFFFFFFFFFFFFFFFFFFFFFFFFF1F8A
:10462000FFE3FFC3FFFFFFFFFFFFFFFFFFFFFFFFF2
:10463000FFFFFFFFFFFFFFFFFFFFFFFFFF0FFFC3B6
:10464000FFC3FFFFFFFFFFFFFFFFFFFFFFFFFFFFB6
:10465000FFFFFFFFFFFFFFFFFFFFFF8FFFC7FFC34E
:10466000FFFFFFFFFFFFFFFFFFFFFFFFFFFFFFFF5A
:10467000FFFFFFFFFFFFFFFFFF83FF87FFC3FFFF7A
:10468000FFFFFFFFFFFFFFFFFFFFFFFFFFFFFFFF3A
:10469000FFFFFFFFFFFFFFC0FE0FFFC3FFFFFFFF96
:1046A000FFFFFFFFFFFFFFFFFFFFFFFFFFFFFFFF1A
:1046B000FFFFFFFFFFC0000FFFC3FFFFFFFFFFFF74
:1046C000FFFFFFFFFFFFFFFFFFFFFFFFFFFFFFFFFA
:1046D000FFFFFFE0001FFFC3FFFFFFFFFFFFFFFF24
:1046E000FFFFFFFFFFFFFFFFFFFFFFFFFFFFFFFFDA
:1046F000FFF8007FFFC3FFFFFFFFFFFFFFFFFFFF8C
:10470000FFFFFFFFFFFFFFFFFFFFFFFFFFFFFFFEBA
:1047100001FFFFC3FFFFFFFFFFFFFFFFFFFFFFFFE3
:10472000FFFFFFFFFFFFFFFFFFFFFFFFFFFFFFFF99
:10473000FFC3FFFFFFFFFFFFFFFFFFFFFFFFFFFFC5
:10474000FFFFFFFFFFFFFFFFFFFFFFFFFFFFFFC3B5
:10475000FFFFFFFFFFFFFFFFFFFFFFFFFFFFFFFF69
:10476000FFFFFFFFFFFFFFFFFF8FFFFFFFC3FFFF05
:10477000FFFFFFFFFFFFFFFFFFFFFFFFFFFFFFFF49
:10478000FFFFFFFFFFFFFF1FFFFFFFC3FFFFFFF95B
:10479000FFFFFFFFFFFFFFFFFFFFFFFFFFFFFFFF29
:1047A000FFFFFFFFFF1FFFFFFFC3FFFFFFF83FFFFC
:1047B000FFFFFFFFFFFFFFFFFFFFFFFFFFFFFFFF09
:1047C000FFFFFF1FFFFFFFC3FFFFFFF80FFFFFFF0C
:1047D000FFFFFFFFFFFFFFFFFFFFFFFFFFFFFFFFE9
:1047E000FF1FFFFFFFC3FFFFFFFFCFFFFFFFFFFF25
:1047F000FF9FFFFFFFFFFFFFFFFFFFFFFFFFFF8F99
:10480000FFFFFFC3FFFFFFFFFFFFFFFFFFFFFF8370
:10481000FFFFFFFFFFFFFFFFFFFFFFFFFFC7FFFFE0
:10482000FFC3FFFFFFFFFFFFFFE7FFFFFF80FFFF6B
:10483000FE7FFFFFFFFFFFFFFFFFFFE1FFFFFFC363
:10484000FFFFFFFFFFFFFFE0FFFFFFFCFFFFFE0F8B
:10485000FFFFFFFFFFFFFFFFFF000003FFC3FFFF9E
:10486000FFFFFFFFFFE03FFFFFFFFFFFFE03FFFF34
:10487000FFFFFFFFFFFFFF000003FFC3FFFFFFFF7E
:10488000FFFFFFFF3FFFFFFFFFFFFFF3FFFFFFFF04
:10489000FFFFFFFFFF000003FFC3FFFFFCFFBFFFA1
:1048A000FFFFFFFFFFFFFFFFFFFFFFFFFFFFFFFF18
:1048B000FFFFFF000003FFC3FFFCFCFF1FFFFFFF24
:1048C000FFFFFFFFFFFFFFFFFFFFFFFFFFFFFFFFF8
:1048D000FFFFFFFFFFC3FFFCFCFC3FFFFFFFFFFEEE
:1048E0007FFBFFFFFFFFFFFFFFFFFFFFFFFFFFFF5C
:1048F000FFFFFFC3FFFCFCF83FFFFFFFFFFE7FF958
:10490000FFFFFFFFFFFFFFFFFFFFFFFFFFFFFFFFB7
:10491000FFC3FFFCFCF03FFFBFFFFCFE7FF9FFFF82
:10492000FFFFFFFFFFFFFFFFFFFFFFFFFFFFFFC3D3
:10493000FFFCFCE33FFF1FFFFCFE7FF9FFCFFFFF03
:10494000FFFFFFFFFFFFFFFFFFFFFFFFFFC3FFFCB6
:10495000FCF73FFF3C007CFE7FF9FFCFFFFFFFFF2E
:10496000FFFFFFFFFFFFFFFC03FFFFC3FFFCFCFF98
:104970003FFE7C007E7E7FF9FFCFFFFFFFFFFFFF42
:10498000FFFFFFFFFFF0007FFFC3FFC000FF3FFC02
:104990009CF9FE7E0009FFCFFFFFFFFFFFFFFFFF37
:1049A000FFFFFFE0003FFFC3FFC0007F3FF99CF91E
:1049B000FE7E0009F800003FFFFFFFFFFFFFFFFF43
:1049C000FFC0000FFFC3FFFCFC1F3FE39CF9FE7E0E
:1049D0007FF9F800001FFFFFFFFFFFFFFFFFFF81D0
:1049E000FC0FFFC3FFFCFC0F3FC79CF9FE7E7FF965
:1049F000FFCFFFCFFFFFFFFFFFFFFFFFFF87FF0797
:104A0000FFC3FFFCFC873F1F9CF9FE3E7FF9FFCFF1
:104A1000FFCFFFFFFFFFFFFFFFFFFF0FFF87FFC37A
:104A2000FFFCFCE33F1F9CF9FF3E7FF9FFCFFFCF68
:104A3000FFFFFFFFFFFFFFFFFF0FFFC3FFC3FFFCF1
:104A4000FCF03F8F9CF9FF3E7FF9FFCFFFCFFFFFC8
:104A5000FFFFFFFFFFFFFF1FFFE3FFC3FFFCFCFCA7
:104A60003FC79CF9FF3E7FF9FFCFFFCFFFFFFFFF5E
:104A7000FFFFFFFFFF1FFFE3FFC3FFFCFCFE3FE361
:104A80009CF9FF0003F9FFCFF7CFFFFFFFFFFFFF08
:104A9000FFFFFF1FFFE3FFC3FFFFFCFF7FF19CF958
:104AA000FF000079FFCFC3FFFFFFFFFFFFFFFFFF06
:104AB000FF1FFFE3FFC3FFFFFCFFFFF89CF9FFFFB1
:104AC000F819FFCF0FFFFFFFFFFFFFFFFFFFFF9F63
:104AD000FFE3FFC3FFFBFFFFFFFC9CF9FFFFFF09A4
:104AE000FFCE1FFFFFFFFFFFFFFFFFFFFF8FFFC78F
:104AF000FFC3FFF1F7DFFFFE7C007FFFFFD3FFCF97
:104B00007FFFFFFFFFFFFFFFFFFFFFCFFFC7FFC3D9
:104B1000FFE3E383FFFE3C007FDFFFF3FFCFFFFFF8
:104B2000FFFFFFFFFFFFFFFFFFC7FF8FFFC3FFC7B1
:104B3000C7E07FFF3FFFFF8FFFE7FFCFFFFFFFFFD4
:104B4000FFFFFFFFFFFFFFE1FE1FFFC3FFEF8FFC33
:104B50001FEF1FFFFE1E000FFDFFFFFFFFFFFFFF08
:104B6000FFFFFFFFFF00000000C3FFFFDFFFBFC725
:104B7000BFFFFC7E000FF83FFFFFFFFFFFFFFFFFBF
:104B8000FFFFFF00000000C3FFFFFFFFFF8FDE7F7E
:104B9000F8FE7FC7FC00000FFFFFFFFFFFFFFFFFD6
:104BA000FF00000000C3FFFFFFFFFF9F8C0FFDFE13
:104BB0007FE3FF80000FFFFFFFFFFFFFFFFFFF000E
:104BC000000000C3FFF9FFFFFF1F1F01FFFE7FF37F
:104BD000FFE1FFFFFFFFFFFFFFFFFFFFFFFFFFFF03
:104BE000FFC3FFF9FFFFFFBF3FF07FFFFFFFFFF0B5
:104BF000FFFFFFFFFFFFFFFFFFFFFFFFFFFFFFC301
:104C0000FFF9FFFFFFFE3FFEFFCFFFE7FFFC7FFF47
:104C1000FFFFFFFFFFFFFFFFFFFFFFFFFFC3FFF9E6
:104C2000E03FFFFF7FFFFFCFF927FFFE7FFFFFFF82
:104C3000FFFFFFFFFFFFFFFFFFFFFFC3FFF9E000E4
:104C4000FFFF9CFEFE4FF927FFFFFFFFFFFFFFFF67
:104C5000FFFFFFFFFFFFFFFFFFC3FFF9E0007FE75C
:104C60009CFE7E4FF927FFCFFFFFFFFFFFFFFFFFF7
:104C7000FFFFFFFC03FFFFC3FFF9E7F03FE79CFCEA
:104C8000FE480927FFCFFFFFFFFFFFFFFFFFFFFFEA
:104C9000FFF0007FFFC3FFF9E7FE3FE59CFCFE4805
:104CA0000927FFCFFFFFFFFFFFFFFFFFFFFFFFE031
:104CB000003FFFC3FFF9E7FF3FE19C38FE4999271A
:104CC000F000001FFFFFFFFFFFFFFFFFFFC0000F0F
:104CD000FFC3FFF9E7FF3FE49C19FE499927F00065
:104CE000000FFFFFFFFFFFFFFFFFFF81FC0FFFC370
:104CF000FFE9E7FF3FE61C89FE499927FFCFFFCF79
:104D0000FFFFFFFFFFFFFFFFFF87FF07FFC3FF81DD
:104D1000E7FF3FC71CE3FE499001FFCFFFCFFFFF36
:104D2000FFFFFFFFFFFFFF0FFF87FFC3FF09E7FF45
:104D30003F879CF3FE499001FFCFFFCFFFFFFFFFAE
:104D4000FFFFFFFFFF0FFFC3FFC3FFB9E7FF3F07F1
:104D500094F3FE499FFFFFCFEFCFFFFFFFFFFFFF61
:104D6000FFFFFF1FFFE3FFC3FFF9E7FF3FA780E15E
:104D7000FE499FFFFFCF87CFFFFFFFFFFFFFFFFF32
:104D8000FF1FFFE3FFC3FFF9E7FFFFE690E1F8092C
:104D90009FFFFFCE0FCFFFFFFFFFFFFFFFFFFF1FB4
:104DA000FFE3FFC3FFF803FFFFE41C4CF8099FFF7C
:104DB000FFCC3FFFFFFFFFFFFFFFFFFFFF1FFFE3F2
:104DC000FFC3FFF8003FFFE09C0CFE499001FFCEBF
:104DD000FFFFFFFFFFFFFFFFFFFFFF9FFFE3FFC39B
:104DE000FFF9C007FFE59C9CFE499001FFCFFFFF44
:104DF000FFFFFFFFFFFFFFFFFF8FFFC7FFC3FFF9AD
:104E0000FF03FFE79CDE7E499927FFFFFEFFFFFFC0
:104E1000FFFFFFFFFFFFFFCFFFC7FFC3FFF9FFE06B
:104E2000FFE79CFE7E499927FE0FF87FFFFFFFFFFB
:104E3000FFFFFFFFFFC7FF8FFFC3FFF9FFF87FFFF3
:104E40009CFE7E499927FE00F0FFFFFFFFFFFFFF5A
:104E5000FFFFFFE1FE1FFFC3FFF9FFFC3FF9E4FE88
:104E6000F8499927FE7003FFFFFFFFFFFFFFFFFFD9
:104E7000FF00000000C3FFF9FFFE3FF9F7FFFC4809
:104E80000927FE7F07FFFFFFFFFFFFFFFFFFFF0078
:104E9000000000C3FFF9FFFF1FF9F3FFFE08092719
:104EA000FE7F03FFFFFFFFFFFFFFFFFFFF0000008C
:104EB00000C3FFFFFFFFBF000000FF0FF927FE7CCC
:104EC00030FFFFFFFFFFFFFFFFFFFF00000000C3F9
:104ED000FFFFFFFFFF0000007F4FF927FE78787F7C
:104EE000FFFFFFFFFFFFFFFFFFFFFFFFFFC3FFFF0E
:104EF000FFFFFFF9F9FE7FCFF927FE71FE3FFFFFAD
:104F0000FFFFFFFFFFFFFFFFFFFFFFC3FFFFFFFFED
:104F1000FFF9F9FE7FCFFFE7FE63FF1FFFFFFFFFF3
:104F2000FFFFFFFFFFFFFFFFFFC3FFFFFFFFFFF9D3
:104F3000FCFE7FFFFFFFFE77FF8FFFFFFFFFFFFFFE
:104F4000FFFFFFFFFFFBFFC3FFFFFFFFFFF9FCFEBB
:104F50007FFFFFFFFFFFFFDFFFFFFFFFFFFFFFFF01
:104F6000FFFFFFC3FFC3FFFFFFFFFFFFFFFFFFFFC9
:104F7000FFFFFFFFFFFFFFFFFFFFFFFFFFFFFFFF41
:104F8000FF03FFC3FFFFFFFFFFFFFFFFFFFFFFFF69
:104F9000FFFFFFFFFFF3FFFFFFFFFFFFFFFFF80330
:104FA000FFC3FFFFFFFFFFFFFFFFFFFFFFFFFFFF4D
:104FB000FFFFFFF3FFFFFFFFFFFFFFFFC007FFC380
:104FC000FFFFFFFFFFFFFFFFFFFFFFFFFFFFFFFFF1
:104FD000E7F3FFFFFFFFFFFFFFFF003FFFC3FFFF00
:104FE000FFFFFFFFFFFFFFFFFFFFFFFFFFFFE7F3F5
:104FF000FFFFFFFFFFFFFFF801FFFFC3FFFFFFF809
:10500000FFFFFFFFFFFFFFFFFFFFFFFFE7F3FFFFD4
:10501000FFFFFFFFFFE007FFFFC3FFFFFFF8FFFFFA
:10502000FFFFFFFFFFFFFFFFFFFFE7F3FFFFFFFFB4
:10503000FFFFFF0007FFFFC3FFFFFFF8FFFFFFFFBA
:10504000FFFFFFFFFFFFFFFFE7F3FFFFFFFFFFFF94
:10505000F80047FFFFC3FFFFFFFFFFFFFFFFFFFF5A
:10506000FF8FFFFFFFFFE7F3FFFFFFFFFFFFE003FF
:10507000C7FFFFC3FFFFFFFFFFFFFFFFFFFFFF8F24
:10508000FFFFFFFFE7F3FFFFFFFFFFFF001FC7FF6B
:10509000FFC3FFFFFFFFFFFFFFFFFFFFFF8FFFFFCC
:1050A000FFFFE7F3FFFFFFFFFFFE00FFC7FFFFC3A8
:1050B000FFFFFFFFFFFFFFFFFFFFFFFFFFFFFFFF00
:1050C000E7F3FFFFFFFFFFFE07FFC7FFFFC3FFFF81
:1050D000F000FFFFFFFFFFFFFFFFFFFFFFFFE0000C
:1050E000003FFFFFFFFE07FFC7FFFFC3FFFFC0003A
:1050F000FFFFFFFFFFFBFFFFFFFFFFFFE000001FC1
:10510000FFFFFFFE00FFC7FFFFC3FFFFC000FFFF61
:10511000FFFFFFF87FFFFFFFFFFFE7F3FF9FFFFFAA
:10512000FFFF001FC7FFFFC3FFFF87FFFFFFFFFF5A
:10513000FFF81FFFFFFFFFFFE7F3FF9FFFFFFFFFEA
:10514000E007C7FFFFC3FFFF9FFFFFFFFFFFFFFC5D
:1051500003FFFFFFFFFFE7F3FF9FFFFFFFFFF800E5
:10516000C7FFFFC3FFFF9FFFFFFFFFFFFFFF80FFA2
:10517000FFFFFFFFE7F3FF9FFFFFFFFFFF0007FFBA
:10518000FFC3FFFF9FFFFFFFFFFFFFFFF01FFFFFBA
:10519000FFFFE7F3FF9FFFFFFFFFFFE007FFFFC3F6
:1051A000FFFF9FFFFFFE3FE7FFFFFE0FFFE3FE7FD6
:1051B000E7F3FF9FFFFFFFFFFFF801FFFFC3FFFFC4
:1051C000CFFFFFFE3FE0FFFFFF8FFFE3FE0FE7F3A0
:1051D000FFFFFFFFFFFFFFFF003FFFC3FFFFE7FFF2
:1051E000FFFE3FE03FFFFC0FFFE3FE03E7F3FFFF9F
:1051F000FFFFFFFFFFFFC007FFC3FFFF8000FFFFB0
:10520000FFFF3FFFC01FFFFFFFF3E7F3FFFFFFFFBD
:10521000FFFFFFFFF803FFC3FFFF8000FFFFFFFF5B
:10522000FFFE00FFFFFFFFFFE7F3FFFFFFFFFFFFB2
:10523000FFFFFF03FFC3FFFF8000FFFFFFFFFFF83B
:1052400007FFFFFFFFFFFFF3FFFFFFFFFFFFFFFF72
:10525000FFC3FFC3FFFFFFFFFFFFFFFFFFF83FFF9D
:10526000FFFFFFFFFFF3FFFFFFFFFFFFFFFFFFFB5E
:10527000FFC3FFFFFFFFFFFFFFFFFFF9FFFFFFFF80
:10528000FFFFFFFFFFFFFFFFFFFFFFFFFFFFFFFF2E
:10529000FFFFFFFFFFFFFFFFFFFFFFFFFFFFFFFF1E
:1052A000FFFFFFFFFFFFFFFFFFFFFFFFFFFFFFFF0E
:1052B000FFFFFFFFFFFFFFFFFFFFFFFFFFFFFFFFFE
:1052C000FFFFFFFFFFFFFFFFFFFFFFFFFFFFFFFFEE
:1052D000FFFFFFFFFFFFFFFFFFFFFFFFFFFFFFFFDE
:1052E000FFFFFFFFFFFFFFFFFFFFFFFFFFFFFFFFCE
:1052F000FFFFFFFFFFFFFFFFFFFFFFFFFFFFFFFFBE
:10530000FFFFFFFFFFFFFFFFFFFFFFFFFFFFFFFFAD
:10531000FFFFFFFFFFFFFFFFFFFFFFFFFFFFFFFF9D
:10532000FFFFFFFFFFFFFFFFFFFFFFFFFFFFFFFF8D
:10533000FFFFFFFFFFFFFFFFFFFFFFFFFFFFFFFF7D
:10534000FFFFFFFFFFFFFFFFFFFFFFFFFFFFFFFF6D
:10535000FFFFFFFFFFFFFFFFFFFFFFFFFFFFFFFF5D
:10536000FFFFFFFFFFFFFFFFFFFFFFFFFFFFFFFF4D
:10537000FFFFFFFFFFFFFFFFFFFFFFFFFFFFFFFF3D
:10538000FFFFFFFFFFFFFFFFFFFFFFFFFFFFFFFF2D
:10539000FFFFFFFFFFFFFFFFFFFFFFFFFFFFFFFF1D
:1053A000FFFFFFFFFFFFFFFFFFFFFFFFFFFFFFFF0D
:1053B000FFFFFFFFFFFFFFFFFFFFFFFFFFFFFFFFFD
:1053C000FFFFFFFFFFFFFFFFFFFFFFFFFFFFFFFFED
:1053D000FFFFFFFFFFFFFFFFFFFFFFFFFFFFFFFFDD
:1053E000FFFFFFFFFFFFFFFFFFFFFFFFFFFFFFFFCD
:1053F000FFFFFFFFFFFFFFFFFFFFFFFFFFFFFFFFBD
:10540000FFFFFFFFFFFFFFFFFFFFFFFFFFFFFFFFAC
:10541000FFFFFFFFFFC3FFFFFFFFFFFFFFFFFFFFD8
:10542000FFFFFFFFFFFFFFFFFFFFFFFFFFFFFFFF8C
:10543000FFFFFFC3FFFFFFFFFFFFFFFFFFFFFFFFB8
:10544000FFFFFFFFFFFFFFFFFFFFFFFFFFFFFFFF6C
:10545000FFC3FFFFFFFFFFFFFFFFFFFFFFFFFFFF98
:10546000FFFFFFFFFFFFFFFFFFFFFFFFFFFFFFC388
:10547000FFFFFFFFFFFFFFFFFFFFFFFFFFFFFFFF3C
:10548000FFFFFFFFFFFFFFFFFFFFFFFFFFC3FFFF68
:10549000FFFFFFFFFFFFFFFFFFFFFFFFFFFFFFFF1C
:1054A000FFFFFFFFFFFFFFFFFFFFFFC3FFFFFFFF48
:1054B000FFFFFFFFFFFFFFFFFFFFFFFFFFFFFFFFFC
:1054C000FFFFFFFFFFFFFFFFFFC3FFFFFFFFFFFF28
:1054D000FFFFFFFFFFFFFFFFFFFFFFFFFFFFFFFFDC
:1054E000FFFFFFFFFFFFFFC3FFFFFFFFFFFFFFFF08
:1054F000FFFFFFFFFFFFFFFFFFFFFFFFFFFFFFFFBC
:10550000FFFFFFFFFFC3FFFFFFFFFFF00003FFFFF1
:10551000FFFFFFFFFFFFFFFFFFFFFFFFFFFFFFFF9B
:10552000FFFFFFC3FFFFFFFFFFF00001FFFFFFFFD3
:10553000FFFFFFFFFFFFFFFFFFFFFFFFFFFFFFFF7B
:10554000FFC3FFFFFFFFFFF3FFF8FFFFFFFFFFFFBA
:10555000FFFFFFFFFFFFFFFFFFFFFFFFFFFFFFC397
:10556000FFFFFFFFFFF3FFFCFFFFFFFFFFFFFFFF5A
:10557000FFFFFFFFFFFFFFFFFFFFFFFFFFC3FFFF77
:10558000FFFFFFF3FEFCFFFFFFFFFFFFFFFFFFFF3B
:10559000FFFFFFFFFFFFFFFFFFFFFFC3FFFFFFFF57
:1055A000FFF3FC7CFFFFFFFFFFFFFFFFFFFFFFFF9D
:1055B000FFFFFFFFFFFFFFFFFFC3FFFFFFFFFFB383
:1055C000F0FCFFFFFFFFFFFFFFFFFFFFFFFFFFFFFD
:1055D000FFFFFFFFFFFFFFC3FFFFFFFFFF83E3FCB2
:1055E000FFFFFFFFFFFFFFFFFFFFFFFFFFFFFFFFCB
:1055F000FFFFFFFFFFC3FFFFFFFFFFC3C7FCFFFF6E
:10560000FFFFFFFFFFFFFFFFFFFFFFFFFFFFFFFFAA
:10561000FFFFFFC3FFFFFFFFFFF0EFFFFFFFFFFFF5
:10562000FFFFFFFFFFFFFFFFFFFFFFFFFFFFFFFF8A
:10563000FFC3FFFFFFFFFFFC7FFFFFFFFFFFFFFF39
:10564000FFFFFFFFFFFFFFFFFFFFFFFFFFFFFFC3A6
:10565000FFFFFFFFFFFE3FFFFFFFFFFFFFFFFFFF1B
:10566000FFFFFFFFFFFFFFFFFFFFFFFFFFC3FFFF86
:10567000FFFFFFFF7FFFFFFFFFFFFFFFFFFFFFFFBA
:10568000FFFFFFFFFFFFFFFFFFFFFFC3FFFFFFFF66
:10569000FFF00000FFFFFFFFFFFFFFFFFFFFFFFF27
:1056A000FFFFFFFFFFFFFFFFFFC3FFFFFFFFFFF055
:1056B0000000FFFFFFFFFFFFFFFFFFFFFFFFFFFFF8
:1056C000FFFFFFFFFFFFFFC3FFFFFFFFFFF3F3F34A
:1056D000FFFFFFFFFFFFFFFFFFFFFFFFFFFFFFFFDA
:1056E000FFFFFFFFFFC3FFFFFFFFFFF3F3F3FFFF2A
:1056F000FFFFFFFFFFFFFFFFFFFFFFFFFFFFFFFFBA
:10570000FFFFFFC3FFFFFFFFFF93F3F3FFFFFFFF69
:10571000FFFFFFFFFFFFFFFFFFFFFFFFFFFFFFFF99
:10572000FFC3FFFFFFFFFF83F3F3FFFFFFFFFFFF59
:10573000FFFFFFFFFFFFFFFFFFFFFFFFFFFFFFC3B5
:10574000FFFFFFFFFFC3F3F3FFFFFFFFFFFFFFFFBD
:10575000FFFFFFFFFFFFFFFFFFFFFFFFFFC3FFFF95
:10576000FFFFFFF3F3F3FFFFFFFFFFFFFFFFFFFF6D
:10577000FFFFFFFFFFFFFFFFFFFFFFC3FFFFFFFF75
:10578000FFF00000FFFFFFFFFFFFFFFFFFFFFFFF36
:10579000FFFFFFFFFFFFFFFFFFC3FFFFFFFFFFF064
:1057A0000000FFFFFFFFFFFFFFFFFFFFFFFFFFFF07
:1057B000FFFFFFFFFFFFFFC3FFFFFFFFFFFFFFFF35
:1057C000FFFFFFFFFFFFFFFFFFFFFFFFFFFFFFFFE9
:1057D000FFFFFFFFFFC3FFFFFFFFFFFFFFFFFFFF15
:1057E000FFFFFFFFFFFFFFFFFFFFFFFFFFFFFFFFC9
:1057F000FFFFFFC3FFFFFFFFFFFFFFFFFFFFFFFFF5
:10580000FFFFFFFFFFFFFFFFFFFFFFFFFFFFFFFFA8
:10581000FFC3FFFFFFFFFFFFFFFFFFFFFFFFFFFFD4
:10582000FFFFFFFFFFFFFFFFFFFFFFFFFFFFFFC3C4
:10583000FFFFFFFFFFFFFFFFFFFFFFFFFFFFFFFF78
:10584000FFFFFFFFFFFFFFFFFFFFFFFFFFC3FFFFA4
:10585000FFFFFFFFFFFFFFFFFFFFFFFFFFFFFFFF58
:10586000FFFFFFFFFFFFFFFFFFFFFFC3FFFFFFFF84
:10587000FFFFFFFFFFFFFFFFFFFFFFFFFFFFFFFF38
:10588000FFFFFFFFFFFFFFFFFFC3FFFFFFFFFFFF64
:10589000FFFFFFFFFFFFFFFFFFFFFFFFFFFFFFFF18
:1058A000FFFFFFFFFFFFFFC3FFFFFFFFFFFFFFFF44
:1058B000FFFFFFFFFFFFFFFFFFFFFFFFFFFFFFFFF8
:1058C000FFFFFFFFFFC3FFFFFFFFFFFFFFFFFFFF24
:1058D000FFFFFFFFFFFFFFFFFFFFFFFFFFFFFFFFD8
:1058E000FFFFFFC3FFFFFFFFFFFFFFFFFFFFFFFF04
:1058F000FFFFFFFFFFFFFFFFFFFFFFFFFFFFFFFFB8
:10590000FFC3FFFFFFFFFFFFE1FFFFFFFFFFFFFF01
:10591000FFFFFFFFFFFFFFFFFFFFFFFFFFFFFFC3D3
:10592000FFFFFFFFFFFF81CFFFFFFFFFFFFFFFFF35
:10593000FFFFFFFFFFFFFFFFFFFFFFFFFFC3FFFFB3
:10594000FFFFFFFF01E7FFFFFFFFFFFFFFFFFFFF7D
:10595000FFFFFFFFFFFFFFFFFFFFFFC3FFFFFFFF93
:10596000FFFE19F3FFFFFFFFFFFFFFFFFFFFFFFF3A
:10597000FFFFFFFFFFFFFFFFFFC3FFFFFFFFFFFE74
:1059800079F3FFFFFFFFFFFFFFFFFFFFFFFFFFFFB9
:10599000FFFFFFFFFFFFFFC3FFFFFFFFFFFE79F3E6
:1059A000FFFFFFFFFFFFFFFFFFFFFFFFFFFFFFFF07
:1059B000FFFFFFFFFFC3FFFFFFFFFFFE79F3FFFFC6
:1059C000FFFFFFFFFFFFFFFFFFFFFFFFFFFFFFFFE7
:1059D000FFFFFFC3FFFFFFFFFFFE79F3FFFFFFFFA6
:1059E000FFFFFFFFFFFFFFFFFFFFFFFFFFFFFFFFC7
:1059F000FFC3FFFFFFFFFFFE39E3FFFFFFFFFFFFD6
:105A0000FFFFFFFFFFFFFFFFFFFFFFFFFFFFFFC3E2
:105A1000FFFFFFFFFFFF19C7FFFFFFFFFFFFFFFFB4
:105A2000FFFFFFFFFFFFFFFFFFFFFFFFFFC3FFFFC2
:105A3000FFFFFFFF8007FFFFFFFFFFFFFFFFFFFFED
:105A4000FFFFFFFFFFFFFFFFFFFFFFC3FFFFFFFFA2
:105A5000FFFFC00FFFFFFFFFFFFFFFFFFFFFFFFF85
:105A6000FFFFFFFFFFFFFFFFFFC3FFFFFFFFFFFF82
:105A7000F03FFFFFFFFFFFFFFFFFFFFFFFFFFFFF05
:105A8000FFFFFFFFFFFFFFC3FFFFFFFFFFFFFFFF62
:105A9000FFFFFFFFFFFFFFFFFFFFFFFFFFFFFFFF16
:105AA000FFFFFFFFFFC3FFFFFFFFFFFFFFFFFFFF42
:105AB000FFFFFFFFFFFFFFFFFFFFFFFFFFFFFFFFF6
:105AC000FFFFFFC3FFFFFFFFFFFE7FF7FFFFFFFFAB
:105AD000FFFFFFFFFFFFFFFFFFFFFFFFFFFFFFFFD6
